:0A000000021C9C90801D7402F02287
:10000B000221D9E4900281F0A3F090028004F02247
:10001B0002221AEF9002CA6008E04440F0A3E0F01D
:06002B0022E054BFF022A8
:100033000223C4E709F608DFFA8046E709F208DF7E
:10004300FA803E88828C83E709F0A3DFFA8032E3EB
:1000530009F608DFFA8078E309F208DFFA8070888E
:10006300828C83E309F0A3DFFA806489828A83E0C8
:10007300A3F608DFFA805889828A83E0A3F208DFB7
:10008300FA804C80D280FA80C680D4806980F28066
:1000930033801080A680EA809A80A880DA80E2808C
:1000A300CA803389828A83ECFAE493A3C8C582C8E1
:1000B300CCC583CCF0A3C8C582C8CCC583CCDFE94B
:1000C300DEE7800D89828A83E493A3F608DFF9ECE7
:1000D300FAA9F0EDFB2289828A83ECFAE0A3C8C572
:1000E30082C8CCC583CCF0A3C8C582C8CCC583CC99
:1000F300DFEADEE880DB89828A83E493A3F208DF08
:10010300F980CC88F0EF60010E4E60C388F0ED24D7
:1001130002B4040050B9F582EB2402B4040050AFDA
:10012300232345822390008673BB010689828A8339
:10013300E0225002E722BBFE02E32289828A83E4A3
:100143009322BB010CE58229F582E5833AF583E02E
:10015300225006E92582F8E622BBFE06E92582F84D
:10016300E222E58229F582E5833AF583E49322BB13
:10017300010689828A83F0225002F722BBFE01F333
:1001830022EF8DF0A4A8F0CF8CF0A428CE8DF0A49C
:100193002EFE22BC000BBE0029EF8DF084FFADF0D4
:1001A30022E4CCF875F008EF2FFFEE33FEEC33FCBE
:1001B300EE9DEC984005FCEE9DFE0FD5F0E9E4CEF4
:1001C300FD22EDF8F5F0EE8420D21CFEADF075F0C3
:1001D30008EF2FFFED33FD4007985006D5F0F222CC
:1001E300C398FD0FD5F0EA22C5F0F8A3E028F0C5C7
:1001F300F0F8E582158270021583E038F022A3F847
:10020300E0C5F025F0F0E582158270021583E0C8A1
:1002130038F0E822BB0110E58229F582E5833AF53F
:1002230083E0F5F0A3E0225009E92582F886F0087F
:10023300E622BBFE0AE92582F8E2F5F008E222E5B0
:10024300832AF583E993F5F0A3E99322EF2BFFEEDD
:100253003AFEED39FDEC38FC22C3EF9BFFEE9AFE2C
:10026300ED99FDEC98FC22E88FF0A4CC8BF0A42C44
:10027300FCE98EF0A42CFC8AF0EDA42CFCEA8EF0B1
:10028300A4CDA8F08BF0A42DCC3825F0FDE98FF098
:10029300A42CCD35F0FCEB8EF0A4FEA9F0EB8FF08F
:1002A300A4CFC5F02ECD39FEE43CFCEAA42DCE3517
:1002B300F0FDE43CFC2275F008758200EF2FFFEEA1
:1002C30033FECD33CDCC33CCC58233C5829BED9A7F
:1002D300EC99E58298400CF582EE9BFEED9AFDECDD
:1002E30099FC0FD5F0D6E4CEFBE4CDFAE4CCF9A823
:1002F3008222B800C1B90059BA002DEC8BF084CF2B
:10030300CECDFCE5F0CBF97818EF2FFFEE33FEED01
:1003130033FDEC33FCEB33FB10D703994004EB992B
:10032300FB0FD8E5E4F9FA227818EF2FFFEE33FE3E
:10033300ED33FDEC33FCC933C910D7059BE99A4073
:1003430007EC9BFCE99AF90FD8E0E4C9FAE4CCFB8B
:100353002275F010EF2FFFEE33FEED33FDCC33CCDF
:10036300C833C810D7079BEC9AE899400AED9BFD68
:10037300EC9AFCE899F80FD5F0DAE4CDFBE4CCFA7B
:10038300E4C8F922EF4BFFEE4AFEED49FDEC48FCD1
:1003930022EB9FF5F0EA9E42F0E99D42F0E89C458E
:1003A300F022E8600FEFC333FFEE33FEED33FDECD5
:1003B30033FCD8F122E0FCA3E0FDA3E0FEA3E0FFC1
:1003C30022E0F8A3E0F9A3E0FAA3E0FB22ECF0A318
:1003D300EDF0A3EEF0A3EFF022A8828583F0D083A3
:1003E300D0821203F31203F31203F31203F3E47341
:1003F300E493A3C583C5F0C583C8C582C8F0A3C56C
:1004030083C5F0C583C8C582C822A42582F582E5C9
:10041300F03583F58322E0FBA3E0FAA3E0F922F8A9
:10042300E0FBA3A3E0F925F0F0E582158270021545
:1004330083E0FA38F022EBF0A3EAF0A3E9F022D04C
:1004430083D082F8E4937012740193700DA3A39385
:10045300F8740193F5828883E4737402936860EF00
:10046300A3A3A380DFEC8EF0A4CCC5F0CCCDF8EF32
:10047300A4CEC5F02DFDE43CFCE8A42EC8C5F03D98
:10048300FDE43CFCEFA4FFE5F028FEE43DFDE43C85
:10049300FC22E3F5F009E208B5F06BDFF58067E3D2
:1004A300F5F009E608B5F05EDFF5805A87F009E656
:1004B30008B5F052DFF6804E87F009E208B5F04642
:1004C300DFF6804288828C8387F009E0A3B5F0369B
:1004D300DFF6803288828C8387F009E493A3B5F03A
:1004E30025DFF5802188828C83E3F5F009E0A3B54D
:1004F300F014DFF5801088828C83E3F5F009E49330
:10050300A3B5F002DFF40205C4808780E980908000
:10051300D4803E8015806E807E809D80B7808D80E4
:10052300A380518074803C0205D089828A83ECFACF
:10053300E493F5F0A3C8C582C8CCC583CCE493A3E8
:10054300C8C582C8CCC583CCB5F076DFE3DEE180D5
:100553007089828A83E493F5F0A3E208B5F062DF41
:10056300F4805E89828A83E0F5F0A3E608B5F05152
:10057300DFF5804D89828A83E0F5F0A3E208B5F0C8
:1005830040DFF5803C89828A83E493F5F0A3E60893
:10059300B5F02EDFF4802A8002805789828A83ECAB
:1005A300FAE493F5F0A3C8C582C8CCC583CCE0A315
:1005B300C8C582C8CCC583CCB5F006DFE4DEE280D3
:1005C300007FFFB5F0020F2240027F012289828A59
:1005D30083ECFAE0F5F0A3C8C582C8CCC583CCE0B0
:1005E300A3C8C582C8CCC583CCB5F0D5DFE5DEE3AF
:1005F30080CF89828A83ECFAE0F5F0A3C8C582C86C
:10060300CCC583CCE493A3C8C582C8CCC583CCB581
:10061300F0AFDFE4DEE280A988F0EF60010E4E6008
:10062300ABED2402B404005098F582EB2402B40429
:1006330000508E232345822390050C73EF4E6012E6
:10064300EF60010EEDBB010B89828A83F0A3DFFC0F
:10065300DEFA2289F05007F709DFFCA9F022BBFE7E
:10066300FCF309DFFCA9F022E508245AF582E434FF
:1006730002F583E005082290025730070390025ADF
:10068300E475F00112042202012C2000E97F2ED22E
:10069300008018EF540F2490D43440D4FF30040B5F
:1006A300EF24BFB41A0050032461FFE5096002156B
:1006B30009050CE50C7002050B30070E900257E498
:1006C30075F001120422EF0201720228C17403D2F1
:1006D300078003E4C207F508900257120439E4F5D2
:1006E30009F50BF50CE50960077F201206AE80F5CE
:1006F300750AFFC201C200C202C203C205C206C21A
:100703000812067AFF700D3007057F001206BFAF8F
:100713000CAE0B22B4255FC2D5C20412067AFF24A5
:10072300D0B40A00501A75F00A780930D50508B616
:10073300FF0106C6A426F620D5047002D20380D991
:1007430024CFB41A00EF5004C2E5D2040208C0D289
:100753000180C6D20080C0D20280BCD2D580BAD27A
:100763000580B47F201206AE2002077401B509008C
:1007730040F112066BFF1206AE0206E8D208D2065B
:10078300809512066BFB12066BFA12066BF94A4B45
:10079300700679917A097BFF20022EE509602A7E93
:1007A300008E8275830012014560060EEE650A70A5
:1007B300F0C2D5EBC0E0EAC0E0E9C0E0EE12090701
:1007C300D0E0F9D0E0FAD0E0FB12012CFF60AAEBF5
:1007D300C0E0EAC0E0E9C0E01206AED0E02401F9CF
:1007E300D0E03400FAD0E0FBE50A0460DCD50AD996
:1007F30080877BFF7A097903D202809C791080027B
:100803007908C206C2088008D2D5790A8004790A19
:10081300C2D5E50A047002F50AE4FAFDFEFF1206EA
:100823006BFC7B0820011312066BFD7B1030000A62
:1008330012066BFE12066BFF7B20EC3382D592D53A
:100843005013C3E43000069FFFE49EFEE42001033F
:100853009DFDE49CFCE4CBF8C201EC700CCFCECD43
:10086300CCE824F8F870F38017C3EF33FFEE33FEC0
:10087300ED33FDEC33FCEB33FB994002FB0FD8E97E
:10088300EB300105F8D0E0C448B201C0E00AEC4DFA
:100893004E4F78207B0070C2EAB50A0040BCC0E02E
:1008A300120909D0F0D0E0200104C4C0E0C4B201B1
:1008B300C0F0120697D0F0D5F0EB0206E81204421E
:1008C30007855307FF5807564C07524208034F0842
:1008D3000B44080B49076B4308115507F54607F509
:1008E3004507F54709B150075A2D075E2E07812B9F
:1008F300076223077F20099A2A071A48000007790D
:100903003F3F3F00790AA2D5200314300509B910EF
:10091300020404B9080104A2D520060250010420F0
:1009230002689202B509005034C0E07F20300319F9
:100933007F30A20272067205500F120960C202C212
:1009430006C205C2087F30800F300503E9C0E012FC
:1009530006AE300503D0E0F9D0E0B509CC30051779
:100963007F30B9100C1206AE7F583004077F7880B1
:1009730003B908031206AE3002057F2D0206AE7FCF
:10098300202008F87F2B2006F322920280CF286EC6
:10099300756C6C2900D20112066B3001F8C2017824
:1009A3000930D50108F602071A2D5043495812069B
:1009B3006B2403B405004001E49009AC9312069F35
:1009C300743A12069FD2037509040207FF4102CE4F
:1009D300004E02C000000000000000000000000004
:1009E30000005002B0000000000000000000000002
:1009F30000000000004A00D23F065B4F666D7D0792
:100A03007F6F603A00360104010301020101010016
:100A1300020F020E020D020C020B020A0209020867
:100A23000207020602050204020302020201020097
:100A3300030F030E030D030C000F030B030A03093B
:100A43004E008C0500050105020503050405050597
:100A5300064E001E040004010402040304040405FA
:100A630004064E007007080709070A070B070C075F
:100A73000D070E4E007E0701070207030704070553
:100A8300070607074E00B606080609060A060B0600
:100A93000C060D060E4E00C40601060206030604EC
:100AA300060506060607604600DC050F0400040180
:100AB3000402040304040405050705080509050ADF
:100AC300050B050C050D05000501050205030504CD
:100AD300050505060609060A060B060C060D060E95
:100AE300060F0602060306040605060606070608A1
:100AF3004E009A03030304030503060307030803D5
:100B0300094E00A8040C040D040E040F0300030196
:100B130003024A002C020B020C020F010001034ADC
:100B23000122020A020D020E01010102410000002E
:100B330041000100420002000041000400420005A0
:100B43000000410007004100080042000900004185
:100B5300000B0041000C0041000D0042000E00009C
:100B63004200100000420012000042001400004244
:100B73000016000041001800420019000042001B4B
:100B8300000041001D004103230042032100005FD8
:100B930002910000000000000000000000000000BF
:100BA3000000000000000000000000000000000042
:100BB30000410280004202810000470283000000DE
:100BC3000000000047028A000000000000005B02F2
:100BD300EB00000000000000000000000000000027
:100BE3000000000000000000000000004A030600AF
:100BF3000000000000000000004202DE0000C10A05
:100C03004102CF004402D0000000004102D4004161
:100C130002D500480311000000000000000041035A
:100C2300100041024D00605001FD00000000000073
:100C330000000000000000000000000000000000B1
:100C430000000000000000000000000000000000A1
:100C53000000000000000000000000000000000091
:100C63000000000000000000000000000000000081
:100C73000000000000000000000041024E0041019E
:100C8300FA004103190041031A0042031F00004107
:100C9300031D0041031E0000E0FCA3E0FDEF25E07F
:100CA3002471F582E43400F583E0FF7E007401A82B
:100CB300070822900253E0FF25E02470F582E43414
:100CC30000F583E025E024B0F582E43402F58322C5
:100CD300E0FCA3E0FDEF25E022EEF0A3EFF09002AD
:100CE30050E0FF25E02422F582E43401F583E0257A
:100CF300E024C0F582E43402F58322F4FFEEF45CD1
:100D0300FEED5F22E475F0010201EBFFEC4EFEED18
:100D13004F22F074D22DF582E43400F583E0229063
:100D23000253E0FF25E0247EF582E43400229002A2
:100D330053E0FF25E024B6F582E434002290025309
:100D4300E0FF25E024C4F582E4340022E075F00AD4
:100D530084ADF0E4FF22E0FCA3E0FDEF75F00EA408
:100D630024DDF582E43400F58322E47B0AFAF9F802
:100D73009002561203B81202F5AF03AD0722EEF04C
:100D8300A3EFF090025222EEF0A3EFF09002502274
:100D9300900261E0FF75F00EA424DCF582E43400D8
:100DA300F58322E075F00A84FD7F0122247FF5821A
:100DB300E434002224B7F582E434002224C5F5820A
:100DC300E4340022900257E0FF25E022900252E033
:100DD300FEA3E0FF7C007D0A020196900000E0FF85
:100DE30025E0248CF582E4340022E4FDFC900251DA
:100DF3001203C412026AE42275F00202040DE0FF3A
:100E030025E0241EF582E4340022E04480F0A3E0D0
:100E1300F022E0FF25E0242CF582E434002225E0D3
:100E23002436F582E4340022E004F0E064072290E3
:100E33000303E060031220A71228EDEF7003020FF3
:100E4300BE1225A79003037401F0E4A3F0A3F012EC
:100E53001AA2EF601E900302E060157BFF7A2979E6
:100E6300891206D67BFF7A2979A11221A21206D60E
:100E7300122771900302E064046003020FBE900224
:100E8300EDE01204420EB3010EBE030EC6040ED9EA
:100E9300050EE5060EF3070F37080F81090F8B0ABE
:100EA3000F950E0F9F100FA9110FB31200000FBB68
:100EB3009002EEE09002A4F0020FBB1221C3900255
:100EC300A580259002EEE09002A7F09002EFE0905B
:100ED30002A8F0020FBB1221C3E4FCFD9002D6026C
:100EE3000F7C1221C390029FEEF0A3EFF0020FBB21
:100EF300122192C004C005C006C0079002EE781804
:100F0300122197D003D002D001D000120387C0046E
:100F1300C005C006C0079002F01221BC7808120376
:100F2300A5D003D002D001D0001221B012038790C4
:100F330002938045122192C004C005C006C00790E9
:100F430002EE1221BC78181203A5D003D002D001FF
:100F5300D000120387C004C005C006C0079002F08A
:100F63001221BC78081203A5D003D002D001D0000F
:100F73001221B01203879002971203D0803A900295
:100F8300EEE09002A9F080309002EEE09002AAF029
:100F930080269002EEE09002ABF0801C9002EEE01F
:100FA3009002ACF080129002EEE09002A3F0800871
:100FB3009002EEE09002ADF012277122900256EB00
:100FC300F0900255EF120D15900258F0EF14600DDA
:100FD3001470030210D8240260030210FBE4900291
:100FE30057F0900257E0FFC3940740030210FB90B1
:100FF3000256E06071120CAE8005C333CE33CED8F7
:10100300F9FF900258E0FDEF5D605B900255E070E0
:1010130029120DC7249AF582E43400120CEFC08321
:10102300C082120CD3249BF582E43400120CAA80F4
:1010330005C333CE33CED8F98027120DC724A8F5C4
:1010430082E43400120CEFC083C082120CD324A9B3
:10105300F582E43400120CAA8005C333CE33CED814
:10106300F9120D0E805C900255E0702C120DC7240E
:101073009AF582E43400120CEFC083C082120CD3C1
:10108300249BF582E43400120CAA8005C333CE33CB
:10109300CED8F9120CFE802A120DC724A8F582E4DB
:1010A3003400120CEFC083C082120CD324A9F58242
:1010B300E43400120CAA8005C333CE33CED8F91220
:1010C3000CFEFFD082D083EEF0A3EFF0900257E046
:1010D30004F0020FE5900256E09002C86012E0446B
:1010E30004F0A3E0F09002C8E04408F0A3E0F0228B
:1010F300E054FBF0E054F7F022E4900250F0A3F048
:10110300A31203DC00000000E4900256F090FC04FC
:10111300747FF090025C121C22E4FFFE12238A12F9
:101123001C4590025C121C287F807E0012238A12C9
:101133001C00F090028A1203B8900251E02FF09045
:10114300028FE0FF900251E02FF0900290E0FF90B9
:101153000251E02F121C3E7E007F0712061BEF7028
:1011630021121C886F701B121C92B50715121C2FBD
:1011730060107BFF7A2979C11206D6121C5DF0023A
:1011830012197BFF7A2979D61206D6121C88B50765
:101193000E121C2F6009900283121C7B7401F01243
:1011A3001C92B5072390028A121C32601B900252D4
:1011B3001203B890028A1203C4D312039440099015
:1011C300028A121C7B7402F0900256E024FE60082F
:1011D300047019121C5D8031900290E0900292F02D
:1011E30090028FE0900291121C3E8020E4900292C4
:1011F300F090029104F0A3121C4C1203DC000000D7
:1012030001E4900250F0121C00121C6D7E007F0757
:1012130012010612000E9002AD74FFF09002A4F0CA
:1012230022120D16900254F0EF7079900253F09051
:101233000253E0FFC39407400302131E120CAE8057
:1012430005C333CE33CED8F9FF900254E0FDEF5DF2
:101253006021120D31120CC4C083C082120CD31250
:101263000DB7120CAA8005C333CE33CED8F9120DB5
:101273000E801F120D31120CC4C083C082120CD316
:10128300120DB7120CAA8005C333CE33CED8F91290
:101293000CFEFFD082D083EEF0A3EFF0900253E078
:1012A30004F0808BE4900253F0900253E0FFC39468
:1012B300075068120CAE8005C333CE33CED8F9FF86
:1012C300900254E0FDEF5D6021120D40120CC4C08A
:1012D30083C082120CD3120DBF120CAA8005C33334
:1012E300CE33CED8F9120D0E801F120D40120CC44E
:1012F300C083C082120CD3120DBF120CAA8005C387
:1013030033CE33CED8F9120CFEFFD082D083EEF069
:10131300A3EFF0900253E004F0808E22900318E0D4
:1013230024FE60611470030213B4240260030213E9
:10133300E212256450030213E2E4F0A3F090029258
:10134300E0701A900317E07008FF122835E4FF805D
:10135300077F011228357F01122586801F90029294
:10136300E0B40118900317E07008FF122825E4FF8A
:1013730080077F011228257F011227AD12257F7078
:10138300027F0180551225644055E4F0A3F09003D9
:1013930017E09002A87008E0FD7B017F018006E062
:1013A300FD7B01E4FF1215DB12257F70027F0180B4
:1013B300291225644029E4F0A3F0900317E090027A
:1013C300A77008E0FDE4FB7F018005E0FDE4FBFF7F
:1013D3001215DB12257F70027F01900317EFF0C314
:1013E300900316E09480900315E094254020E4F0E8
:1013F300A3F0900318E064026004E0B403057F04E3
:10140300121F88E4FF1228DB12210012000E12269D
:1014130009121DC7022681120D16900254F0EF70B7
:1014230067900253F0900253E0FFC3940740030216
:101433001502120CAE8005C333CE33CED8F9FF901C
:101443000254E0FDEF5D6018120CB6C083C0821237
:101453000C9B8005C333CE33CED8F9120D0E801604
:10146300120CB6C083C082120C9B8005C333CE33EB
:10147300CED8F9120CFEFFD082D083EEF0A3EFF0AA
:10148300900253E004F0809DE4900253F0900253E5
:10149300E0FFC394075068120CAE8005C333CE330C
:1014A300CED8F9FF900254E0FDEF5D6021120D22CA
:1014B300120CC4C083C082120CD3120DAF120CAA3B
:1014C3008005C333CE33CED8F9120D0E801F120D13
:1014D30022120CC4C083C082120CD3120DAF120CA3
:1014E300AA8005C333CE33CED8F9120CFEFFD082C7
:1014F300D083EEF0A3EFF0900253E004F0808E224D
:101503009002ADE0F470030215DAE0146069046040
:10151300030215D4900318E07015900291E07F0048
:1015230070027F01900291EFF012000E0215D1902C
:101533000318E0B40113900292E0700504F0021561
:10154300D1E4900292F00215D1900318E0B4021096
:101553009002A8E004F0E0D3943B4019E4F0806EDD
:10156300900318E0B4030E9002A7E004F0E0D394D4
:1015730017405BE4F08057900318E07025900291C8
:10158300E0B401047F0180439002971203DC000062
:10159300000012000E121D36900292E0FF12269CEC
:1015A300802C900318E0B401047F02801E9003187E
:1015B300E0B402097F04121F887F03800E90031892
:1015C300E0B4030A7F04121F88E4FF1228DB122110
:1015D300009002AD74FFF022AA05EF601FEB600ECE
:1015E300EA120D50121224EA120DA7021224EA1273
:1015F3000D5012141AEA120DA702141AEB605CE4E0
:10160300900250F0900250120D34120CC4C083C0EB
:1016130082120CD3120DB7120CAA8005C333CE333A
:10162300CED8F9120CFEFFD082D083120D8A120D90
:1016330043120CC4C083C082120CD3120DBF120C10
:10164300AA8005C333CE33CED8F9120CFEFFD08265
:10165300D083120D8A120E2B70AA22E4900250F04E
:10166300900250120CB9C083C082120C9B8005C338
:1016730033CE33CED8F9120CFEFFD082D083120DB5
:101683008A120D25120CC4C083C082120CD3120D12
:10169300AF120CAA8005C333CE33CED8F9120CFE99
:1016A300FFD082D083120D8A120E2B70B3229002C8
:1016B300561203D0E490025CF0A31203DC00000096
:1016C3000090025AE07022FF12001EE490025BF0C9
:1016D30090025BE0FFC39405400302175FC007124B
:1016E3000D6DD00712176080E79002561203B89071
:1016F300025D1203D090025CE004F0A31203B8E48D
:101703007B0AFAF9F81202F590025D1203D0E4FFA6
:10171300FEFDFC90025D1203C4C312039470D67FD6
:101723000112001E90025CE0FFD39405400574058E
:10173300F0800AEFB4010690025C7402F0E49002B8
:101743005BF090025CE0FE90025BE0FFC39E500CF6
:10175300C007120D6DD00712176080E6227B0112BD
:10176300184E9002561203B8E47B0AFAF9F81202F3
:10177300F59002561203D090025BE004F02290022F
:1017830050EFF0A3EDF0E4A3F0900252120CB9C0B5
:1017930083C082120C9B8005C333CE33CED8F9129B
:1017A3000CFEFFD082D083120D81120D25120CC4C2
:1017B300C083C082120CD3120DAF120CAA8005C3D2
:1017C30033CE33CED8F9120CFEFFD082D083120D64
:1017D30081120D34120CC4C083C082120CD3120DBB
:1017E300B7120CAA8005C333CE33CED8F9120CFE40
:1017F300FFD082D083120D81120D43120CC4C0831B
:10180300C082120CD3120DBF120CAA8005C333CEB3
:1018130033CED8F9120CFEFFD082D083120D811281
:101823000E2B600302178C900250120D4F12141AE4
:10183300900250120DA612141A900251120D4F125B
:101843001224900251120DA6021224900261EFF0AD
:10185300A3EBF0E4900264120D15900264F0E4909F
:101863000263F0900263E0FFC39407400302191878
:10187300900262E06052120CAE8005C333CE33CEC9
:10188300D8F9FF900264E0FDEF5D603C120D93C058
:1018930083C082900263E0D082D083120DFB120CCE
:1018A300F1C083C082120D59C083C082900263E0ED
:1018B300D082D083120DFB120CAC8005C333CE3320
:1018C300CED8F9120D0E803A120D93C083C08290C8
:1018D3000263E0D082D083120DFB120CF1C083C0EF
:1018E30082120D59C083C082900263E0D082D083FC
:1018F300120DFB120CAC8005C333CE33CED8F912D4
:101903000CFEFFD082D083EEF0A3EFF0900263E0F1
:1019130004F002186622E4900250F0A3F0A312032D
:10192300DC00000000E47FF47E01FDFC1225F9C316
:1019330012039450069002E6E060689002E6E060CD
:101943000EE4F09002D01203DC00000000801D7F43
:10195300247EE97D017C009002E21203C412026A34
:101963001225F91202F59002D01203D09002E2126E
:1019730003DC000000009002E71203DC000000001B
:10198300E47FFF7EFFFDFC9002D01203C4C3120369
:1019930094400A9002D01203DC0000FFFF90025033
:1019A3007401F0900250E06008E4F09002D0122538
:1019B300E99002521203B89002D61203C4D3120361
:1019C3009440069002D61225E9900251E0600CE49F
:1019D300F0A31203B890029B1203D022900250127C
:1019E3000439C374089D90025EF0900257E0FFC370
:1019F30074089F90025FF0C286C287E4900258F099
:101A0300E490025AF0A3F090025CF0A3F01222F1EA
:101A1300C39F40121222F19002501222D890025A10
:101A2300E5F0F0A3EFF090025F1222F4C39F40159C
:101A330090025F1222F49002541222D890025CE5C5
:101A4300F0F0A3EFF0E4900259F090025AE0C330B3
:101A5300E701D3928590025CE0C330E701D392B4EF
:101A6300D28690025BE025E0F090025AE033F090DA
:101A7300025DE025E0F090025CE033F0C286900264
:101A830059E004F0E0B410C2900258E004F0E064BE
:101A9300086003021A03D287C287C285C2B42290A8
:101AA3000250EFF0A37401F0E4FF900300E004F0B0
:101AB300900302E014601414602014602A2403705D
:101AC30063900250E064A5706E800F900302E004FF
:101AD300F0900250E09003018005900302E004F0CF
:101AE300E4900251F08050E4900251F0900301E041
:101AF300FE900300E0C39E403EE4FE900301E01429
:101B0300FDEEC39D50091221CEE02FFF0E80EC9015
:101B13000250E06F6006A37401F0801B900302E0A3
:101B230004F080137BFF7A2979471206D67A297944
:101B3300631221A01206D6900251E0FF70169002A4
:101B430050E0FE9002FFE024EB1221D1EEF0900270
:101B5300FFE004F022900250EFF0ED604A120E1500
:101B6300120CEFC083C082120CD3242DF582E4340F
:101B730000120CAA8005C333CE33CED8F9120D0E52
:101B8300FFD082D083120CDCC083C082120CD3241A
:101B930023F582E43401120CAA8005C333CE33CE7D
:101BA300D8F9120D0E804B900250120E15120CEF45
:101BB300C083C082120CD3242DF582E43400120CAE
:101BC300AA8005C333CE33CED8F9120CFEFFD082E0
:101BD300D083120CDCC083C082120CD32423F58281
:101BE300E43401120CAA8005C333CE33CED8F912E4
:101BF3000CFEFFD082D083EEF0A3EFF0229002839D
:101C03001203B8900250E02FF0900288E0FF900298
:101C130050E02FF0900289E0FF900250E02F227BEA
:101C2300017A027983E4F0A37407F022900283E43B
:101C3300FFFEFDFC1203C4C3020394F078837C020D
:101C43007D017B017A02798A22E0900289F0900279
:101C530091E0900288F090028322900289E0900242
:101C630092F0900288E090029122F0788A7C027DC3
:101C7300017B017A027983221203B8900252120384
:101C8300D090025622900287E0FF900250E022900B
:101C9300028EE0FF900251E02278FFE4F6D8FD9037
:101CA30000007F007E08E4F0A3DFFCDEFA758121EB
:101CB300021CF102214AE493A3F8E493A34003F640
:101CC3008001F208DFF48029E493A3F85407240C7D
:101CD300C8C333C4540F4420C8834004F45680015E
:101CE30046F6DFE4800B01020408102040809009CF
:101CF300D0E47E019360BCA3FF543F30E509541F39
:101D0300FEE493A360010ECF54C025E060A840B861
:101D1300E493A3FAE493A3F8E493A3C8C582C8CADF
:101D2300C583CAF0A3C8C582C8CAC583CADFE9DEB2
:101D3300E780BE900291E0900250F0E0FB600590D6
:101D4300029380039002971203B89002511203D0BA
:101D5300EB7F0160027F00900255EFF0900292E06A
:101D630064017029900255E0600D7F6D7E02120DB3
:101D7300ED7BE87A03800B7F457E18120DED7B1017
:101D83007A27F9F81202F59002511203D07F9F7E51
:101D9300867D017C009002511203C4D31203944048
:101DA3000A9002511203DC0001869F900251120334
:101DB300B8900255E090025AF01216B1900250E02A
:101DC300FF02275BC3900314E094DB900313E094BA
:101DD30001406DE4F0A3F09002AEE0601C900310AC
:101DE300E07008FF122865E4FD80087F0112286572
:101DF3007D01E4FF121B5880057F011228659002C4
:101E0300AFE0601A900310E07009FDFF122049E46F
:101E1300FF800D7D01E4FF1220497F0180027F01D5
:101E2300122805900310E07003FF80027F01122641
:101E330047900310E07F0070027F01900310EFF0E2
:101E430022900252EEF0A3EFF0E4A3F0D3EF94C795
:101E5300EE94004009900252E4F0A374C7F090029C
:101E630052E0FAA3E0FB900254E004F07C007D0A08
:101E7300AF03AE02120196AA06AB07EB4A70E7E482
:101E8300FA900254E0FFEAC39FAF025019C0071251
:101E93000DCFD0077B01120FBF120DCF900252EE70
:101EA300F0A3EFF08006E4FBFD120FBF0AEAB403D0
:101EB300D022E4FB9002831203B8EF2401FFE43E37
:101EC300FEE43DFDE43CFC9002831203D0900292B9
:101ED300121C4C1203B8EB2FFB900288E02BFBA3E0
:101EE300E02B900287121C6D7E007F07120106E42F
:101EF300FF1224DB900255121C22E4FFFE12225B28
:101F03007F011224DB121C45900255121C287F808E
:101F13007E0012225B7BFF7A2979EA0206D612271A
:101F2300F512262912271612272D122744C39003D0
:101F330014E094FF900313E094FF5007E475F0015D
:101F43001201EB900318E064016009E0640260048D
:101F5300E0B4032CC3900312E094FF900311E094C8
:101F6300FF5007E475F0011201EBC3900316E094F0
:101F7300FF900315E094FF500BE475F0010201EBB1
:101F8300E412257222E4900250F090030674A5F047
:101F9300EF24FC70519003077406F0A37404F090CF
:101FA30002A7E0900309F09002A8E090030AF090E2
:101FB3000307E0FF900306E02FFF900308E02FFFE5
:101FC300A3E02FFFA3E02FFEA3F0E4900250F07BE9
:101FD300017A0379067D0A1224B8900250E004F0D6
:101FE300E0C3940340E9229002CFE004F0E0C394FD
:101FF30014402BE4F09002E075F0011201EBC39062
:1020030002E1E094589002E0E0940240119002E66D
:10201300E0700B9002E0F0A3F09002E604F030963B
:1020230022200A1C9002DA1203B8EF2401FFE43ED7
:10203300FEE43DFDE43CFC9002DA1203D012229A46
:10204300D20A22C20A22900250EFF0ED6025120E4E
:1020530001120CC4C083C082120CD3241FF582E486
:102063003400120CAA8005C333CE33CED8F9120D37
:102073000E8026900250120E01120CC4C083C0823F
:10208300120CD3241FF582E43400120CAA8005C37A
:1020930033CE33CED8F9120CFEFFD082D083EEF0CC
:1020A300A3EFF022C3900305E094D0900304E094DF
:1020B3000740497A2879F91221A01206D67BFF7AC4
:1020C30029792B1206D6E4900250F09002FFE0FF2C
:1020D300900250E0FEC39F50177BFF7A29793D128F
:1020E30021CE1221A51206D6900250E004F080DB27
:1020F3007BFF7A2979451206D612277122E49003D1
:1021030017F0122572900318E0700B9002A1E0FE05
:10211300A3E0FF122314900292E0700BFF1227AD8D
:102123007F01122586800AE4FF1225867F0112278C
:10213300AD121D36900292E0FF12269C9002A7E09A
:10214300FFA3E0FD021781E490024FF01226CFD2E5
:10215300AF12000312246E1227D31227E41228B2FF
:102163001223501228E61228F31210FC7BFF7A2A5E
:1021730079001206D675AAA512191912150312139E
:102183001F122493122875120E3212254280E690F4
:1021930002EF7810E0FFE4FCFDFE0203A57BFF9055
:1021A3000302E0FF90025AE4F0A3EFF02212038748
:1021B300A804A905AA06AB07A3E0FFE4FCFDFE22E1
:1021C3009002EEE0FEA3E0FDEDFF2274EB2EF5821C
:1021D300E43402F58322C0E0C0F0C083C082C0D0E3
:1021E30075D000C000C001C002C003C004C005C058
:1021F30006C007758CF8758ACD1226E7D007D0067E
:10220300D005D004D003D002D001D000D0D0D082EA
:10221300D083D0F0D0E032C0E0C0F0C083C082C031
:10222300D075D000C000C001C002C003C004C00507
:10223300C006C007758DFF758BA4121FEAD007D0A7
:1022430006D005D004D003D002D001D000D0D0D026
:1022530082D083D0F0D0E032900252120439AD071D
:10226300AC061224141223F97402F0E4FFFED39097
:102273000256E09F900255E09E4018900252E4758A
:10228300F00112042212012C90FC02F00FBF000196
:102293000E80DB122408229002E21203B89002DAC5
:1022A3001203C412024F9002E21203D09002DA1218
:1022B30003DC000000001225F99002E0E0FEA3E039
:1022C300FFE4FCFD12024F9002E71203D0E49002F8
:1022D300E0F0A3F0229FFFE49400FEEF25E0FFEE81
:1022E30033FE1204198F828E83120217FF2290028B
:1022F3005EE0FF900258E0227B017A0279B09002FF
:1023030054120439900257227E007D007B0102069D
:102313003F900250EEF0A3EFF0900292E0700A902B
:102323000250E0FEA3E0FF8020900292E0B4011C83
:10233300900250E0FEA3E0FF7C027D6D120468E48E
:102343007BE87A03F9F81202F5121E44227F0E7A13
:102353000279C012230B7F107A0279B012230B90FB
:1023630080067402F0908005F090801CF090800746
:10237300F0C285C2B4C286C2871222FB7407F07A08
:102383000279C0FD0219DF9002591204391223F3B6
:102393007401F0E4FFFED390025DE09F90025CE0E5
:1023A3009E401A90FC02E0FD900259E475F0011280
:1023B3000422ED1201720FBF00010E80D91224080E
:1023C30022C0E0C083C082C0D075D000C007E59AA8
:1023D30030E008439A01AF9B1224FEE59A30E105F1
:1023E300439A02C209D007D0D0D082D083D0E03242
:1023F300AC06E490FC01F0EC90FC06F090FC05EFD9
:10240300F090FC0122E490FC01F090FC0374AAF02C
:1024130022E490FC01F090FC03742A22E004F0E033
:10242300C39464227E007F677D007B0102063FE048
:10243300242CF582E43401F58322E02493F582E42D
:102443003401F58322EFC39402401FEFD394085065
:1024530019EF24FE33333354F84480F5ADE5AD3042
:10246300E0FBE5A254F84404F5A222C2097A0179FB
:10247300931224277A01792C12242790800974035C
:10248300F090800AF0F59D759CFA759AD0D2AE2231
:102493002094047F018002E4FF1228552095047FD5
:1024A300018002E4FF1228452082047F018002E4B8
:1024B300FF12289422900251120439E4FEEEC39DC8
:1024C30050159002511204198E8275830012014532
:1024D300FF1225200E80E622E490FC01F0EF75F058
:1024E30080A4FDACF090FC03742AF0EC90FC06F0A1
:1024F300AF051223FF740312240C229001901224BF
:102503001F4002E4F0900190122432EFF090019208
:10251300E004F0E0D3946440037464F0229001F784
:1025230012241F4002E4F09001F712243DEFF090D3
:1025330001F9E004F0E0D3946440037464F0229062
:102543000280E0601BC3900282E094D0900281E09D
:102553009407400CE4900280F0A3F0A3F0121EB5A0
:1025630022C3900312E09490900311E0940122900F
:102573000311F0A3F0900315F0A3F022900317E0EA
:102583007F0022EF9002C66012E04410F0A3E0F057
:102593009002C6E04420F0A3E0F022E054EFF0E024
:1025A30054DFF022900192E07002FF229001911219
:1025B300241F4002E4F0900191122432E0FF9001C5
:1025C30092E014F0229001F9E07002FF229001F8EA
:1025D30012241F4002E4F09001F812243DE0FF9022
:1025E30001F9E014F0221203B89002521203D090C2
:1025F30002517401F0229002E70203C4900000E04C
:10260300FF9002D4E0229002A9E0FF1227879002F4
:10261300AAE0FF12279A9002ABE0FF1227C09002B4
:10262300ACE0FF022885900318E0600BE0640160D2
:1026330006E490024DF02290024DE0C394FF500354
:10264300E004F022EF9002BE600B120E0D9002BD6B
:10265300E04401F022E0547FF09002BDE054FEF02C
:1026630022900303E06016C3900305E094FF9003F8
:1026730004E094FF5007E475F0011201EB2290028D
:10268300CEE0C394194011E4F01222FB7408F07AEF
:102693000279C07D071219DF22AE07EE7008FF1220
:1026A30028250F022835EEB40109E4FF1228350F5F
:1026B30012282522EF9002C16009E04420F0E04493
:1026C30040F022E054DFF0E054BFF02275EFE17FE9
:1026D3000612244843A18075A941E4F5AC75AB4BC0
:1026E30075AAA522900323E0C394FF5003E004F0EE
:1026F3001226FF121F211228A3022664C39003226D
:10270300E094FF900321E094FF5007E475F0011279
:1027130001EB22C39002DFE094FF9002DEE094FF1E
:102723005007E475F0011201EB22C390031CE094FF
:10273300FF90031BE094FF5007E475F0011201EBD7
:1027430022C3900320E094FF90031FE094FF5007FF
:10275300E475F0011201EB22AE07EE7F0160027F08
:10276300001226B7EE7F0060027F01022815E49075
:102773000300F09002FFF0900303F0A3F0A3F090A6
:102783000302F022EF9002C86008E04401F0A3E0E6
:10279300F022E054FEF022EF9002C66008E0440409
:1027A300F0A3E0F022E054FBF022EF9002C66008B1
:1027B300E04408F0A3E0F022E054F7F022EF9002A7
:1027C300C66008E04440F0A3E0F022E054BFF022EA
:1027D3005389FC438901758CF8758ACDD28CD2A9B3
:1027E300225389CF438910758DFF758BA4D28ED266
:1027F300AB229002CEE0C394FFE494FF5003E004C5
:10280300F022EF9002B76005E04480F022E0547FAD
:10281300F022EF9002CD6005E04401F022E054FE87
:10282300F022EF9002C96005E04440F022E054BF7B
:10283300F022EF9002C96005E04480F022E0547F6B
:10284300F022EF9002C56005E04402F022E054FD5F
:10285300F022EF9002C56005E04401F022E054FE4F
:10286300F022EF9002C36005E04410F022E054EF41
:10287300F0229001F9E060092009061225C8122808
:10288300CF22EF9002BC6004120E0D22E0547FF0C1
:1028930022EF9002C66004120E0D22E0547FF02254
:1028A300900280E06008A3E475F0011201EB22902E
:1028B300800C7401F090800DF0908002F022900261
:1028C3007FEFF01228CF90027FE0FF222009FDC2A4
:1028D300AE8F9BD209D2AE22900318EFF0E490039F
:1028E30017F02290800E7401F022900192E0FF22F3
:1028F300E4900318F02255415254207265636569D0
:1029030076652070726F636573732074696D656F8C
:1029130075742C2063757272656E742073746174A0
:1029230075733A2025750A004275666665722063E1
:102933006F6E74656E743A200A00307825303278F1
:1029430020000A00756172745F726563656976655C
:10295300725F70726F636573735F627974650A0087
:10296300756172745F72656365697665722E7374DF
:102973006120696E76616C69642C2076616C203D00
:102983003D2025750A00427974652070726F636576
:102993007373696E67206661696C65640A006375A9
:1029A3007220756172742072656365697665722041
:1029B3007374617475733A20253032750A00726539
:1029C3006164207361766520646174612070617352
:1029D300730A0072656164207361766520646174B3
:1029E30061206572720A00696E737472756D656E2B
:1029F300745F696E666F5F736176650A00737973DE
:072A030020696E69740A00EE
:00000001FF
