:0A000000020F9090801D7402F022A0
:10000B00021125900229F0A3F090022DF0A3F0220B
:10001B000211665389FC438901758CF8758ACDD220
:07002B008CD2A9220213CFC1
:10003300021296E709F608DFFA8046E709F208DFBD
:10004300FA803E88828C83E709F0A3DFFA8032E3EB
:1000530009F608DFFA8078E309F208DFFA8070888E
:10006300828C83E309F0A3DFFA806489828A83E0C8
:10007300A3F608DFFA805889828A83E0A3F208DFB7
:10008300FA804C80D280FA80C680D4806980F28066
:1000930033801080A680EA809A80A880DA80E2808C
:1000A300CA803389828A83ECFAE493A3C8C582C8E1
:1000B300CCC583CCF0A3C8C582C8CCC583CCDFE94B
:1000C300DEE7800D89828A83E493A3F608DFF9ECE7
:1000D300FAA9F0EDFB2289828A83ECFAE0A3C8C572
:1000E30082C8CCC583CCF0A3C8C582C8CCC583CC99
:1000F300DFEADEE880DB89828A83E493A3F208DF08
:10010300F980CC88F0EF60010E4E60C388F0ED24D7
:1001130002B4040050B9F582EB2402B4040050AFDA
:10012300232345822390008673BB010689828A8339
:10013300E0225002E722BBFE02E32289828A83E4A3
:100143009322BB010689828A83F0225002F722BBE5
:10015300FE01F322EF8DF0A4A8F0CF8CF0A428CEFB
:100163008DF0A42EFE22BC000BBE0029EF8DF0847F
:10017300FFADF022E4CCF875F008EF2FFFEE33FE6D
:10018300EC33FCEE9DEC984005FCEE9DFE0FD5F0A4
:10019300E9E4CEFD22EDF8F5F0EE8420D21CFEADAD
:1001A300F075F008EF2FFFED33FD4007985006D5AB
:1001B300F0F222C398FD0FD5F0EA22C5F0F8A3E0D0
:1001C30028F0C5F0F8E582158270021583E038F057
:1001D30022A3F8E0C5F025F0F0E582158270021540
:1001E30083E0C838F0E822BB0110E58229F582E5F7
:1001F300833AF583E0F5F0A3E0225009E92582F87C
:1002030086F008E622BBFE0AE92582F8E2F5F0084B
:10021300E222E5832AF583E993F5F0A3E99322EF3C
:100223002BFFEE3AFEED39FDEC38FC22E88FF0A40B
:10023300CC8BF0A42CFCE98EF0A42CFC8AF0EDA46A
:100243002CFCEA8EF0A4CDA8F08BF0A42DCC38259D
:10025300F0FDE98FF0A42CCD35F0FCEB8EF0A4FE7D
:10026300A9F0EB8FF0A4CFC5F02ECD39FEE43CFC12
:10027300EAA42DCE35F0FDE43CFC2275F00875822E
:1002830000EF2FFFEE33FECD33CDCC33CCC582331D
:10029300C5829BED9AEC99E58298400CF582EE9B22
:1002A300FEED9AFDEC99FC0FD5F0D6E4CEFBE4CD40
:1002B300FAE4CCF9A88222B800C1B90059BA002DDA
:1002C300EC8BF084CFCECDFCE5F0CBF97818EF2F93
:1002D300FFEE33FEED33FDEC33FCEB33FB10D703C2
:1002E300994004EB99FB0FD8E5E4F9FA227818EF6B
:1002F3002FFFEE33FEED33FDEC33FCC933C910D7CA
:10030300059BE99A4007EC9BFCE99AF90FD8E0E4D6
:10031300C9FAE4CCFB2275F010EF2FFFEE33FEEDAC
:1003230033FDCC33CCC833C810D7079BEC9AE8997C
:10033300400AED9BFDEC9AFCE899F80FD5F0DAE45E
:10034300CDFBE4CCFAE4C8F922EB9FF5F0EA9E4238
:10035300F0E99D42F0E89C45F022E0FCA3E0FDA318
:10036300E0FEA3E0FF22E0F8A3E0F9A3E0FAA3E0B4
:10037300FB22ECF0A3EDF0A3EEF0A3EFF022A882B2
:100383008583F0D083D082120398120398120398C6
:10039300120398E473E493A3C583C5F0C583C8C56A
:1003A30082C8F0A3C583C5F0C583C8C582C822A48B
:1003B3002582F582E5F03583F58322E0FBA3E0FA9D
:1003C300A3E0F922F8E0FBA3A3E0F925F0F0E5822E
:1003D300158270021583E0FA38F022EBF0A3EAF0FD
:1003E300A3E9F022E3F5F009E208B5F06BDFF5804D
:1003F30067E3F5F009E608B5F05EDFF5805A87F0AC
:1004030009E608B5F052DFF6804E87F009E208B539
:10041300F046DFF6804288828C8387F009E0A3B53B
:10042300F036DFF6803288828C8387F009E493A369
:10043300B5F025DFF5802188828C83E3F5F009E0B0
:10044300A3B5F014DFF5801088828C83E3F5F009FF
:10045300E493A3B5F002DFF4020516808780E980F8
:100463009080D4803E8015806E807E809D80B78092
:100473008D80A380518074803C02052289828A8307
:10048300ECFAE493F5F0A3C8C582C8CCC583CCE4E9
:1004930093A3C8C582C8CCC583CCB5F076DFE3DEB1
:1004A300E1807089828A83E493F5F0A3E208B5F0D2
:1004B30062DFF4805E89828A83E0F5F0A3E608B503
:1004C300F051DFF5804D89828A83E0F5F0A3E208DD
:1004D300B5F040DFF5803C89828A83E493F5F0A38D
:1004E300E608B5F02EDFF4802A8002805789828ADD
:1004F30083ECFAE493F5F0A3C8C582C8CCC583CCDA
:10050300E0A3C8C582C8CCC583CCB5F006DFE4DE62
:10051300E280007FFFB5F0020F2240027F012289B3
:10052300828A83ECFAE0F5F0A3C8C582C8CCC58300
:10053300CCE0A3C8C582C8CCC583CCB5F0D5DFE574
:10054300DEE380CF89828A83ECFAE0F5F0A3C8C5A5
:1005530082C8CCC583CCE493A3C8C582C8CCC58369
:10056300CCB5F0AFDFE4DEE280A988F0EF60010EE6
:100573004E60ABED2402B404005098F582EB2402E4
:10058300B40400508E232345822390045E73EF4E00
:100593006012EF60010EEDBB010B89828A83F0A329
:1005A300DFFCDEFA2289F05007F709DFFCA9F0220D
:1005B300BBFEFCF309DFFCA9F022BB010CE5822999
:1005C300F582E5833AF583E0225006E92582F8E6D1
:1005D30022BBFE06E92582F8E222E58229F582E5BF
:1005E300833AF583E49322D083D082F8E4937012A4
:1005F300740193700DA3A393F8740193F582888318
:10060300E4737402936860EFA3A3A380DFE5082477
:100613009EF582E43401F583E005082290019B30C6
:10062300070390019EE475F0011203C702012C2019
:1006330000E97F2ED2008018EF540F2490D4344069
:10064300D4FF30040BEF24BFB41A0050032461FF1E
:10065300E50960021509050CE50C7002050B30076E
:100663000E90019BE475F0011203C7EF02014502EE
:10067300149A7403D2078003E4C207F50890019B20
:100683001203DEE4F509F50BF50CE50960077F209D
:1006930012065380F5750AFFC201C200C202C203EB
:1006A300C205C206C20812061FFF700D3007057F80
:1006B30000120664AF0CAE0B22B4255FC2D5C20490
:1006C30012061FFF24D0B40A00501A75F00A7809E5
:1006D30030D50508B6FF0106C6A426F620D504705A
:1006E30002D20380D924CFB41A00EF5004C2E5D25A
:1006F30004020865D20180C6D20080C0D20280BC49
:10070300D2D580BAD20580B47F20120653200207C7
:100713007401B5090040F1120610FF1206530206D8
:100723008DD208D2068095120610FB120610FA121B
:100733000610F94A4B700679367A097BFF20022EA0
:10074300E509602A7E008E827583001205BD60066E
:100753000EEE650A70F0C2D5EBC0E0EAC0E0E9C076
:10076300E0EE1208ACD0E0F9D0E0FAD0E0FB1201E1
:100773002CFF60AAEBC0E0EAC0E0E9C0E012065338
:10078300D0E02401F9D0E03400FAD0E0FBE50A041C
:1007930060DCD50AD980877BFF7A0879A8D20280EA
:1007A3009C791080027908C206C2088008D2D579E4
:1007B3000A8004790AC2D5E50A047002F50AE4FA4C
:1007C300FDFEFF120610FC7B08200113120610FD2C
:1007D3007B1030000A120610FE120610FF7B20EC7D
:1007E3003382D592D55013C3E43000069FFFE49EB5
:1007F300FEE42001039DFDE49CFCE4CBF8C201EC84
:10080300700CCFCECDCCE824F8F870F38017C3EF8B
:1008130033FFEE33FEED33FDEC33FCEB33FB99405A
:1008230002FB0FD8E9EB300105F8D0E0C448B20170
:10083300C0E00AEC4D4E4F78207B0070C2EAB50A47
:100843000040BCC0E01208AED0F0D0E0200104C4E8
:10085300C0E0C4B201C0F012063CD0F0D5F0EB0208
:10086300068D1205EA072A5307A45806FB4C06F720
:100873004207A84F07B04407B04907104307B655CE
:10088300079A46079A45079A4709565006FF2D07C8
:10089300032E07262B070723072420093F2A06BF19
:1008A300480000071E3F3F3F00790AA2D5200314EA
:1008B300300509B910020404B9080104A2D52006C1
:1008C300025001042002689202B509005034C0E0CE
:1008D3007F203003197F30A20272067205500F1277
:1008E3000905C202C206C205C2087F30800F300567
:1008F30003E9C0E0120653300503D0E0F9D0E0B5B8
:1009030009CC3005177F30B9100C1206537F5830CD
:1009130004077F788003B908031206533002057F6A
:100923002D0206537F202008F87F2B2006F3229206
:100933000280CF286E756C6C2900D201120610302C
:1009430001F8C201780930D50108F60206BF2D501F
:100953004349581206102403B405004001E49009EA
:100963005193120644743A120644D20375090402E1
:1009730007A4410227004E021900000000000000F6
:100983000000000000000050020900000000000009
:10099300000000000000000000004A00D23F065B98
:1009A3004F666D7D077F6F603A00360104010301D6
:1009B3000201010100020F020E020D020C020B02E2
:1009C3000A020902080207020602050204020302E0
:1009D3000202010200030F030E030D030C000F03B9
:1009E3000B030A03094E008C0500050105020503EC
:1009F3000504050505064E001E0400040104020457
:100A0300030404040504064E007007080709070AD7
:100A1300070B070C070D070E4E007E0701070207A1
:100A23000307040705070607074E00B6060806096D
:100A3300060A060B060C060D060E4E00C40601063A
:100A43000206030604060506060607604600DC05E3
:100A53000F0400040104020403040404050507054C
:100A6300080509050A050B050C050D05000501051B
:100A73000205030504050505060609060A060B0615
:100A83000C060D060E060F060206030604060506EF
:100A930006060706084E009A03030304030503062C
:100AA3000307030803094E00A8040C040D040E04F5
:100AB3000F0300030103024A002C020B020C020F76
:100AC300010001034A0122020A020D020E01010183
:100AD3000241000000410001004200020000410009
:100AE30004004200050000410007004100080042E5
:100AF3000009000041000B0041000C0041000D0003
:100B030042000E00004200100000420012000042AA
:100B130000140000420016000041001800420019B2
:100B2300000042001B000041001D00410233004849
:100B330002290000000000000000410228004102D9
:100B430034004201F40000C109C10A4101E9004235
:100B5300023100005401D500000000000000000035
:100B630000000000000000000000004101C400423A
:100B730001C500004701C700000000000000470155
:100B8300CE0000000000000000E0FCA3E0FDEF2524
:100B9300E02471F582E43400F583E0FF7E00740104
:100BA300A8070822900000E0FF25E02470F582E406
:100BB3003400F583E025E02409F582E43402F5836B
:100BC30022E0FCA3E0FDEF25E022EEF0A3EFF0909E
:100BD3000000E0FF25E02422F582E43401F583E000
:100BE30025E02419F582E43402F58322F4FFEEF4C0
:100BF3005CFEED5F22E475F0010201BEFFEC4EFEE8
:100C0300ED4F22F074D22DF582E43400F583E02217
:100C1300900000E0FF25E0247EF582E4340022907A
:100C23000000E0FF25E024B6F582E43400229000C2
:100C330000E0FF25E024C4F582E4340022E075F0EF
:100C43000A84ADF0E4FF22E0FCA3E0FDEF75F00EB3
:100C5300A424DDF582E43400F58322E47B0AFAF967
:100C6300F890000012035D1202BAAF03AD0722EE43
:100C7300F0A3EFF090000022EEF0A3EFF09000005D
:100C830022900000E0FF75F00EA424DCF582E4342A
:100C930000F58322E075F00A84FD7F0122247FF5AD
:100CA30082E434002224B7F582E434002224C5F51B
:100CB30082E4340022900000E0FF25E0229000004F
:100CC300E0FEA3E0FF7C007D0A020169900000E0E2
:100CD300FF25E0248CF582E434002275F002020340
:100CE300B2E0FF25E0241EF582E4340022E04480D4
:100CF300F0A3E0F022E0FF25E0242CF582E43400A9
:100D03002225E02436F582E4340022E004F0E06496
:100D13000722E4900194F0A3F0A3120381000000E2
:100D230000E490019AF090FC04747FF09001A0120B
:100D33000F16E4FFFE12125C120F399001A0120F7E
:100D43001C7F807E0012125C120EF4F09001CE1212
:100D5300035D900195E02FF09001D3E0FF900195A2
:100D6300E02FF09001D4E0FF900195E02F120F32B5
:100D73007E007F0712056DEF701F120F7C6F7019D5
:100D8300120F86B50713120F23600E7BFF7A1479B7
:100D9300E012067B120F51F0227BFF7A1479F512D1
:100DA300067B120F7CB5070E120F2360099001C753
:100DB300120F6F7401F0120F86B507239001CE1244
:100DC3000F26601B90019612035D9001CE120369FA
:100DD300D312034C40099001CE120F6F7402F090AE
:100DE300019AE024FE6008047019120F51803190BB
:100DF30001D4E09001D6F09001D3E09001D5120F19
:100E0300328020E49001D6F09001D504F0A3120FB4
:100E13004012038100000001E4900194F0120EF4EB
:100E2300120F617E007F071201061214A82290019F
:100E3300941203DEC374089D9001A2F090019BE01D
:100E4300FFC374089F9001A3F0C286C287E4900198
:100E53009CF0E490019EF0A3F09001A0F0A3F012A7
:100E630011FFC39F40121211FF9001941211E690DB
:100E7300019EE5F0F0A3EFF09001A3121202C39FCD
:100E830040159001A31212029001981211E69001ED
:100E9300A0E5F0F0A3EFF0E490019DF090019EE057
:100EA300C330E701D392859001A0E0C330E701D3BB
:100EB30092B4D28690019FE025E0F090019EE0334A
:100EC300F09001A1E025E0F09001A0E033F0C286AC
:100ED30090019DE004F0E0B410C290019CE004F0A6
:100EE300E064086003020E55D287C287C285C2B48C
:100EF300229001C712035D900194E02FF09001CC82
:100F0300E0FF900194E02FF09001CDE0FF90019479
:100F1300E02F227B017A0179C7E4F0A37407F02262
:100F23009001C7E4FFFEFDFC120369C302034CF00A
:100F330078C77C017D017B017A0179CE22E09001A3
:100F4300CDF09001D5E09001CCF09001C722900143
:100F5300CDE09001D6F09001CCE09001D522F0785D
:100F6300CE7C017D017B017A0179C72212035D905A
:100F7300019612037590019A229001CBE0FF900134
:100F830094E0229001D2E0FF900195E02278FFE403
:100F9300F6D8FD9000007F007E08E4F0A3DFFCDEBE
:100FA300FA758121020FE5021096E493A3F8E49306
:100FB300A34003F68001F208DFF48029E493A3F849
:100FC3005407240CC8C333C4540F4420C8834004BB
:100FD300F456800146F6DFE4800B0102040810207A
:100FE3004080900975E47E019360BCA3FF543F30B9
:100FF300E509541FFEE493A360010ECF54C025E01E
:1010030060A840B8E493A3FAE493A3F8E493A3C8D5
:10101300C582C8CAC583CAF0A3C8C582C8CAC58366
:10102300CADFE9DEE780BEE4FB9001C712035DEF90
:101033002401FFE43EFEE43DFDE43CFC9001C712C5
:1010430003759001D6120F4012035DEB2FFB900145
:10105300CCE02BFBA3E02B9001CB120F617E007F32
:1010630007120106E4FF12138A900199120F16E486
:10107300FFFE1211A77F0112138A120F39900199F3
:10108300120F1C7F807E001211A77BFF7A1579094E
:1010930002067BE4900193F0121403D2AF12000313
:1010A30012131812001E12144A1214CC1212221216
:1010B30014D7120D157BFF7A15791F12067B75AABB
:1010C300A5900234E0600BE4F07BFF7A15792912D6
:1010D300067B12002F1213EA1213AD80E112145B88
:1010E300900230E064016009E064026004E0B4034C
:1010F3002CC390022AE094FF900229E094FF50074A
:10110300E475F0011201BEC390022EE094FF900239
:101113002DE094FF500BE475F0010201BEE41200D0
:101123000E22C0E0C0F0C083C082C0D075D000C022
:1011330000C001C002C003C004C005C006C00775DB
:101143008CF8758ACD12141BD007D006D005D004B5
:10115300D003D002D001D000D0D0D082D083D0F041
:10116300D0E032C0E0C0F0C083C082C0D075D000F0
:10117300C000C001C002C003C004C005C006C00750
:10118300758DFF758BA41214DDD007D006D005D062
:1011930004D003D002D001D000D0D0D082D083D0ED
:1011A300F0D0E0329001961203DEAD07AC061212C6
:1011B300E61212CB7402F0E4FFFED390019AE09F93
:1011C300900199E09E4018900196E475F001120396
:1011D300C712012C90FC02F00FBF00010E80DB123E
:1011E30012DA229FFFE49400FEEF25E0FFEE33FEC8
:1011F3001203BE8F828E831201EAFF229001A2E0C6
:10120300FF90019CE0227B017A02790990019812F8
:1012130003DE90019B227E007D007B010205917F0E
:101223000E7A0279191212197F107A0279091212B1
:10123300199080067402F0908005F090801CF09065
:101243008007F0C285C2B4C286C28712120974072E
:10125300F07A027919FD020E3190019D1203DE121C
:1012630012C57401F0E4FFFED39001A1E09F900149
:10127300A0E09E401A90FC02E0FD90019DE475F011
:10128300011203C7ED1201450FBF00010E80D912F1
:1012930012DA22C0E0C083C082C0D075D000C0077C
:1012A300E59A30E008439A01AF9B12133EE59A306A
:1012B300E105439A02C20CD007D0D0D082D083D0AC
:1012C300E032AC06E490FC01F0EC90FC06F090FCFC
:1012D30005EFF090FC0122E490FC01F090FC037414
:1012E300AAF022E490FC01F090FC03742A229000FF
:1012F3001B120BF8C390001CE094F490001BE094C5
:10130300014011E4F0A3F0A3E07F0070027F01909D
:10131300001DEFF022C20C7E007F677D007B017A07
:1013230001792C1205919080097403F090800AF0E2
:10133300F59D759CFA759AD0D2AE22900190E00487
:10134300F0E0C394644002E4F09001901214C1EF02
:10135300F0900192E004F0E0D3946440037464F0ED
:1013630022EFC39402401FEFD394085019EF24FED9
:1013730033333354F84480F5ADE5AD30E0FBE5A2FB
:1013830054F84404F5A222E490FC01F0EF75F080D8
:10139300A4FDACF090FC03742AF0EC90FC06F0AFD3
:1013A300051212D174031212DE229001C4E0601BF5
:1013B300C39001C6E094D09001C5E09407400CE4CB
:1013C3009001C4F0A3F0A3F012102A22900227E0A8
:1013D300C394194011E4F01212097408F07A0279E7
:1013E300197D07120E31222094047F018002E4FF4D
:1013F30012147B2095047F018002E4FF12146B22F8
:1014030075EFE17F0612136443A18075A941E4F5EA
:10141300AC75AB4B75AAA522900233E0C394FF5081
:1014230003E004F01214331210E012148B0212F1D1
:10143300C3900232E094FF900231E094FF5007E43E
:1014430075F0011201BE225389CF438910758DFFB8
:10145300758BA4D28ED2AB22900227E0C394FFE413
:1014630094FF5003E004F022EF90021E6005E04475
:1014730002F022E054FDF022EF90021E6005E044EA
:1014830001F022E054FEF0229001C4E06008A3E4DE
:1014930075F0011201BE229001C3EFF01214B59052
:1014A30001C3E0FF22E49001C5F0A3F09001C4045E
:1014B300F022200CFDC2AE8F9BD20CD2AE22E024D0
:1014C3002CF582E43401F5832290800C7401F090B2
:1014D300800DF022E4900230F022B2B522726561F1
:1014E3006420736176652064617461207061737335
:1014F3000A007265616420736176652064617461BA
:10150300206572720A00696E737472756D656E740C
:101513005F696E666F5F736176650A007379732026
:0C152300696E69740A00746573740A0034
:00000001FF
