:0A00000002192990801D7402F022FD
:10000B00021C7C900318F0A3F090031CF0A3F022C9
:10001B00021CBDEF9002ED6008E04440F0A3E0F05D
:06002B0022E054BFF022A8
:10003300021E65E709F608DFFA8046E709F208DFE2
:10004300FA803E88828C83E709F0A3DFFA8032E3EB
:1000530009F608DFFA8078E309F208DFFA8070888E
:10006300828C83E309F0A3DFFA806489828A83E0C8
:10007300A3F608DFFA805889828A83E0A3F208DFB7
:10008300FA804C80D280FA80C680D4806980F28066
:1000930033801080A680EA809A80A880DA80E2808C
:1000A300CA803389828A83ECFAE493A3C8C582C8E1
:1000B300CCC583CCF0A3C8C582C8CCC583CCDFE94B
:1000C300DEE7800D89828A83E493A3F608DFF9ECE7
:1000D300FAA9F0EDFB2289828A83ECFAE0A3C8C572
:1000E30082C8CCC583CCF0A3C8C582C8CCC583CC99
:1000F300DFEADEE880DB89828A83E493A3F208DF08
:10010300F980CC88F0EF60010E4E60C388F0ED24D7
:1001130002B4040050B9F582EB2402B4040050AFDA
:10012300232345822390008673BB010689828A8339
:10013300E0225002E722BBFE02E32289828A83E4A3
:100143009322BB010CE58229F582E5833AF583E02E
:10015300225006E92582F8E622BBFE06E92582F84D
:10016300E222E58229F582E5833AF583E49322BB13
:10017300010689828A83F0225002F722BBFE01F333
:1001830022EF8DF0A4A8F0CF8CF0A428CE8DF0A49C
:100193002EFE22BC000BBE0029EF8DF084FFADF0D4
:1001A30022E4CCF875F008EF2FFFEE33FEEC33FCBE
:1001B300EE9DEC984005FCEE9DFE0FD5F0E9E4CEF4
:1001C300FD22EDF8F5F0EE8420D21CFEADF075F0C3
:1001D30008EF2FFFED33FD4007985006D5F0F222CC
:1001E300C398FD0FD5F0EA22C5F0F8A3E028F0C5C7
:1001F300F0F8E582158270021583E038F022A3F847
:10020300E0C5F025F0F0E582158270021583E0C8A1
:1002130038F0E822BB0110E58229F582E5833AF53F
:1002230083E0F5F0A3E0225009E92582F886F0087F
:10023300E622BBFE0AE92582F8E2F5F008E222E5B0
:10024300832AF583E993F5F0A3E99322EF2BFFEEDD
:100253003AFEED39FDEC38FC22C3EF9BFFEE9AFE2C
:10026300ED99FDEC98FC22E88FF0A4CC8BF0A42C44
:10027300FCE98EF0A42CFC8AF0EDA42CFCEA8EF0B1
:10028300A4CDA8F08BF0A42DCC3825F0FDE98FF098
:10029300A42CCD35F0FCEB8EF0A4FEA9F0EB8FF08F
:1002A300A4CFC5F02ECD39FEE43CFCEAA42DCE3517
:1002B300F0FDE43CFC2275F008758200EF2FFFEEA1
:1002C30033FECD33CDCC33CCC58233C5829BED9A7F
:1002D300EC99E58298400CF582EE9BFEED9AFDECDD
:1002E30099FC0FD5F0D6E4CEFBE4CDFAE4CCF9A823
:1002F3008222B800C1B90059BA002DEC8BF084CF2B
:10030300CECDFCE5F0CBF97818EF2FFFEE33FEED01
:1003130033FDEC33FCEB33FB10D703994004EB992B
:10032300FB0FD8E5E4F9FA227818EF2FFFEE33FE3E
:10033300ED33FDEC33FCC933C910D7059BE99A4073
:1003430007EC9BFCE99AF90FD8E0E4C9FAE4CCFB8B
:100353002275F010EF2FFFEE33FEED33FDCC33CCDF
:10036300C833C810D7079BEC9AE899400AED9BFD68
:10037300EC9AFCE899F80FD5F0DAE4CDFBE4CCFA7B
:10038300E4C8F922EF4BFFEE4AFEED49FDEC48FCD1
:1003930022EB9FF5F0EA9E42F0E99D42F0E89C458E
:1003A300F022E8600FEFC333FFEE33FEED33FDECD5
:1003B30033FCD8F122E0FCA3E0FDA3E0FEA3E0FFC1
:1003C30022E0F8A3E0F9A3E0FAA3E0FB22ECF0A318
:1003D300EDF0A3EEF0A3EFF022A8828583F0D083A3
:1003E300D0821203F31203F31203F31203F3E47341
:1003F300E493A3C583C5F0C583C8C582C8F0A3C56C
:1004030083C5F0C583C8C582C822A42582F582E5C9
:10041300F03583F58322E0FBA3E0FAA3E0F922F8A9
:10042300E0FBA3A3E0F925F0F0E582158270021545
:1004330083E0FA38F022EBF0A3EAF0A3E9F022D04C
:1004430083D082F8E4937012740193700DA3A39385
:10045300F8740193F5828883E4737402936860EF00
:10046300A3A3A380DFEC8EF0A4CCC5F0CCCDF8EF32
:10047300A4CEC5F02DFDE43CFCE8A42EC8C5F03D98
:10048300FDE43CFCEFA4FFE5F028FEE43DFDE43C85
:10049300FC22E3F5F009E208B5F06BDFF58067E3D2
:1004A300F5F009E608B5F05EDFF5805A87F009E656
:1004B30008B5F052DFF6804E87F009E208B5F04642
:1004C300DFF6804288828C8387F009E0A3B5F0369B
:1004D300DFF6803288828C8387F009E493A3B5F03A
:1004E30025DFF5802188828C83E3F5F009E0A3B54D
:1004F300F014DFF5801088828C83E3F5F009E49330
:10050300A3B5F002DFF40205C4808780E980908000
:10051300D4803E8015806E807E809D80B7808D80E4
:10052300A380518074803C0205D089828A83ECFACF
:10053300E493F5F0A3C8C582C8CCC583CCE493A3E8
:10054300C8C582C8CCC583CCB5F076DFE3DEE180D5
:100553007089828A83E493F5F0A3E208B5F062DF41
:10056300F4805E89828A83E0F5F0A3E608B5F05152
:10057300DFF5804D89828A83E0F5F0A3E208B5F0C8
:1005830040DFF5803C89828A83E493F5F0A3E60893
:10059300B5F02EDFF4802A8002805789828A83ECAB
:1005A300FAE493F5F0A3C8C582C8CCC583CCE0A315
:1005B300C8C582C8CCC583CCB5F006DFE4DEE280D3
:1005C300007FFFB5F0020F2240027F012289828A59
:1005D30083ECFAE0F5F0A3C8C582C8CCC583CCE0B0
:1005E300A3C8C582C8CCC583CCB5F0D5DFE5DEE3AF
:1005F30080CF89828A83ECFAE0F5F0A3C8C582C86C
:10060300CCC583CCE493A3C8C582C8CCC583CCB581
:10061300F0AFDFE4DEE280A988F0EF60010E4E6008
:10062300ABED2402B404005098F582EB2402B40429
:1006330000508E232345822390050C73EF4E6012E6
:10064300EF60010EEDBB010B89828A83F0A3DFFC0F
:10065300DEFA2289F05007F709DFFCA9F022BBFE7E
:10066300FCF309DFFCA9F022E508248DF582E434CC
:1006730002F583E005082290028A30070390028D79
:10068300E475F00112042202012C2000E97F2ED22E
:10069300008018EF540F2490D43440D4FF30040B5F
:1006A300EF24BFB41A0050032461FFE5096002156B
:1006B30009050CE50C7002050B30070E90028AE465
:1006C30075F001120422EF0201720222847403D234
:1006D300078003E4C207F50890028A120439E4F59F
:1006E30009F50BF50CE50960077F201206AE80F5CE
:1006F300750AFFC201C200C202C203C205C206C21A
:100703000812067AFF700D3007057F001206BFAF8F
:100713000CAE0B22B4255FC2D5C20412067AFF24A5
:10072300D0B40A00501A75F00A780930D50508B616
:10073300FF0106C6A426F620D5047002D20380D991
:1007430024CFB41A00EF5004C2E5D2040208C0D289
:100753000180C6D20080C0D20280BCD2D580BAD27A
:100763000580B47F201206AE2002077401B509008C
:1007730040F112066BFF1206AE0206E8D208D2065B
:10078300809512066BFB12066BFA12066BF94A4B45
:10079300700679917A097BFF20022EE509602A7E93
:1007A300008E8275830012014560060EEE650A70A5
:1007B300F0C2D5EBC0E0EAC0E0E9C0E0EE12090701
:1007C300D0E0F9D0E0FAD0E0FB12012CFF60AAEBF5
:1007D300C0E0EAC0E0E9C0E01206AED0E02401F9CF
:1007E300D0E03400FAD0E0FBE50A0460DCD50AD996
:1007F30080877BFF7A097903D202809C791080027B
:100803007908C206C2088008D2D5790A8004790A19
:10081300C2D5E50A047002F50AE4FAFDFEFF1206EA
:100823006BFC7B0820011312066BFD7B1030000A62
:1008330012066BFE12066BFF7B20EC3382D592D53A
:100843005013C3E43000069FFFE49EFEE42001033F
:100853009DFDE49CFCE4CBF8C201EC700CCFCECD43
:10086300CCE824F8F870F38017C3EF33FFEE33FEC0
:10087300ED33FDEC33FCEB33FB994002FB0FD8E97E
:10088300EB300105F8D0E0C448B201C0E00AEC4DFA
:100893004E4F78207B0070C2EAB50A0040BCC0E02E
:1008A300120909D0F0D0E0200104C4C0E0C4B201B1
:1008B300C0F0120697D0F0D5F0EB0206E81204421E
:1008C30007855307FF5807564C07524208034F0842
:1008D3000B44080B49076B4308115507F54607F509
:1008E3004507F54709B150075A2D075E2E07812B9F
:1008F300076223077F20099A2A071A48000007790D
:100903003F3F3F00790AA2D5200314300509B910EF
:10091300020404B9080104A2D520060250010420F0
:1009230002689202B509005034C0E07F20300319F9
:100933007F30A20272067205500F120960C202C212
:1009430006C205C2087F30800F300503E9C0E012FC
:1009530006AE300503D0E0F9D0E0B509CC30051779
:100963007F30B9100C1206AE7F583004077F7880B1
:1009730003B908031206AE3002057F2D0206AE7FCF
:10098300202008F87F2B2006F322920280CF286EC6
:10099300756C6C2900D20112066B3001F8C2017824
:1009A3000930D50108F602071A2D5043495812069B
:1009B3006B2403B405004001E49009AC9312069F35
:1009C300743A12069FD2037509040207FF4102F12C
:1009D300004E02E3000000000000000000000000E1
:1009E30000005002D30000000000000000000000DF
:1009F30000000000004A00D23F065B4F666D7D0792
:100A03007F6F603A00360104010301020101010016
:100A1300020F020E020D020C020B020A0209020867
:100A23000207020602050204020302020201020097
:100A3300030F030E030D030C000F030B030A03093B
:100A43004E008C0500050105020503050405050597
:100A5300064E001E040004010402040304040405FA
:100A630004064E007007080709070A070B070C075F
:100A73000D070E4E007E0701070207030704070553
:100A8300070607074E00B606080609060A060B0600
:100A93000C060D060E4E00C40601060206030604EC
:100AA300060506060607604600DC050F0400040180
:100AB3000402040304040405050705080509050ADF
:100AC300050B050C050D05000501050205030504CD
:100AD300050505060609060A060B060C060D060E95
:100AE300060F0602060306040605060606070608A1
:100AF3004E009A03030304030503060307030803D5
:100B0300094E00A8040C040D040E040F0300030196
:100B130003024A002C020B020C020F010001034ADC
:100B23000122020A020D020E01010102410000002E
:100B330041000100420002000041000400420005A0
:100B43000000410007004100080042000900004185
:100B5300000B0041000C0041000D0042000E00009C
:100B63004200100000420012000042001400004244
:100B73000016000041001800420019000042001B4B
:100B8300000041001D00410322004803180000003B
:100B93000000000000410317004202BE0000C1092B
:100BA300C10A4102B3004203200000602202600038
:100BB3000000000000000000000000000000000032
:100BC3000000000000000000000000000000000022
:100BD3000041024F00420250000047025200000051
:100BE30000000000470259000000000000005B0203
:100BF300F200000000000000000000000000000000
:100C03000000000000000000000000004A030D0087
:100C130000000000000000000041024D0060500190
:100C2300FD000000000000000000000000000000C4
:100C330000000000000000000000000000000000B1
:100C430000000000000000000000000000000000A1
:100C53000000000000000000000000000000000091
:100C63000000000000000000000000000000000081
:100C73000041024E004101FA000090030AE06003C4
:100C8300121B061222B6EF7003020E3012202690BA
:100C9300030A7401F0E4A3F0A3F01217D7EF601E68
:100CA300900309E060157BFF7A2379581206D67BFF
:100CB300FF7A237970121BBB1206D612218690038A
:100CC30009E064046003020E309002F4E01204426F
:100CD3000D07010D12030D1A040D2D050D39060D17
:100CE30047070D8B080DD5090DDF0A0DE90B0DF331
:100CF3000C0DFD0D0E070E0E11100E1B110E2512FD
:100D030000000E2D9002F5E0900273F0020E2D12FA
:100D13001BDC90027480259002F5E0900276F0903F
:100D230002F6E0900277F0020E2D121BDCE4FCFDCC
:100D330090026A020DD0121BDC90026EEEF0A3EF5C
:100D4300F0020E2D121BABC004C005C006C00790F5
:100D530002F57818121BB0D003D002D001D00012D4
:100D63000387C004C005C006C0079002F7121BD555
:100D730078081203A5D003D002D001D000121BC9FA
:100D83001203879002628045121BABC004C005C0EA
:100D930006C0079002F5121BD578181203A5D003DD
:100DA300D002D001D000120387C004C005C006C022
:100DB300079002F7121BD578081203A5D003D002BF
:100DC300D001D000121BC91203879002661203D010
:100DD30080589002F5E0900278F0804E9002F5E0A2
:100DE300900279F080449002F5E090027AF0803A24
:100DF3009002F5E090027BF080309002F5E09002E3
:100E03007CF080269002F5E090027DF0801C900239
:100E1300F5E090027EF080129002F5E0900272F00D
:100E230080089002F5E090027FF012218622900361
:100E33001FE0600BE064016006E49001FAF0229089
:100E430001FAE0704404F090026EE0FFA3E0900228
:100E530070CFF0A3EFF0121AE5F0A3EFF090027059
:100E6300E0FEA3E0FF121DB5121ADC12219C9002D2
:100E730061E0700BFF1221B27F01122005800AE4AA
:100E8300FF1220057F011221B290024DE0C3944B63
:100E93005003020FCFE4F090026E121AB1404412D5
:100EA3001ADC900271E0900270121AC25003020F12
:100EB3003FEF9432EE940040089002857414F08062
:100EC3000D121AF14005740AF080037405F09002C4
:100ED30085E0FFC3900271E09FF0900270E0940000
:100EE300F0804990026EE0FEA3C3121AB5504DE0A4
:100EF300FEA3E0FFC390026FE090026E121AC2409D
:100F03003BEF9432EE940040089002857414F08015
:100F13000D121AF14005740AF080037405F0900273
:100F230085E0FF900270E48FF01201EB121ADC12DD
:100F3300219C121AE5F0A3EFF0020FC4121ADC127F
:100F430020F412157C900283EEF0A3EFF0C390021D
:100F530084E0940A900283E094005005121AE8801A
:100F63002A9001FB7D03121AFCC004A905AA06AB53
:100F7300079002837D07121AFCD00012024FE47B14
:100F83000AFAF9F81202F59001FBEEF0A3EFF090E4
:100F930001FBE0FFA3E0900283CFF0A3EFF0900208
:100FA30083121AB1400674FFF5F08012900283E0B9
:100FB300FEA3E0FFC3121AB75007E475F001120154
:100FC300EB900270E0FEA3E0FF121DB522E0FCA34C
:100FD300E0FDEF25E02471F582E43400F583E0FFC2
:100FE3007E007401A8070822900000E0FF25E0249A
:100FF30070F582E43400F583E025E024D3F582E440
:101003003402F58322E0FCA3E0FDEF25E022EEF0BD
:10101300A3EFF0900000E0FF25E02422F582E43402
:1010230001F583E025E024E3F582E43402F583222D
:10103300F4FFEEF45CFEED5F22E475F0010201EBD8
:10104300FFEC4EFEED4F22F074D22DF582E4340016
:10105300F583E022900000E0FF25E0247EF582E4A2
:10106300340022900000E0FF25E024B6F582E4344A
:101073000022900000E0FF25E024C4F582E4340060
:1010830022E075F00A84ADF0E4FF22E0FCA3E0FD6A
:10109300EF75F00EA424DDF582E43400F58322E439
:1010A3007B0AFAF9F89002891203B81202F5AF032A
:1010B300AD0722EEF0A3EFF090000022EEF0A3EFD5
:1010C300F090000022900294E0FF75F00EA424DC5F
:1010D300F582E43400F58322E075F00A84FD7F0194
:1010E30022247FF582E434002224B7F582E434001D
:1010F3002224C5F582E434002290028FE0FF25E02C
:101103002290028AE0FEA3E0FF7C007D0A020196A2
:10111300900000E0FF25E0248CF582E43400227582
:10112300F00202040DE0FF25E0241EF582E4340002
:1011330022E04480F0A3E0F022E0FF25E0242CF538
:1011430082E434002225E02436F582E4340022E0F0
:1011530004F0E064072290028EEBF090028DEF1210
:10116300104A900290F0EF14600D14700302127293
:1011730024026003021295E490028FF090028FE044
:10118300FFC39407400302129590028EE060711230
:101193000FE38005C333CE33CED8F9FF900290E03E
:1011A300FDEF5D605B90028DE070291210FC249AC4
:1011B300F582E43400121024C083C0821210082484
:1011C3009BF582E43400120FDF8005C333CE33CEA8
:1011D300D8F980271210FC24A8F582E434001210F9
:1011E30024C083C08212100824A9F582E4340012BB
:1011F3000FDF8005C333CE33CED8F9121043805CA2
:1012030090028DE0702C1210FC249AF582E43400D5
:10121300121024C083C082121008249BF582E43488
:1012230000120FDF8005C333CE33CED8F91210334B
:10123300802A1210FC24A8F582E43400121024C082
:1012430083C08212100824A9F582E43400120FDF50
:101253008005C333CE33CED8F9121033FFD082D0FA
:1012630083EEF0A3EFF090028FE004F002117F9081
:10127300028EE09002EB6012E04404F0A3E0F090F1
:1012830002EBE04408F0A3E0F022E054FBF0E0546A
:10129300F7F022E4900283F0A3F0A31203DC000032
:1012A3000000E4900289F090FC04747FF090028FB8
:1012B3001218AFE4FFFE121E2B1218D290028F12E7
:1012C30018B57F807E00121E2B12188DF0900259E4
:1012D3001203B8900284E02FF090025EE0FF9002C8
:1012E30084E02FF090025FE0FF900284E02F121859
:1012F300CB7E007F0712061BEF70211219156F704A
:101303001B12191FB507151218BC60107BFF7A2337
:1013130079901206D61218EAF00213B37BFF7A23F0
:1013230079A51206D6121915B5070E1218BC600955
:101333009002521219087401F012191FB507239075
:1013430002591218BF601B9002851203B89002590C
:101353001203C4D31203944009900259121908745A
:1013630002F0900289E024FE60080470191218EA62
:10137300803190025FE0900261F090025EE09002A3
:10138300601218CB8020E4900261F090026004F0B8
:10139300A31218D91203DC00000001E4900283F0C9
:1013A30012188D1218FA7E007F071201061222927C
:1013B30090027374FFF02290027FE0F47003021432
:1013C3009BE014606904600302149590031FE070AE
:1013D30015900260E07F0070027F01900260EFF0E1
:1013E30012229202149290031FE0B401139002613F
:1013F300E0700504F0021492E4900261F00214928A
:1014030090031FE0B40210900277E004F0E0D3945D
:101413003B4019E4F0807890031FE0B4030E900280
:1014230076E004F0E0D394174002E4F08061900387
:101433001FE07025900260E0B401047F01804D90AD
:1014430002661203DC00000000122292121D799042
:101453000261E0FF1220BE803690031FE0B4010456
:101463007F02802890031FE0B4020EE4900283F011
:1014730012149C40FB7F03801390031FE0B4030FFF
:10148300E4900283F012149C40FBE4FF1222AB129F
:10149300210F90027F74FFF0227F04121B5F9002E2
:1014A30083E004F0E0C39403229002891203D0E4A2
:1014B30090028FF0A31203DC0000000090028DE085
:1014C3007022FF12001EE490028EF090028EE0FF65
:1014D300C39405400302155AC0071210A2D0071285
:1014E300155B80E79002891203B89002901203D033
:1014F30090028FE004F0A31203B8E47B0AFAF9F830
:101503001202F59002901203D0E4FFFEFDFC90025C
:10151300901203C4C312039470D67F0112001E906D
:10152300028FE0FFD3940540057405F0800AEFB401
:10153300010690028F7402F0E490028EF090028F05
:10154300E0FE90028EE0FFC39E500CC0071210A273
:10155300D00712155B80E6227B011216499002899F
:101563001203B8E47B0AFAF9F81202F59002891221
:1015730003D090028EE004F0229002891203DC0073
:10158300000000E490028DF0A3F0A3F0A374FFF039
:10159300E4900288F09002891203C4900288E0125A
:1015A3001AA5E0FEA3E0FFE4FCFD12024F900289BE
:1015B3001203D0121AA0E0FCA3E0FDC390028EE058
:1015C3009D90028DE09C5010EF121AA5E0FFA3E05E
:1015D30090028DCFF0A3EFF0121AA0E0FCA3E0FD80
:1015E300D3900290E09D90028FE09C4010EF121A7E
:1015F300A5E0FFA3E090028FCFF0A3EFF090028865
:10160300E004F0E06428708D9002891203B8C006EC
:10161300C00790028FE0FEA3E0FF90028EE02FFF51
:1016230090028DE03EAB07FAE4F9F8D007D006123A
:10163300025C9002891203D0E47B26FAF8900289B7
:101643001203B80202F5900294EFF0A3EBF0E490DA
:10165300029712104A900297F0E4900296F09002DB
:1016630096E0FFC394074003021713900295E060CE
:1016730052120FE38005C333CE33CED8F9FF900265
:1016830097E0FDEF5D603C1210C8C083C0829002FA
:1016930096E0D082D083121122121026C083C0821A
:1016A30012108EC083C082900296E0D082D0831243
:1016B3001122120FE18005C333CE33CED8F91210B5
:1016C30043803A1210C8C083C082900296E0D08251
:1016D300D083121122121026C083C08212108EC032
:1016E30083C082900296E0D082D083121122120F1F
:1016F300E18005C333CE33CED8F9121033FFD08245
:10170300D083EEF0A3EFF0900296E004F0021661AE
:1017130022900283120439C374089D900291F090C1
:10172300028AE0FFC374089F900292F0C286C287C8
:10173300E490028BF0E490028DF0A3F090028FF01E
:10174300A3F0121D56C39F4012121D56900283121E
:101753001D3D90028DE5F0F0A3EFF0900292121D73
:1017630059C39F4015900292121D59900287121D72
:101773003D90028FE5F0F0A3EFF0E490028CF0903F
:10178300028DE0C330E701D3928590028FE0C3302E
:10179300E701D392B4D28690028EE025E0F0900266
:1017A3008DE033F0900290E025E0F090028FE0337B
:1017B300F0C28690028CE004F0E0B410C290028B79
:1017C300E004F0E064086003021738D287C287C2DE
:1017D30085C2B422900283EFF0A37401F0E4FF907A
:1017E3000307E004F0900309E0146014146020146C
:1017F300602A24037063900283E064A5706E800FF7
:10180300900309E004F0900283E0900308800590C0
:101813000309E004F0E4900284F08050E490028431
:10182300F0900308E0FE900307E0C39E403EE4FE11
:10183300900308E014FDEEC39D5009121BE7E02F4F
:10184300FF0E80EC900283E06F6006A37401F080CA
:101853001B900309E004F080137BFF7A23791612AF
:1018630006D67A237932121BB91206D6900284E087
:10187300FF7016900283E0FE900306E024F2121B31
:10188300EAEEF0900306E004F0229002521203B84D
:10189300900283E02FF0900257E0FF900283E02F45
:1018A300F0900258E0FF900283E02F227B017A023E
:1018B3007952E4F0A37407F022900252E4FFFEFD94
:1018C300FC1203C4C3020394F078527C027D017BB3
:1018D300017A02795922E0900258F0900260E09078
:1018E3000257F090025222900258E0900261F09069
:1018F3000257E090026022F078597C027D017B015F
:101903007A027952221203B89002851203D0900210
:101913008922900256E0FF900283E02290025DE06C
:10192300FF900284E02278FFE4F6D8FD9000007F68
:10193300007E08E4F0A3DFFCDEFA75812102197E44
:10194300021BF2E493A3F8E493A34003F68001F2AD
:1019530008DFF48029E493A3F85407240CC8C333A5
:10196300C4540F4420C8834004F456800146F6DF74
:10197300E4800B01020408102040809009D0E47E2B
:10198300019360BCA3FF543F30E509541FFEE49369
:10199300A360010ECF54C025E060A840B8E493A330
:1019A300FAE493A3F8E493A3C8C582C8CAC583CA5B
:1019B300F0A3C8C582C8CAC583CADFE9DEE780BE13
:1019C30090028AEEF0A3EFF0E4A3F0D3EF94C7EE16
:1019D3009400400990028AE4F0A374C7F090028A4D
:1019E300E0FAA3E0FB90028CE004F07C007D0AAFF8
:1019F30003AE02120196AA06AB07EB4A70E7E4FABC
:101A030090028CE0FFEAC39FAF025019C007121186
:101A130004D0077B0112115912110490028AEEF0CF
:101A2300A3EFF08006E4FBFD1211590AEAB403D0D8
:101A330022E4FB9002521203B8EF2401FFE43EFEBE
:101A4300E43DFDE43CFC9002521203D0900261128B
:101A530018D91203B8EB2FFB900257E02BFBA3E03E
:101A63002B9002561218FA7E007F07120106E4FF3C
:101A7300121F7C9002881218AFE4FFFE121CFE7F37
:101A830001121F7C1218D29002881218B57F807E33
:101A930000121CFE7BFF7A2379B90206D6900288D6
:101AA300E0FF25E024FDF582E43401F58322E0FE26
:101AB300A3D3E0FF900271E09F900270E09E229F0B
:101AC300FFE09E900286F0A3EFF0900286E0FEA373
:101AD300E0FFC3940AEE94002290026EE0FEA3E0BE
:101AE300FF2290026EE0FFA3E09001FBCF22C3EF41
:101AF3009414EE940090028522E0FEA3E0FF7C00A4
:101B0300020468C390030CE094D090030BE09407A5
:101B130040497A2279C8121BB91206D67BFF7A2272
:101B230079FA1206D6E4900283F0900306E0FF9060
:101B33000283E0FEC39F50177BFF7A23790C121BAD
:101B4300E7121BBE1206D6900283E004F080DB7B13
:101B5300FF7A2379141206D61221862290030D747C
:101B6300A5F0EF24FC704090030E7406F0A37404F8
:101B7300F0900276E0900310F0900277E09003116A
:101B8300F090030EE0FF90030DE02FFF90030FE0B2
:101B93002FFFA3E02FFFA3E02FFEA3F07B017A0327
:101BA300790D7D0A121F59229002F67810E0FFE4A6
:101BB300FCFDFE0203A57BFF900309E0FF90028D6D
:101BC300E4F0A3EFF022120387A804A905AA06AB49
:101BD30007A3E0FFE4FCFDFE229002F5E0FEA3E094
:101BE300FDEDFF2274F22EF582E43402F58322E444
:101BF300900282F0122141D2AF120003121F0F1282
:101C030021C51221D6122275121DF11222BC121205
:101C1300967BFF7A2379CF1206D675AAA51213BA3B
:101C23001222C2120E31121F34122247120C7D12DD
:101C33001FE380E61221E790031FE064016009E0DF
:101C430064026004E0B4032CC3900319E094FF9092
:101C53000318E094FF5007E475F0011201EBC39001
:101C6300031DE094FF90031CE094FF500BE475F018
:101C7300010201EBE412000E22C0E0C0F0C083C0F9
:101C830082C0D075D000C000C001C002C003C00430
:101C9300C005C006C007758CF8758ACD1220D9D04F
:101CA30007D006D005D004D003D002D001D000D095
:101CB300D0D082D083D0F0D0E032C0E0C0F0C08377
:101CC300C082C0D075D000C000C001C002C003C034
:101CD30004C005C006C007758DFF758BA41222C50D
:101CE300D007D006D005D004D003D002D001D00055
:101CF300D0D0D082D083D0F0D0E0329002851204CD
:101D030039AD07AC06121EB5121E9A7402F0E4FF39
:101D1300FED3900289E09F900288E09E40189002D3
:101D230085E475F00112042212012C90FC02F00FDD
:101D3300BF00010E80DB121EA9229FFFE49400FE68
:101D4300EF25E0FFEE33FE1204198F828E83120219
:101D530017FF22900291E0FF90028BE0227B017A31
:101D63000279D390028712043990028A227E007D81
:101D7300007B0102063F900260E0900284F0E0FBEA
:101D8300600590026280039002661203B890028598
:101D93001203D0EB7F0160027F00AB079002851234
:101DA30003B890028DEBF01214AC900284E0FF02B2
:101DB3002170900288EEF0A3EFF0900261E0700AC8
:101DC300900288E0FEA3E0FF8020900261E0B4016E
:101DD3001C900288E0FEA3E0FF7C027D6D12046884
:101DE300E47BE87A03F9F81202F51219C3227F0E95
:101DF3007A0279E3121D707F107A0279D3121D7073
:101E03009080067402F0908005F090801CF0908022
:101E130007F0C285C2B4C286C287121D607407F080
:101E23007A0279E3FD02171490028C120439121E10
:101E3300947401F0E4FFFED3900290E09F90028F30
:101E4300E09E401A90FC02E0FD90028CE475F001E4
:101E5300120422ED1201720FBF00010E80D9121E6F
:101E6300A922C0E0C083C082C0D075D000C007E5FE
:101E73009A30E008439A01AF9B121F9FE59A30E125
:101E830005439A02C20CD007D0D0D082D083D0E0D1
:101E930032AC06E490FC01F0EC90FC06F090FC05FB
:101EA300EFF090FC0122E490FC01F090FC0374AA93
:101EB300F022E490FC01F090FC03742A22E004F089
:101EC300E0C39464227E007F677D007B0102063FAE
:101ED300E0242CF582E43401F58322E02493F58297
:101EE300E43401F58322EFC39402401FEFD3940837
:101EF3005019EF24FE33333354F84480F5ADE5AD88
:101F030030E0FBE5A254F84404F5A222C20C7A01A6
:101F13007993121EC87A01792C121EC89080097415
:101F230003F090800AF0F59D759CFA759AD0D2AEB5
:101F3300222094047F018002E4FF122237209504BB
:101F43007F018002E4FF1222272082047F018002A6
:101F5300E4FF12225722900284120439E4FEEEC3F6
:101F63009D50159002841204198E8275830012010C
:101F730045FF121FC10E80E622E490FC01F0EF75CD
:101F8300F080A4FDACF090FC03742AF0EC90FC0606
:101F9300F0AF05121EA07403121EAD229001901221
:101FA3001EC04002E4F0900190121ED3EFF09001A6
:101FB30092E004F0E0D3946440037464F02290014F
:101FC300F7121EC04002E4F09001F7121EDEEFF09C
:101FD3009001F9E004F0E0D3946440037464F022C8
:101FE30090024FE0601BC3900251E094D0900250E6
:101FF300E09407400CE490024FF0A3F0A3F0121A10
:102003003422EF9002E96012E04410F0A3E0F09074
:1020130002E9E04420F0A3E0F022E054EFF0E054C2
:10202300DFF022900192E07002FF22900191121ED4
:10203300C04002E4F0900191121ED3E0FF900192A0
:10204300E014F0229001F9E07002FF229001F812EF
:102053001EC04002E4F09001F8121EDEE0FF900182
:10206300F9E014F02290031FE0600BE064016006C6
:10207300E490024DF02290024DE0C394FF5003E040
:1020830004F02290030AE06016C390030CE094FF6F
:1020930090030BE094FF5007E475F0011201EB226B
:1020A3009002F1E0C394194011E4F0121D6074082A
:1020B300F07A0279E37D0712171422AE07EE700857
:1020C300FF1222070F022217EEB40109E4FF1222C6
:1020D300170F12220722900322E0C394FF5003E05C
:1020E30004F0122159121C37122266122086022094
:1020F3006890024EE0121AA5EEF0A3EFF090024EA4
:10210300E004F0E0C394284002E4F022E490031ECC
:10211300F012000E90031FE0700B900270E0FEA31C
:10212300E0FF121DB522EF9002E46009E04420F0C5
:10213300E04440F022E054DFF0E054BFF02275EFBA
:10214300E17F06121EE943A18075A941E4F5AC7550
:10215300AB4B75AAA522C3900321E094FF90032003
:10216300E094FF5007E475F0011201EB22AE07EE95
:102173007F0160027F00122129EE7F0060027F0150
:102183000221F7E4900307F0900306F090030AF0AE
:10219300A3F0A3F0900309F022E4FDED121AA5EEDB
:1021A300F0A3EFF00DEDB428F2E490024EF022EF2D
:1021B3009002E96008E04408F0A3E0F022E054F75D
:1021C300F0225389FC438901758CF8758ACDD28C32
:1021D300D2A9225389CF438910758DFF758BA4D261
:1021E3008ED2AB229002F1E0C394FFE494FF50033C
:1021F300E004F022EF9002F06005E04401F022E0F9
:1022030054FEF022EF9002EC6005E04440F022E03F
:1022130054BFF022EF9002EC6005E04480F022E02E
:10222300547FF022EF9002E86005E04402F022E0E0
:1022330054FDF022EF9002E86005E04401F022E053
:1022430054FEF0229001F9E06009200C06122047A9
:1022530012229F22EF9002E9600412113422E0540B
:102263007FF02290024FE06008A3E475F0011201B1
:10227300EB2290800C7401F090800DF0908002F0BE
:10228300229002B2EFF012229F9002B2E0FF22E40A
:10229300900250F0A3F090024F04F022200CFDC2F4
:1022A300AE8F9BD20CD2AE2290031FEFF0E49003CB
:1022B3001EF022900192E0FF22E490031FF022021D
:1022C30020A3B2B5225541525420726563656976E5
:1022D300652070726F636573732074696D656F75C4
:1022E300742C2063757272656E74207374617475D7
:1022F300733A2025750A0042756666657220636F1E
:102303006E74656E743A200A003078253032782076
:10231300000A00756172745F726563656976657240
:102323005F70726F636573735F627974650A0075BA
:102333006172745F72656365697665722E73746129
:1023430020696E76616C69642C2076616C203D3D5A
:102353002025750A00427974652070726F63657376
:1023630073696E67206661696C65640A00637572E0
:102373002075617274207265636569766572207376
:1023830074617475733A20253032750A0072656181
:102393006420736176652064617461207061737376
:1023A3000A007265616420736176652064617461FB
:1023B300206572720A00696E737472756D656E744E
:1023C3005F696E666F5F736176650A007379732068
:0623D300696E69740A0046
:00000001FF
