:10000000020CDE120FAD7D071210247B017A0179FC
:07001000517D08021053327C
:10001B00020B49900118E0B4A50575AAA5E4F022DE
:0E003300020DE6000A006400010264501E1E69
:03004300020F4366
:03005B000200168A
:10006B00020E54EC4D6011E8497017ED33EC33047C
:10007B00600DE4FCFFFEFD22E933E8330470F80267
:10008B00021E1201E958046009E4CC2481500628B1
:10009B005009020228284003020225C0E0EB4A70F7
:1000AB0044B98006D0E0FB020214EF4E701CBD80F9
:1000BB0008EBFFEAFEE9FD80EBE98DF0A4FEE5F02D
:1000CB00020157E9CDF9EAFEEBFFEF89F0A4FCE55D
:1000DB00F0CE89F0A42EFFE435F0CD89F0A42DFEEF
:1000EB00E435F08067EF4E7005BD80D780C3EF8B92
:1000FB00F0A4ACF0EE8BF0A42CFCE435F0F8EF8A16
:10010B00F0A42CE5F038FCE433CB8DF0A42CFCE50B
:10011B00F03BF8EE8AF0A42CFCE5F038F8E433CF92
:10012B0089F0A42CFCE5F038CF3400CE89F0A42F55
:10013B00FFE5F03EFEE433C98DF0A42EFEE5F03969
:10014B00CD8AF0A42FFFE5F03EFEE43DFD33D0E079
:10015B00FB50070BBB000F020228EC2CFCEF33FF0C
:10016B00EE33FEED33FD02020075F020800E75F0CC
:10017B0010800575F0087D007E007F003392D5302E
:10018B00D5031207DAEC334010EF33FFEE33FEEDFD
:10019B0033FDEC33FCD5F0ED22E5F0247EA2D51334
:1001AB00CC92E7CDCEFF22EDD2E7CD33EC3392D517
:1001BB0024814006E4FFFEFDFC22FCE4CFCECDCC37
:1001CB0024E0501174FF80EDC3CC13CCCD13CDCEF6
:1001DB0013CECF13CF0470F030D5DE0207DAE9D29D
:1001EB00E7C933E833F892D5EDD2E7CD33EC33FCE6
:1001FB005002B2D522EC30E7100FBF000C0EBE0040
:10020B00080DBD00040BEB6014A2D5EB13FCED92B3
:10021B00E7FD2274FFFCFDFEFF22E480F8A2D574FB
:10022B00FF13FC7D80E480EFF920E72824F95003CD
:10023B007907E4F42402FB18DBFDE624FB5014E9F8
:10024B00600DE4F618E604F6B40A08E4F6D9F57482
:10025B0001F60A22C2D522ED33EC3392D5FA602A8D
:10026B00B4FF33EDC2E77BFF60067A027987E422A5
:10027B007A02799020D5047A02798B224E614E0056
:10028B002B494E46002D494E4600E47A08F608DA13
:10029B00FC7B00740722E8C0E0ECC0E0EDC0E0EEB0
:1002AB00C0E0EFC0E0EA75F010A4CAABF075F04DFA
:1002BB00A42BFBE435F0FCEA2410FAEB34C5FBEC81
:1002CB0034D9FCEDC2E7FF75F056A4F42411C5F048
:1002DB00F434C58FF0A42AE5F03BE43CF620E71498
:1002EB0012052DD0E0FFD0E0FED0E0FDD0E0FC12F7
:1002FB0004608014F40412052DD0E0FFD0E0FED092
:10030B00E0FDD0E0FC12006ED0E0F8E6FAEDD2E7AB
:10031B00CD33EC332482FBE4C3CF33CFCE33CECDFE
:10032B0033CD33DBF37B0775F00A846004F6081BCF
:10033B000AE5F0F6088FF0740AA4FFACF08EF074A7
:10034B000AA42CFEACF050010C8DF0740AA42CFD09
:10035B00E435F0F608DBDE74072202021EE8648047
:10036B00F8E933E83360110460F0ED33EC337009D6
:10037B00E8FCE9FDEAFEEBFF220460DED3EB9FEA2B
:10038B009EE99DE8C2E78CF0C2F795F0400CE8CCF3
:10039B00F8E9CDF9EACEFAEBCFFB1201E985D0F003
:1003AB005804700320D5B3E80470075002B2D5028D
:1003BB00022892D5EC0460F7E4CCC0E0C398F86057
:1003CB003B94186008400DD0E0FB020200E4FBFAFE
:1003DB00C9FC8028E830E406E4C9FBE4CAFCE83039
:1003EB00E305E4C9CACBFCE854076010F8C3E91372
:1003FB00F9EA13FAEB13FBEC13FCD8F130F52FC32E
:10040B00E49CFCEF9BFFEE9AFEED99FDD0E0FBEF39
:10041B004E4D4C701222DB03020225EC2CFCEF3309
:10042B00FFEE33FEED33FDED30E7EB020200EF2B79
:10043B00FFEE3AFEED39FDD0E0FB50130BBB000392
:10044B00020228ED13FDEE13FEEF13FFEC13FC027B
:10045B000200020228EC5D046005E85904700302F7
:10046B00021E1201E9580460F6EC4860F2EC7004CD
:10047B00FDFEFF22C860DB2481C85009C3986002CF
:10048B0050060202259850CAF582E9294B4A70059D
:10049B00AB8202021475F0007C1A7880C3EF9BEEDE
:1004AB009AED99400DC3EF9BFFEE9AFEED99FDE897
:1004BB0042F0DC23ACF0D0E0FFD0E0FED0E0FDABAF
:1004CB008220E7101BEB60BAEC2CFCEF33FFEE3312
:1004DB00FEED33FD020200E803F830E705C0F075CE
:1004EB00F000EF2FFFEE33FEED33FD40B830E7C2E7
:1004FB0080AA3F8000004120000042C80000447ADF
:10050B000000461C400047C35000497424004B18A0
:10051B0096804CBEBC205A0E1BCA6753C21C749DDE
:10052B00C5AEFB60065407601C232312055BEB541E
:10053B0038600912054712055612006EECF8EDF9FA
:10054B00EEFAEFCB22EB12055680F1543803241C44
:10055B009004FDFE93FC0EEE93FD0EEE930ECE93E8
:10056B00FF22BB010689828A83E0225002E722BB6D
:10057B00FE02E32289828A83E49322BB010CE5828B
:10058B0029F582E5833AF583E0225006E92582F8C6
:10059B00E622BBFE06E92582F8E222E58229F582F6
:1005AB00E5833AF583E49322BB010689828A83F0C3
:1005BB00225002F722BBFE01F322EF8DF0A4A8F02C
:1005CB00CF8CF0A428CE8DF0A42EFE22BC000BBE47
:1005DB000029EF8DF084FFADF022E4CCF875F00824
:1005EB00EF2FFFEE33FEEC33FCEE9DEC984005FC59
:1005FB00EE9DFE0FD5F0E9E4CEFD22EDF8F5F0EE21
:10060B008420D21CFEADF075F008EF2FFFED33FD0B
:10061B004007985006D5F0F222C398FD0FD5F0EAAB
:10062B0022C2D5EC30E709B2D5E4C39DFDE49CFCB6
:10063B00EE30E715B2D5E4C39FFFE49EFE1205D75B
:10064B00C3E49DFDE49CFC80031205D730D507C3A2
:10065B00E49FFFE49EFE22C5F0F8A3E028F0C5F06E
:10066B00F8E582158270021583E038F022BB011089
:10067B00E58229F582E5833AF583E0F5F0A3E022E4
:10068B005009E92582F886F008E622BBFE0AE92527
:10069B0082F8E2F5F008E222E5832AF583E993F587
:1006AB00F0A3E99322E88FF0A4CC8BF0A42CFCE907
:1006BB008EF0A42CFC8AF0EDA42CFCEA8EF0A4CDD9
:1006CB00A8F08BF0A42DCC3825F0FDE98FF0A42CED
:1006DB00CD35F0FCEB8EF0A4FEA9F0EB8FF0A4CFA0
:1006EB00C5F02ECD39FEE43CFCEAA42DCE35F0FD51
:1006FB00E43CFC2275F008758200EF2FFFEE33FE11
:10070B00CD33CDCC33CCC58233C5829BED9AEC99DE
:10071B00E58298400CF582EE9BFEED9AFDEC99FC80
:10072B000FD5F0D6E4CEFBE4CDFAE4CCF9A88222C7
:10073B00B800C1B90059BA002DEC8BF084CFCECDE7
:10074B00FCE5F0CBF97818EF2FFFEE33FEED33FD20
:10075B00EC33FCEB33FB10D703994004EB99FB0F05
:10076B00D8E5E4F9FA227818EF2FFFEE33FEED33DC
:10077B00FDEC33FCC933C910D7059BE99A4007EC54
:10078B009BFCE99AF90FD8E0E4C9FAE4CCFB22759B
:10079B00F010EF2FFFEE33FEED33FDCC33CCC8332F
:1007AB00C810D7079BEC9AE899400AED9BFDEC9A91
:1007BB00FCE899F80FD5F0DAE4CDFBE4CCFAE4C809
:1007CB00F922EF4BFFEE4AFEED49FDEC48FC22C34C
:1007DB00E49FFFE49EFEE49DFDE49CFC22E8600F99
:1007EB00EFC333FFEE33FEED33FDEC33FCD8F122D8
:1007FB00E6FC08E6FD08E6FE08E6FF22E0FCA3E0C7
:10080B00FDA3E0FEA3E0FF22ECF608EDF608EEF602
:10081B0008EFF622ECF0A3EDF0A3EEF0A3EFF0223D
:10082B00D083D082E493F608740193F60874029394
:10083B00F608740393F6740473A8828583F0D0834F
:10084B00D08212085B12085B12085B12085BE47320
:10085B00E493A3C583C5F0C583C8C582C8F0A3C5FF
:10086B0083C5F0C583C8C582C822A42582F582E55D
:10087B00F03583F58322FAE6FB0808E6F925F0F656
:10088B0018E6CA3AF622E493FB740193FA740293C6
:10089B00F922D083D082F8E4937012740193700D17
:1008AB00A3A393F8740193F5828883E47374029382
:1008BB006860EFA3A3A380DFEC8EF0A4CCC5F0CCD3
:1008CB00CDF8EFA4CEC5F02DFDE43CFCE8A42EC87A
:1008DB00C5F03DFDE43CFCEFA4FFE5F028FEE43D54
:1008EB00FDE43CFC22EF4E6012EF60010EEDBB010C
:1008FB000B89828A83F0A3DFFCDEFA2289F0500792
:10090B00F709DFFCA9F022BBFEFCF309DFFCA9F021
:10091B0022019F0001A600017900017D00017500F5
:10092B00019E0001A40001AB0001B20001B1000166
:10093B00B30004800000000001AA0001A80001A17F
:10094B000001A50001AE0001B00001AC0001710077
:10095B0001720001730001740001A2000276000015
:10096B00026F0000027A0000017C00017E00017F13
:10097B000001B40001AD0001A30001A7000192002A
:10098B0001930001780001A00001840001AF000178
:10099B00A900410161004101620041016300420174
:1009AB00640000013600013800014D00C127C1125F
:1009BB00C100C122C12BC113C11EC11DC10EC12655
:1009CB00C11BC124C106C103C110C114C12CC10A72
:1009DB00C111C11AC119C115C11CC107C117C12150
:1009EB00C129C105C109C116C10BC128C11FC12035
:1009FB00C123C12AC118C125C108C10FC102C10C35
:100A0B00C10DC104C1010B2B3F065B4F666D7D070A
:100A1B007F6F400526065B66665B4100E300016065
:100A2B0000016C00016D00026A0000016E0001699B
:100A3B0000011E00011C00011D0000E50025E02443
:100A4B0002F582E43401F583E0FEA3E0FFE5002527
:100A5B00E024E4F582E43400F583EEF0A3EFF0E557
:100A6B000025E02402F582E43401F583E0FEA3E0E7
:100A7B00FFE50025E02224E4F582E43400F583EE63
:100A8B00F0A3EFF022EFF45EF6E50025E024E6F5A7
:100A9B0082E434002274172500F582E43401F583D7
:100AAB0022E50025E02407F582E43401F583E0FE1E
:100ABB00A3E0FF2274102500F582E43401F58322B4
:100ACB00E50075F00AA424E8F582E43400F58322EE
:100ADB00E50090003B93FF78B8E6FEEF5E2225E041
:100AEB0025E02438F582E43400F583E493FE7401A9
:100AFB0093FF22E50025E024E4F582E43400227420
:100B0B00122500F582E43401F5832225E02413F548
:100B1B0082E434012225E024FDF582E434002278BE
:100B2B00B7E62401FFE433FEC32225E02407F58258
:100B3B00E434012225E02419F582E4340122C0E0DB
:100B4B00C0D075D000C000C004C005C006C007757A
:100B5B008DF8758BCD7876E6FE08E6FF786FE6FCB0
:100B6B0008E6FD6F7002EC6E6055D3ED9FEC9E4076
:100B7B001A7877740226F618E436F6E6FE08E6FFD6
:100B8B00C3ED9FEC9E5026786F801D787774FE2600
:100B9B00F61874FF36F6D3ED0896EC1896400E78DF
:100BAB006FE6FE08E6FF7876A60608A60775C00373
:100BBB007876E6FC08E6FDECF5D18DDF75D90805F6
:100BCB006BE56B7002056AC3E56B9405E56A9400EF
:100BDB004034756A00756B00436C01D208D20E0568
:100BEB006EE56E9405401F756E00436C040569E558
:100BFB006920E005436C08D212E569C394044006F2
:100C0B00756900436C10D007D006D005D004D00016
:100C1B00D0D0D0E032908109E054E06004E044E0B1
:100C2B00F085C04EE4FD7E007401A805088005C365
:100C3B0033CE33CED8F9FFACC7ECFBEF5B601FA80C
:100C4B00057401088002C333D8FCF5C78DC0ED25B0
:100C5B00E0244FF8A6CFED25E02450F8A6CE0DBD2D
:100C6B0006C4E4FDED25E0244FF8E6FE08E6FFE5BB
:100C7B00612D120B35120A88EDFFE5612FFFE4336E
:100C8B00FE78B7E66F7001EE60040DBD06D6E56128
:100C9B002406FFE433FE78B7E6FDD3EF9D7480F8AE
:100CAB006E984007D22DE4F561800674062561F538
:100CBB0061120EB090010FE0600214F090011EE083
:100CCB00FF90011DE0FE6F6006A3EEF075AAA585EF
:100CDB004EC02278FFE4F6D8FD9000007F007E081E
:100CEB00E4F0A3DFFCDEFA7581B8020D33020FBF0F
:100CFB00E493A3F8E493A34003F68001F208DFF436
:100D0B008029E493A3F85407240CC8C333C4540FAD
:100D1B004420C8834004F456800146F6DFE4800B80
:100D2B00010204081020408090091CE47E019360AE
:100D3B00BCA3FF543F30E509541FFEE493A36001AD
:100D4B000ECF54C025E060A840B8E493A3FAE49317
:100D5B00A3F8E493A3C8C582C8CAC583CAF0A3C8C5
:100D6B00C582C8CAC583CADFE9DEE780BE8F5E8E47
:100D7B005D8D5C8C5BE49000E1F0A3F0900067F07C
:100D8B00A3F0C22F900064F0A3F0A3F0FE7F64FDEC
:100D9B007B017A0079001208F0E47F20FEFDFCABAA
:100DAB005EAA5DA95CA85B1206B0A804A905AA06F9
:100DBB00AB077F007E807D517C0112073BC3E49F14
:100DCB00FF74049EAD07FC9080097403F090800AB9
:100DDB00F08C9D8D9C759AD0D2AE22C0E0C0F0C035
:100DEB0083C082C0D075D000C000C001C002C00358
:100DFB00C004C005C006C007E59A30E00DE59A5463
:100E0B00FC4401F59AAF9B12116AE59A30E11FE59C
:100E1B009A54FC4402F59A9000E2E0FF9000E1E066
:100E2B006F6009A3120FF3E0F59B8002C22FD0076E
:100E3B00D006D005D004D003D002D001D000D0D042
:100E4B00D082D083D0F0D0E032C0E0C0F0C083C0FD
:100E5B0082C0D075D000C000C001C002C003C00466
:100E6B00C005C006C007E5EE30E21475EE041210A3
:100E7B0082E56845676008E568156870021567E5E7
:100E8B00EE30E10675EE021210DDD007D006D0056C
:100E9B00D004D003D002D001D000D0D0D082D083E8
:100EAB00D0F0D0E032E4FFEFC39406503EEFFDE507
:100EBB00612DFDE433FC78B7E6FBC3ED9B7480F842
:100ECB006C9840168FC075C455EF04FEEEC39406A4
:100EDB0050198EC075C4400E80F28FC0E5612F246F
:100EEB00B6F8E6044440F5C40F80BC43C18022E44D
:100EFB00F538E53825E02443F582E43401120FB4CC
:100F0B00B407EFE4F538E53825E02451F582E434F5
:100F1B0001120FB4B408EF9080057402120F92C245
:100F2B0085C286C287120FAD7D071210247B017A12
:100F3B000179517D08021053C0E0C0F0C083C0821C
:100F4B00C0D075D000C000C001C002C003C004C037
:100F5B0005C006C007E5C76003120C20D007D006FA
:100F6B00D005D004D003D002D001D000D0D0D08295
:100F7B00D083D0F0D0E03275F002A4F58285F083F7
:100F8B00120678FFAEF022F0908006F0908007F00A
:100F9B0090801CF022D286EF25E0FFEE33FEC28656
:100FAB000D227B017A01794322F583E4F0A3F0054E
:100FBB0038E538221210B0D2AF12114C7F007EC22E
:100FCB007D017C00120D7812114C120EFA120003E7
:100FDB00D227E4F54DF538D220D22312001EE47847
:100FEB00B4F690010EE080F3E004F0E075F01484A9
:100FFB00E5F0F0E024CDF582E43400F58322E02423
:10100B0001FFE433FE7C007D641205D7EDF0E02494
:10101B0000F582E43400F583228B5B8A5C895D8D5D
:10102B005EC286C287E4F55FE55FC3955E5012AB87
:10103B005BAA5CA95DE55F120F82121184055F80CC
:10104B00E7D287C287C285228B5B8A5C895D8D5E06
:10105B00C286C287E4F55FE55FC3955E5012AB5B5A
:10106B00AA5CA95DE55F120F8212119D055F80E7F7
:10107B00D287C287C2B4229000E3E004F0E0C394AD
:10108B00044021E4F0FF78B7E6FEEFC39E501574E1
:10109B00172F120AA4E0600974172F120AA4E01488
:1010AB00F00F80E22275EFE17F061211047F007EC4
:1010BB00C27D017C00120D7843A18075A941E4F536
:1010CB00AC75AB4B75AAA512112AE5BB54C04FF5F5
:1010DB00BB2290010FE004F0E4FF74122F120B0EF1
:1010EB00E0600974122F120B0EE014F00FBF01EA2F
:1010FB0090010DE0600214F022EFC39402401FEF49
:10110B00D394085019EF24FE33333354F84480F54D
:10111B00ADE5AD30E0FBE5A254F84404F5A2229016
:10112B00FC017480F0E490FC06F090FC057424F054
:10113B0090FC017481F090FC02E0FFE490FC01F064
:10114B0022C28EC2ABE4F56AF56BF56CE58954CF20
:10115B004410F589758DF8758BCDD28ED2AB22AB41
:10116B0007900064121009EBF0900066E004F0E0C9
:10117B00D3946440037464F022E4FDFCEEC330E7C7
:10118B0001D39285120FA0BD00010CED64104C70C1
:10119B00EB22E4FDFCEEC330E701D392B4120FA0B7
:0B11AB00BD00010CED64104C70EB2245
:00000001FF
