:0A000000021FF190801D7402F0222F
:10000B000226ACE4900281F0A3F090028004F0226F
:10001B000226EDEF9002CA6008E04440F0A3E0F046
:06002B0022E054BFF022A8
:100033000228D0E709F608DFFA8046E709F208DF6D
:10004300FA803E88828C83E709F0A3DFFA8032E3EB
:1000530009F608DFFA8078E309F208DFFA8070888E
:10006300828C83E309F0A3DFFA806489828A83E0C8
:10007300A3F608DFFA805889828A83E0A3F208DFB7
:10008300FA804C80D280FA80C680D4806980F28066
:1000930033801080A680EA809A80A880DA80E2808C
:1000A300CA803389828A83ECFAE493A3C8C582C8E1
:1000B300CCC583CCF0A3C8C582C8CCC583CCDFE94B
:1000C300DEE7800D89828A83E493A3F608DFF9ECE7
:1000D300FAA9F0EDFB2289828A83ECFAE0A3C8C572
:1000E30082C8CCC583CCF0A3C8C582C8CCC583CC99
:1000F300DFEADEE880DB89828A83E493A3F208DF08
:10010300F980CC88F0EF60010E4E60C388F0ED24D7
:1001130002B4040050B9F582EB2402B4040050AFDA
:10012300232345822390008673BB010689828A8339
:10013300E0225002E722BBFE02E32289828A83E4A3
:100143009322BB010CE58229F582E5833AF583E02E
:10015300225006E92582F8E622BBFE06E92582F84D
:10016300E222E58229F582E5833AF583E49322BB13
:10017300010689828A83F0225002F722BBFE01F333
:1001830022EF8DF0A4A8F0CF8CF0A428CE8DF0A49C
:100193002EFE22BC000BBE0029EF8DF084FFADF0D4
:1001A30022E4CCF875F008EF2FFFEE33FEEC33FCBE
:1001B300EE9DEC984005FCEE9DFE0FD5F0E9E4CEF4
:1001C300FD22EDF8F5F0EE8420D21CFEADF075F0C3
:1001D30008EF2FFFED33FD4007985006D5F0F222CC
:1001E300C398FD0FD5F0EA22C5F0F8A3E028F0C5C7
:1001F300F0F8E582158270021583E038F022A3F847
:10020300E0C5F025F0F0E582158270021583E0C8A1
:1002130038F0E822BB0110E58229F582E5833AF53F
:1002230083E0F5F0A3E0225009E92582F886F0087F
:10023300E622BBFE0AE92582F8E2F5F008E222E5B0
:10024300832AF583E993F5F0A3E99322EF2BFFEEDD
:100253003AFEED39FDEC38FC22C3EF9BFFEE9AFE2C
:10026300ED99FDEC98FC22E88FF0A4CC8BF0A42C44
:10027300FCE98EF0A42CFC8AF0EDA42CFCEA8EF0B1
:10028300A4CDA8F08BF0A42DCC3825F0FDE98FF098
:10029300A42CCD35F0FCEB8EF0A4FEA9F0EB8FF08F
:1002A300A4CFC5F02ECD39FEE43CFCEAA42DCE3517
:1002B300F0FDE43CFC2275F008758200EF2FFFEEA1
:1002C30033FECD33CDCC33CCC58233C5829BED9A7F
:1002D300EC99E58298400CF582EE9BFEED9AFDECDD
:1002E30099FC0FD5F0D6E4CEFBE4CDFAE4CCF9A823
:1002F3008222B800C1B90059BA002DEC8BF084CF2B
:10030300CECDFCE5F0CBF97818EF2FFFEE33FEED01
:1003130033FDEC33FCEB33FB10D703994004EB992B
:10032300FB0FD8E5E4F9FA227818EF2FFFEE33FE3E
:10033300ED33FDEC33FCC933C910D7059BE99A4073
:1003430007EC9BFCE99AF90FD8E0E4C9FAE4CCFB8B
:100353002275F010EF2FFFEE33FEED33FDCC33CCDF
:10036300C833C810D7079BEC9AE899400AED9BFD68
:10037300EC9AFCE899F80FD5F0DAE4CDFBE4CCFA7B
:10038300E4C8F922EF4BFFEE4AFEED49FDEC48FCD1
:1003930022EB9FF5F0EA9E42F0E99D42F0E89C458E
:1003A300F022E8600FEFC333FFEE33FEED33FDECD5
:1003B30033FCD8F122E0FCA3E0FDA3E0FEA3E0FFC1
:1003C30022E0F8A3E0F9A3E0FAA3E0FB22ECF0A318
:1003D300EDF0A3EEF0A3EFF022A8828583F0D083A3
:1003E300D0821203F31203F31203F31203F3E47341
:1003F300E493A3C583C5F0C583C8C582C8F0A3C56C
:1004030083C5F0C583C8C582C822A42582F582E5C9
:10041300F03583F58322E0FBA3E0FAA3E0F922F8A9
:10042300E0FBA3A3E0F925F0F0E582158270021545
:1004330083E0FA38F022EBF0A3EAF0A3E9F022D04C
:1004430083D082F8E4937012740193700DA3A39385
:10045300F8740193F5828883E4737402936860EF00
:10046300A3A3A380DFEC8EF0A4CCC5F0CCCDF8EF32
:10047300A4CEC5F02DFDE43CFCE8A42EC8C5F03D98
:10048300FDE43CFCEFA4FFE5F028FEE43DFDE43C85
:10049300FC22E3F5F009E208B5F06BDFF58067E3D2
:1004A300F5F009E608B5F05EDFF5805A87F009E656
:1004B30008B5F052DFF6804E87F009E208B5F04642
:1004C300DFF6804288828C8387F009E0A3B5F0369B
:1004D300DFF6803288828C8387F009E493A3B5F03A
:1004E30025DFF5802188828C83E3F5F009E0A3B54D
:1004F300F014DFF5801088828C83E3F5F009E49330
:10050300A3B5F002DFF40205C4808780E980908000
:10051300D4803E8015806E807E809D80B7808D80E4
:10052300A380518074803C0205D089828A83ECFACF
:10053300E493F5F0A3C8C582C8CCC583CCE493A3E8
:10054300C8C582C8CCC583CCB5F076DFE3DEE180D5
:100553007089828A83E493F5F0A3E208B5F062DF41
:10056300F4805E89828A83E0F5F0A3E608B5F05152
:10057300DFF5804D89828A83E0F5F0A3E208B5F0C8
:1005830040DFF5803C89828A83E493F5F0A3E60893
:10059300B5F02EDFF4802A8002805789828A83ECAB
:1005A300FAE493F5F0A3C8C582C8CCC583CCE0A315
:1005B300C8C582C8CCC583CCB5F006DFE4DEE280D3
:1005C300007FFFB5F0020F2240027F012289828A59
:1005D30083ECFAE0F5F0A3C8C582C8CCC583CCE0B0
:1005E300A3C8C582C8CCC583CCB5F0D5DFE5DEE3AF
:1005F30080CF89828A83ECFAE0F5F0A3C8C582C86C
:10060300CCC583CCE493A3C8C582C8CCC583CCB581
:10061300F0AFDFE4DEE280A988F0EF60010E4E6008
:10062300ABED2402B404005098F582EB2402B40429
:1006330000508E232345822390050C73EF4E6012E6
:10064300EF60010EEDBB010B89828A83F0A3DFFC0F
:10065300DEFA2289F05007F709DFFCA9F022BBFE7E
:10066300FCF309DFFCA9F022E508245AF582E434FF
:1006730002F583E005082290025730070390025ADF
:10068300E475F00112042202012C2000E97F2ED22E
:10069300008018EF540F2490D43440D4FF30040B5F
:1006A300EF24BFB41A0050032461FFE5096002156B
:1006B30009050CE50C7002050B30070E900257E498
:1006C30075F001120422EF020172022E317403D27B
:1006D300078003E4C207F508900257120439E4F5D2
:1006E30009F50BF50CE50960077F201206AE80F5CE
:1006F300750AFFC201C200C202C203C205C206C21A
:100703000812067AFF700D3007057F001206BFAF8F
:100713000CAE0B22B4255FC2D5C20412067AFF24A5
:10072300D0B40A00501A75F00A780930D50508B616
:10073300FF0106C6A426F620D5047002D20380D991
:1007430024CFB41A00EF5004C2E5D2040208C0D289
:100753000180C6D20080C0D20280BCD2D580BAD27A
:100763000580B47F201206AE2002077401B509008C
:1007730040F112066BFF1206AE0206E8D208D2065B
:10078300809512066BFB12066BFA12066BF94A4B45
:10079300700679917A097BFF20022EE509602A7E93
:1007A300008E8275830012014560060EEE650A70A5
:1007B300F0C2D5EBC0E0EAC0E0E9C0E0EE12090701
:1007C300D0E0F9D0E0FAD0E0FB12012CFF60AAEBF5
:1007D300C0E0EAC0E0E9C0E01206AED0E02401F9CF
:1007E300D0E03400FAD0E0FBE50A0460DCD50AD996
:1007F30080877BFF7A097903D202809C791080027B
:100803007908C206C2088008D2D5790A8004790A19
:10081300C2D5E50A047002F50AE4FAFDFEFF1206EA
:100823006BFC7B0820011312066BFD7B1030000A62
:1008330012066BFE12066BFF7B20EC3382D592D53A
:100843005013C3E43000069FFFE49EFEE42001033F
:100853009DFDE49CFCE4CBF8C201EC700CCFCECD43
:10086300CCE824F8F870F38017C3EF33FFEE33FEC0
:10087300ED33FDEC33FCEB33FB994002FB0FD8E97E
:10088300EB300105F8D0E0C448B201C0E00AEC4DFA
:100893004E4F78207B0070C2EAB50A0040BCC0E02E
:1008A300120909D0F0D0E0200104C4C0E0C4B201B1
:1008B300C0F0120697D0F0D5F0EB0206E81204421E
:1008C30007855307FF5807564C07524208034F0842
:1008D3000B44080B49076B4308115507F54607F509
:1008E3004507F54709B150075A2D075E2E07812B9F
:1008F300076223077F20099A2A071A48000007790D
:100903003F3F3F00790AA2D5200314300509B910EF
:10091300020404B9080104A2D520060250010420F0
:1009230002689202B509005034C0E07F20300319F9
:100933007F30A20272067205500F120960C202C212
:1009430006C205C2087F30800F300503E9C0E012FC
:1009530006AE300503D0E0F9D0E0B509CC30051779
:100963007F30B9100C1206AE7F583004077F7880B1
:1009730003B908031206AE3002057F2D0206AE7FCF
:10098300202008F87F2B2006F322920280CF286EC6
:10099300756C6C2900D20112066B3001F8C2017824
:1009A3000930D50108F602071A2D5043495812069B
:1009B3006B2403B405004001E49009AC9312069F35
:1009C300743A12069FD2037509040207FF4102CE4F
:1009D300004E02C000000000000000000000000004
:1009E30000005002B0000000000000000000000002
:1009F30000000000004A00D23F065B4F666D7D0792
:100A03007F6F603A00360104010301020101010016
:100A1300020F020E020D020C020B020A0209020867
:100A23000207020602050204020302020201020097
:100A3300030F030E030D030C000F030B030A03093B
:100A43004E008C0500050105020503050405050597
:100A5300064E001E040004010402040304040405FA
:100A630004064E007007080709070A070B070C075F
:100A73000D070E4E007E0701070207030704070553
:100A8300070607074E00B606080609060A060B0600
:100A93000C060D060E4E00C40601060206030604EC
:100AA300060506060607604600DC050F0400040180
:100AB3000402040304040405050705080509050ADF
:100AC300050B050C050D05000501050205030504CD
:100AD300050505060609060A060B060C060D060E95
:100AE300060F0602060306040605060606070608A1
:100AF3004E009A03030304030503060307030803D5
:100B0300094E00A8040C040D040E040F0300030196
:100B130003024A002C020B020C020F010001034ADC
:100B23000122020A020D020E01010102410000002E
:100B330041000100420002000041000400420005A0
:100B43000000410007004100080042000900004185
:100B5300000B0041000C0041000D0042000E00009C
:100B63004200100000420012000042001400004244
:100B73000016000041001800420019000042001B4B
:100B8300000041001D004103230042032100005FD8
:100B930002910000000000000000000000000000BF
:100BA3000000000000000000000000000000000042
:100BB30000410280004202810000470283000000DE
:100BC3000000000047028A000000000000005B02F2
:100BD300EB00000000000000000000000000000027
:100BE3000000000000000000000000004A030600AF
:100BF3000000000000000000004202DE0000C10A05
:100C03004102CF004402D0000000004102D4004161
:100C130002D500480311000000000000000041035A
:100C2300100041024D00605001FD00000000000073
:100C330000000000000000000000000000000000B1
:100C430000000000000000000000000000000000A1
:100C53000000000000000000000000000000000091
:100C63000000000000000000000000000000000081
:100C73000000000000000000000041024E0041019E
:100C8300FA004103190041031A0042031F00004107
:100C9300031D0041031E0000900318E0600BE06495
:100CA300016006E49001FAF0229001FAE070440436
:100CB300F090029FE0FFA3E09002A1CFF0A3EFF03A
:100CC3001223D6F0A3EFF09002A1E0FEA3E0FF12FF
:100CD30027E71223CD122CBB900292E0700BFF1278
:100CE3002D0D7F01122AB6800AE4FF122AB67F0176
:100CF300122D0D90024DE0C3944B5003020E39E4C4
:100D0300F090029F1223A240441223CD9002A2E04E
:100D13009002A11223B35003020DA9EF9432EE9473
:100D23000040089002527414F0800D1223E2400533
:100D3300740AF080037405F0900252E0FFC390023E
:100D4300A2E09FF09002A1E09400F0804990029FFE
:100D5300E0FEA3C31223A6504DE0FEA3E0FFC39021
:100D630002A0E090029F1223B3403BEF9432EE9433
:100D73000040089002527414F0800D1223E24005E3
:100D8300740AF080037405F0900252E0FF9002A110
:100D9300E48FF01201EB1223CD122CBB1223D6F0F9
:100DA300A3EFF0020E2E1223CD122BE7121A099095
:100DB3000250EEF0A3EFF0C3900251E0940A9002C8
:100DC30050E0940050051223D9802A9001FB7D0343
:100DD3001223EDC004A905AA06AB079002507D07B4
:100DE3001223EDD00012024FE47B0AFAF9F8120243
:100DF300F59001FBEEF0A3EFF09001FBE0FFA3E021
:100E0300900250CFF0A3EFF09002501223A24006BD
:100E130074FFF5F08012900250E0FEA3E0FFC312CE
:100E230023A85007E475F0011201EB9002A1E0FE44
:100E3300A3E0FF1227E722E0FCA3E0FDEF25E02477
:100E430071F582E43400F583E0FF7E007401A807A6
:100E53000822900253E0FF25E02470F582E4340079
:100E6300F583E025E024B0F582E43402F58322E043
:100E7300FCA3E0FDEF25E022EEF0A3EFF090025299
:100E8300E0FF25E02422F582E43401F583E025E048
:100E930024C0F582E43402F58322F4FFEEF45CFE11
:100EA300ED5F22E475F0010201EBFFEC4EFEED4F26
:100EB30022F074D22DF582E43400F583E02290020F
:100EC30053E0FF25E0247EF582E4340022900253B0
:100ED300E0FF25E024B6F582E4340022900253E0DB
:100EE300FF25E024C4F582E4340022E075F00A848F
:100EF300ADF0E4FF22E0FCA3E0FDEF75F00EA424C7
:100F0300DDF582E43400F58322E47B0AFAF9F890F4
:100F130002561203B81202F5AF03AD0722EEF0A397
:100F2300EFF090025222EEF0A3EFF09002502290E5
:100F33000261E0FF75F00EA424DCF582E43400F5D1
:100F43008322E075F00A84FD7F0122247FF582E489
:100F530034002224B7F582E434002224C5F582E468
:100F630034002290025CE0FF25E022900257E0FE6D
:100F7300A3E0FF7C007D0A020196900000E0FF25BC
:100F8300E0248CF582E4340022E4FDFC900251124B
:100F930003C412026AE42275F00202040DE0FF2585
:100FA300E0241EF582E4340022E04480F0A3E0F064
:100FB30022E0FF25E0242CF582E434002225E024FE
:100FC30036F582E4340022E004F0E0640722900363
:100FD30003E0600312257A122E5DEF700302115DA8
:100FE300122AD79003037401F0E4A3F0A3F0121DB7
:100FF300F7EF601E900302E060157BFF7A2E79F90C
:101003001206D67BFF7A2F79111226751206D61295
:101013002CA5900302E06404600302115D9002EDCD
:10102300E0120442105201105D03106504107805AC
:1010330010840610920710D608112009112A0A11EC
:10104300340E113E101148111152120000115A9022
:1010530002EEE09002A4F002115A1226969002A525
:1010630080259002EEE09002A7F09002EFE090025C
:10107300A8F002115A122696E4FCFD9002D6021142
:101083001B12269690029FEEF0A3EFF002115A1264
:101093002665C004C005C006C0079002EE7818128A
:1010A300266AD003D002D001D000120387C004C047
:1010B30005C006C0079002F012268F78081203A518
:1010C300D003D002D001D0001226831203879002EE
:1010D300938045122665C004C005C006C007900270
:1010E300EE12268F78181203A5D003D002D001D0B8
:1010F30000120387C004C005C006C0079002F012A7
:10110300268F78081203A5D003D002D001D0001295
:1011130026831203879002971203D0803A9002EE3F
:10112300E09002A9F080309002EEE09002AAF080F5
:10113300269002EEE09002ABF0801C9002EEE0906D
:1011430002ACF080129002EEE09002A3F0800890CF
:1011530002EEE09002ADF0122CA52290025BEBF0C0
:1011630090025AEF120EB490025DF0EF14600D146A
:1011730070030212772402600302129AE490025C65
:10118300F090025CE0FFC39407400302129A9002BE
:101193005BE06071120E4D8005C333CE33CED8F9B8
:1011A300FF90025DE0FDEF5D605B90025AE0702905
:1011B300120F66249AF582E43400120E8EC083C0A7
:1011C30082120E72249BF582E43400120E498005CC
:1011D300C333CE33CED8F98027120F6624A8F58205
:1011E300E43400120E8EC083C082120E7224A9F55D
:1011F30082E43400120E498005C333CE33CED8F9CE
:10120300120EAD805C90025AE0702C120F66249A85
:10121300F582E43400120E8EC083C082120E722453
:101223009BF582E43400120E498005C333CE33CEDE
:10123300D8F9120E9D802A120F6624A8F582E43491
:1012430000120E8EC083C082120E7224A9F582E4AE
:101253003400120E498005C333CE33CED8F9120EB3
:101263009DFFD082D083EEF0A3EFF090025CE00408
:10127300F002118490025BE09002C86012E0440423
:10128300F0A3E0F09002C8E04408F0A3E0F022E00D
:1012930054FBF0E054F7F022E4900250F0A3F0A3E3
:1012A3001203DC00000000E4900256F090FC04748A
:1012B3007FF090025C121F77E4FFFE12285D121F7D
:1012C3009A90025C121F7D7F807E0012285D121FA0
:1012D30055F090028A1203B8900251E02FF0900269
:1012E3008FE0FF900251E02FF0900290E0FF900218
:1012F30051E02F121F937E007F0712061BEF702110
:10130300121FDD6F701B121FE7B50715121F8460D4
:10131300107BFF7A2F79311206D6121FB2F0021317
:10132300B87BFF7A2F79461206D6121FDDB5070E5A
:10133300121F846009900283121FD07401F0121FE0
:10134300E7B5072390028A121F87601B900252128F
:1013530003B890028A1203C4D31203944009900283
:101363008A121FD07402F0900256E024FE60080433
:101373007019121FB28031900290E0900292F090A7
:10138300028FE0900291121F938020E4900292F06A
:1013930090029104F0A3121FA11203DC00000001CC
:1013A300E4900250F0121F55121FC27E007F0712F5
:1013B300010612000E9002AD74FFF09002A4F02219
:1013C300900318E014601E14606F14700302146815
:1013D300240360030214969002A7E0FFA3E0FD122A
:1013E300193C021496122A945003021496E4F0A3B3
:1013F300F0900292E0701A900317E07008FF122D2C
:1014030095E4FF80077F01122D957F01122AB68094
:101413001F900292E0B40118900317E07008FF12C6
:101423002D85E4FF80077F01122D857F01122D0D8D
:10143300122AAF70027F018055122A944055E4F0BE
:10144300A3F0900317E09002A87008E0FD7B017FF2
:10145300018006E0FD7B01E4FF121796122AAF70AC
:10146300027F018029122A944029E4F0A3F090031B
:1014730017E09002A77008E0FDE4FB7F018005E020
:10148300FDE4FBFF121796122AAF70027F0190034F
:1014930017EFF0C3900316E09480900315E09425B2
:1014A3004020E4F0A3F0900318E064026004E0B489
:1014B30003057F0412245BE4FF122E4B1225D31283
:1014C300000E122B39120C9B12208B122237122181
:1014D30020121AD6022BB1120EB5900254F0EF70FF
:1014E30079900253F0900253E0FFC3940740030244
:1014F30015D4120E4D8005C333CE33CED8F9FF90E9
:101503000254E0FDEF5D6021120ED0120E63C08322
:10151300C082120E72120F56120E498005C333CECB
:1015230033CED8F9120EAD801F120ED0120E63C047
:1015330083C082120E72120F56120E498005C333F6
:10154300CE33CED8F9120E9DFFD082D083EEF0A316
:10155300EFF0900253E004F0808BE4900253F0909C
:101563000253E0FFC394075068120E4D8005C33346
:10157300CE33CED8F9FF900254E0FDEF5D60211227
:101583000EDF120E63C083C082120E72120F5E1240
:101593000E498005C333CE33CED8F9120EAD801F6A
:1015A300120EDF120E63C083C082120E72120F5E20
:1015B300120E498005C333CE33CED8F9120E9DFFE8
:1015C300D082D083EEF0A3EFF0900253E004F080DA
:1015D3008E22120EB5900254F0EF7067900253F012
:1015E300900253E0FFC3940740030216BD120E4D51
:1015F3008005C333CE33CED8F9FF900254E0FDEF1C
:101603005D6018120E55C083C082120E3A8005C366
:1016130033CE33CED8F9120EAD8016120E55C083D9
:10162300C082120E3A8005C333CE33CED8F9120EE0
:101633009DFFD082D083EEF0A3EFF0900253E0043D
:10164300F0809DE4900253F0900253E0FFC39407AF
:101653005068120E4D8005C333CE33CED8F9FF90B8
:101663000254E0FDEF5D6021120EC1120E63C083D0
:10167300C082120E72120F4E120E498005C333CE72
:1016830033CED8F9120EAD801F120EC1120E63C0F5
:1016930083C082120E72120F4E120E498005C3339D
:1016A300CE33CED8F9120E9DFFD082D083EEF0A3B5
:1016B300EFF0900253E004F0808E229002ADE0F44C
:1016C3007003021795E014606904600302178F909A
:1016D3000318E07015900291E07F0070027F019083
:1016E3000291EFF012000E02178C900318E0B40180
:1016F30013900292E0700504F002178CE4900292BA
:10170300F002178C900318E0B402109002A8E004D2
:10171300F0E0D3943B4019E4F0806E900318E0B4FA
:10172300030E9002A7E004F0E0D39417405BE4F0CB
:101733008057900318E07025900291E0B401047F74
:101743000180439002971203DC0000000012000E98
:10175300122120900292E0FF122BCC802C900318D0
:10176300E0B401047F02801E900318E0B402097FF5
:101773000412245B7F03800E900318E0B4030A7FF6
:101783000412245BE4FF122E4B1225D39002AD7496
:10179300FFF022AA05EF601FEB600EEA120EEF12B4
:1017A30014DAEA120F460214DAEA120EEF1215D512
:1017B300EA120F460215D5EB605CE4900250F090FC
:1017C3000250120ED3120E63C083C082120E721225
:1017D3000F56120E498005C333CE33CED8F9120EFD
:1017E3009DFFD082D083120F29120EE2120E63C026
:1017F30083C082120E72120F5E120E498005C3332C
:10180300CE33CED8F9120E9DFFD082D083120F298A
:10181300120FCA70AA22E4900250F0900250120EE6
:1018230058C083C082120E3A8005C333CE33CED85C
:10183300F9120E9DFFD082D083120F29120EC4120B
:101843000E63C083C082120E72120F4E120E4980B5
:1018530005C333CE33CED8F9120E9DFFD082D08389
:10186300120F29120FCA70B3229002561203D0E44A
:1018730090025CF0A31203DC0000000090025AE027
:101883007022FF12001EE490025BF090025BE0FF07
:10189300C39405400302191AC007120F0CD0071294
:1018A300191B80E79002561203B890025D1203D011
:1018B30090025CE004F0A31203B8E47B0AFAF9F89F
:1018C3001202F590025D1203D0E4FFFEFDFC9002CC
:1018D3005D1203C4C312039470D67F0112001E90DD
:1018E300025CE0FFD3940540057405F0800AEFB471
:1018F300010690025C7402F0E490025BF090025CDB
:10190300E0FE90025BE0FFC39E500CC007120F0C79
:10191300D00712191B80E6227B01121BA3900256EB
:101923001203B8E47B0AFAF9F81202F59002561290
:1019330003D090025BE004F022900250EFF0A3ED9D
:10194300F0E4A3F0900252120E58C083C082120E2C
:101953003A8005C333CE33CED8F9120E9DFFD08221
:10196300D083120F20120EC4120E63C083C08212E2
:101973000E72120F4E120E498005C333CE33CED8EA
:10198300F9120E9DFFD082D083120F20120ED312B4
:101993000E63C083C082120E72120F56120E49805C
:1019A30005C333CE33CED8F9120E9DFFD082D08338
:1019B300120F20120EE2120E63C083C082120E7247
:1019C300120F5E120E498005C333CE33CED8F912FF
:1019D3000E9DFFD082D083120F20120FCA60030224
:1019E3001947900250120EEE1215D5900250120FA5
:1019F300451215D5900251120EEE1214DA900251CF
:101A0300120F450214DA9002561203DC00000000A4
:101A1300E490025AF0A3F0A3F0A374FFF0E4900261
:101A230055F09002561203C4900255E0122396E03B
:101A3300FEA3E0FFE4FCFD12024F9002561203D016
:101A4300122391E0FCA3E0FDC390025BE09D9002B2
:101A53005AE09C5010EF122396E0FFA3E090025A45
:101A6300CFF0A3EFF0122391E0FCA3E0FDD39002AB
:101A73005DE09D90025CE09C4010EF122396E0FF36
:101A8300A3E090025CCFF0A3EFF0900255E004F0E6
:101A9300E06428708D9002561203B8C006C0079008
:101AA300025CE0FEA3E0FF90025BE02FFF90025A8E
:101AB300E03EAB07FAE4F9F8D007D00612025C90D7
:101AC30002561203D0E47B26FAF89002561203B8AA
:101AD3000202F5E4900250F0A3F0900319E0702B9A
:101AE30004F09002A3E0FF122897900250EFF0E079
:101AF30090031AF0E070079002AE04F08005E490C2
:101B030002AEF090031AE0FF1229C49002A3E0FF93
:101B1300122897900250EFF0122CDD6F6016122CF2
:101B2300DDD39F4008122CDD9FA3F08007122CD138
:101B3300900251F0900251E0C39402400E90031CB6
:101B4300E0948890031BE094134054900251E0B456
:101B5300010FC390031CE0942090031BE0944E40BC
:101B63003EE490031BF0A3F0122CD15005E004F0E7
:101B73008009D3122CD24003E014F090031AE070D2
:101B8300119002AEE07018FF1229C49002AE7401E6
:101B9300F022E49002AEF090031AE0FF1229C4226F
:101BA300900261EFF0A3EBF0E4900264120EB490A4
:101BB3000264F0E4900263F0900263E0FFC39407D1
:101BC3004003021C6D900262E06052120E4D8005CC
:101BD300C333CE33CED8F9FF900264E0FDEF5D60EE
:101BE3003C120F32C083C082900263E0D082D08364
:101BF300120F9A120E90C083C082120EF8C083C0D7
:101C030082900263E0D082D083120F9A120E4B802F
:101C130005C333CE33CED8F9120EAD803A120F324C
:101C2300C083C082900263E0D082D083120F9A12E5
:101C33000E90C083C082120EF8C083C082900263EC
:101C4300E0D082D083120F9A120E4B8005C333CE9D
:101C530033CED8F9120E9DFFD082D083EEF0A3EFDE
:101C6300F0900263E004F0021BBB22E4900250F008
:101C7300A3F0A31203DC00000000E47FF47E01FD67
:101C8300FC122B29C312039450069002E6E060680D
:101C93009002E6E0600EE4F09002D01203DC000054
:101CA3000000801D7F247EE97D017C009002E2120A
:101CB30003C412026A122B291202F59002D01203F6
:101CC300D09002E21203DC000000009002E712034E
:101CD300DC00000000E47FFF7EFFFDFC9002D012D9
:101CE30003C4C3120394400A9002D01203DC000021
:101CF300FFFF9002507401F0900250E06008E4F09E
:101D03009002D0122B199002521203B89002D612ED
:101D130003C4D312039440069002D6122B199002E7
:101D230051E0600CE4F0A31203B890029B1203D0BD
:101D330022900250120439C374089D90025EF09001
:101D43000257E0FFC374089F90025FF0C286C28708
:101D5300E4900258F0E490025AF0A3F090025CF091
:101D6300A3F01227C4C39F40121227C4900250123B
:101D730027AB90025AE5F0F0A3EFF090025F122731
:101D8300C7C39F401590025F1227C79002541227C2
:101D9300AB90025CE5F0F0A3EFF0E4900259F09011
:101DA300025AE0C330E701D3928590025CE0C3306E
:101DB300E701D392B4D28690025BE025E0F0900273
:101DC3005AE033F090025DE025E0F090025CE033EE
:101DD300F0C286900259E004F0E0B410C2900258B9
:101DE300E004F0E064086003021D58D287C287C292
:101DF30085C2B422900250EFF0A37401F0E4FF9087
:101E03000300E004F0900302E01460141460201453
:101E1300602A24037063900250E064A5706E800F03
:101E2300900302E004F0900250E0900301800590DB
:101E33000302E004F0E4900251F08050E490025178
:101E4300F0900301E0FE900300E0C39E403EE4FEF9
:101E5300900301E014FDEEC39D50091226A1E02F6B
:101E6300FF0E80EC900250E06F6006A37401F080D7
:101E73001B900302E004F080137BFF7A2E79B712E4
:101E830006D67A2E79D31226731206D6900251E023
:101E9300FF7016900250E0FE9002FFE024EB122642
:101EA300A4EEF09002FFE004F022900252EFF0ED76
:101EB300604A120FB4120E8EC083C082120E7224B7
:101EC3002DF582E43400120E498005C333CE33CEA0
:101ED300D8F9120EADFFD082D083120E7BC083C01F
:101EE30082120E722423F582E43401120E49800516
:101EF300C333CE33CED8F9120EAD804B90025212BB
:101F03000FB4120E8EC083C082120E72242DF5827E
:101F1300E43400120E498005C333CE33CED8F91210
:101F23000E9DFFD082D083120E7BC083C082120E1F
:101F3300722423F582E43401120E498005C333CEA3
:101F430033CED8F9120E9DFFD082D083EEF0A3EFEB
:101F5300F0229002831203B8900250E02FF0900217
:101F630088E0FF900250E02FF0900289E0FF90029A
:101F730050E02F227B017A027983E4F0A37407F007
:101F830022900283E4FFFEFDFC1203C4C302039408
:101F9300F078837C027D017B017A02798A22E090CA
:101FA3000289F0900291E0900288F09002832290DF
:101FB3000289E0900292F0900288E090029122F070
:101FC300788A7C027D017B017A027983221203B82D
:101FD3009002521203D090025622900287E0FF90A3
:101FE3000250E02290028EE0FF900251E02278FF3F
:101FF300E4F6D8FD9000007F007E08E4F0A3DFFC48
:10200300DEFA75812102204602261DE493A3F8E43B
:1020130093A34003F68001F208DFF48029E493A33D
:10202300F85407240CC8C333C4540F4420C8834056
:1020330004F456800146F6DFE4800B010204081025
:102043002040809009D0E47E019360BCA3FF543FFD
:1020530030E509541FFEE493A360010ECF54C0255D
:10206300E060A840B8E493A3FAE493A3F8E493A34D
:10207300C8C582C8CAC583CAF0A3C8C582C8CAC5B1
:1020830083CADFE9DEE780BEE4900250F09002D518
:10209300E0700A04F0122DE59002D4EFF0122DE562
:1020A300900250EFF07008A3F0A37432F0802F90E9
:1020B30002D4E0FF900250E0FED39F4005EE9FFF65
:1020C3008006122B2FC39FFFEFD394017E00500491
:1020D3007F6480027F32900251EEF0A3EFF0900212
:1020E30051E0FEA3E0FFC39002DFE09F9002DEE039
:1020F3009E4029E4F0A3F0122B2FFE9F5005E0042D
:10210300F08011EED39F400CEED394004006900272
:10211300D4E014F09002D4E0FF1221B12290029196
:10212300E0900250F0E0FB60059002938003900280
:10213300971203B89002511203D0EB7F0160027F24
:1021430000900255EFF0900292E064017029900232
:1021530055E0600D7F6D7E02120F8C7BE87A038061
:102163000B7F457E18120F8C7B107A27F9F8120229
:10217300F59002511203D07F9F7E867D017C0090F3
:1021830002511203C4D3120394400A900251120362
:10219300DC0001869F9002511203B8900255E09033
:1021A300025AF012186C900250E0FF022C8F90023A
:1021B30053EFF0C3941D4003741CF0E4900254F0F9
:1021C300900254E0FFC3941D5069900253E0C39FF3
:1021D3005027A3E0120FC0120E63C083C082120EF9
:1021E300722437F582E43400120E498005C333CEDE
:1021F30033CED8F9120E9D8028900254E0FF120FBF
:10220300C0120E63C083C082120E722437F582E4BB
:102213003400120E498005C333CE33CED8F9120EE3
:10222300ADFFD082D083EEF0A3EFF0900254E00430
:10223300F0808D22C3900314E094DB900313E094A9
:1022430001406DE4F0A3F09002AEE0601C90031037
:10225300E07008FF122DC5E4FD80087F01122DC533
:102263007D01E4FF121EAD80057F01122DC5900292
:10227300AFE0601A900310E07009FDFF12251CE423
:10228300FF800D7D01E4FF12251C7F0180027F0189
:10229300122D65900310E07003FF80027F01122B63
:1022A30077900310E07F0070027F01900310EFF03E
:1022B30022900257EEF0A3EFF0E4A3F0D3EF94C71C
:1022C300EE94004009900257E4F0A374C7F0900223
:1022D30057E0FAA3E0FB900259E004F07C007D0A8A
:1022E300AF03AE02120196AA06AB07EB4A70E7E40E
:1022F300FA900259E0FFEAC39FAF025019C00712D8
:102303000F6ED0077B0112115E120F6E900257EE13
:10231300F0A3EFF08006E4FBFD12115E0AEAB403BA
:10232300D022E4FB9002831203B8EF2401FFE43EC2
:10233300FEE43DFDE43CFC9002831203D090029244
:10234300121FA11203B8EB2FFB900288E02BFBA313
:10235300E02B900287121FC27E007F07120106E462
:10236300FF122A0B900255121F77E4FFFE12272E4D
:102373007F01122A0B121F9A900255121F7D7F8034
:102383007E0012272E7BFF7A2F795A0206D69002FF
:1023930055E0FF25E024FDF582E43401F58322E0D6
:1023A300FEA3D3E0FF9002A2E09F9002A1E09E2251
:1023B3009FFFE09E900253F0A3EFF0900253E0FEE4
:1023C300A3E0FFC3940AEE94002290029FE0FEA3D1
:1023D300E0FF2290029FE0FFA3E09001FBCF22C326
:1023E300EF9414EE940090025222E0FEA3E0FF7CEF
:1023F30000020468122D55122B59122C61122C78ED
:10240300C3900314E094FF900313E094FF5007E498
:1024130075F0011201EB900318E064016009E064B8
:10242300026004E0B4032CC3900312E094FF900312
:1024330011E094FF5007E475F0011201EBC3900320
:1024430016E094FF900315E094FF500BE475F00140
:102453000201EBE4122AA222E4900250F090030658
:1024630074A5F0EF24FC70519003077406F0A37475
:1024730004F09002A7E0900309F09002A8E0900313
:102483000AF0900307E0FF900306E02FFF90030894
:10249300E02FFFA3E02FFFA3E02FFEA3F0E49002C1
:1024A30050F07B017A0379067D0A1229E8900250E5
:1024B300E004F0E0C3940340E9229002CFE004F08B
:1024C300E0C39414402BE4F09002E075F001120194
:1024D300EBC39002E1E094589002E0E094024011D3
:1024E3009002E6E0700B9002E0F0A3F09002E604A5
:1024F300F0309622200A1C9002DA1203B8EF24016E
:10250300FFE43EFEE43DFDE43CFC9002DA1203D01E
:1025130012276DD20A22C20A22900250EFF0ED6018
:1025230025120FA0120E63C083C082120E72241FE5
:10253300F582E43400120E498005C333CE33CED87E
:10254300F9120EAD8026900250120FA0120E63C036
:1025530083C082120E72241FF582E43400120E49E6
:102563008005C333CE33CED8F9120E9DFFD082D06F
:1025730083EEF0A3EFF022C3900305E094D0900321
:1025830004E0940740497A2E79691226731206D61D
:102593007BFF7A2E799B1206D6E4900250F09002CC
:1025A300FFE0FF900250E0FEC39F50177BFF7A2E9F
:1025B30079AD1226A11226781206D6900250E004B5
:1025C300F080DB7BFF7A2E79B51206D6122CA5227A
:1025D300E4900317F0122AA2900318E0700B900204
:1025E300A1E0FEA3E0FF1227E7900292E0700BFF49
:1025F300122D0D7F01122AB6800AE4FF122AB67F3C
:1026030001122D0D122120900292E0FF122BCC908B
:1026130002A7E0FFA3E0FD02193CE490024FF01291
:102623002C1AD2AF12000312297A122D33122D4421
:10263300122E22122823122E56122E6312129B7B65
:10264300FF7A2F79701206D675AAA5121C6E121680
:10265300BE1213C312299F122DD5120FD1122A7243
:1026630080E69002EF7810E0FFE4FCFDFE0203A594
:102673007BFF900302E0FF90025AE4F0A3EFF02205
:10268300120387A804A905AA06AB07A3E0FFE4FC8D
:10269300FDFE229002EEE0FEA3E0FDEDFF2274EBCF
:1026A3002EF582E43402F58322C0E0C0F0C083C07B
:1026B30082C0D075D000C000C001C002C003C004F6
:1026C300C005C006C007758CF8758ACD122C32D0B0
:1026D30007D006D005D004D003D002D001D000D05B
:1026E300D0D082D083D0F0D0E032C0E0C0F0C0833D
:1026F300C082C0D075D000C000C001C002C003C0FA
:1027030004C005C006C007758DFF758BA41224BDD8
:10271300D007D006D005D004D003D002D001D0001A
:10272300D0D0D082D083D0F0D0E0329002521204C5
:1027330039AD07AC061229201229057402F0E4FF13
:10274300FED3900256E09F900255E09E40189002FF
:1027530052E475F00112042212012C90FC02F00FD6
:10276300BF00010E80DB122914229002E21203B88B
:102773009002DA1203C412024F9002E21203D090C5
:1027830002DA1203DC00000000122B299002E0E0C1
:10279300FEA3E0FFE4FCFD12024F9002E71203D018
:1027A300E49002E0F0A3F0229FFFE49400FEEF2503
:1027B300E0FFEE33FE1204198F828E83120217FF9D
:1027C3002290025EE0FF900258E0227B017A0279B8
:1027D300B0900254120439900257227E007D007B90
:1027E3000102063F900255EEF0A3EFF0900292E053
:1027F300700A900255E0FEA3E0FF8020900292E071
:10280300B4011C900255E0FEA3E0FF7C027D6D1233
:102813000468E47BE87A03F9F81202F51222B42281
:102823007F0E7A0279C01227DE7F107A0279B01206
:1028330027DE9080067402F0908005F090801CF0F3
:10284300908007F0C285C2B4C286C2871227CE74B5
:1028530007F07A0279C0FD021D349002591204393F
:102863001228FF7401F0E4FFFED390025DE09F9015
:10287300025CE09E401A90FC02E0FD900259E47570
:10288300F001120422ED1201720FBF00010E80D974
:1028930012291422EFD394104004EFB4FF04E4FE92
:1028A3008028EFD3942150047E01801EEFD394320D
:1028B30050047E028014EFD3944250047E03800AB6
:1028C300EFD394537E0550027E04AF0622C0E0C0CE
:1028D30083C082C0D075D000C007E59A30E00843BA
:1028E3009A01AF9B122A2EE59A30E105439A02C260
:1028F30009D007D0D0D082D083D0E032AC06E490A8
:10290300FC01F0EC90FC06F090FC05EFF090FC016C
:1029130022E490FC01F090FC0374AAF022E490FC02
:1029230001F090FC03742A22E004F0E0C3946422D3
:102933007E007F677D007B0102063FE0242CF58249
:10294300E43401F58322E02493F582E43401F58332
:1029530022EFC39402401FEFD394085019EF24FED3
:1029630033333354F84480F5ADE5AD30E0FBE5A2F5
:1029730054F84404F5A222C2097A01799312293347
:102983007A01792C1229339080097403F090800A1C
:10299300F0F59D759CFA759AD0D2AE222094047FEF
:1029A300018002E4FF122DB52095047F018002E42B
:1029B300FF122DA52082047F018002E4FF122E0462
:1029C30022AB07E4FAEBD39A5006AF02E4FD800C86
:1029D300C3EB9AD394004007AF027D01121EAD0AE8
:1029E300EAB405E122900251120439E4FEEEC39DDC
:1029F30050159002511204198E82758300120145FD
:102A0300FF122A500E80E622E490FC01F0EF75F0ED
:102A130080A4FDACF090FC03742AF0EC90FC06F06B
:102A2300AF0512290B740312291822900190122961
:102A33002B4002E4F090019012293EEFF0900192B6
:102A4300E004F0E0D3946440037464F0229001F74F
:102A530012292B4002E4F09001F7122949EFF0907C
:102A630001F9E004F0E0D3946440037464F022902D
:102A73000280E0601BC3900282E094D0900281E068
:102A83009407400CE4900280F0A3F0A3F0122325F6
:102A930022C3900312E09490900311E094012290DA
:102AA3000311F0A3F0900315F0A3F022900317E0B5
:102AB3007F0022EF9002C66012E04410F0A3E0F022
:102AC3009002C6E04420F0A3E0F022E054EFF0E0EF
:102AD30054DFF022900192E07002FF2290019112E4
:102AE300292B4002E4F090019112293EE0FF90016E
:102AF30092E014F0229001F9E07002FF229001F8B5
:102B030012292B4002E4F09001F8122949E0FF90CA
:102B130001F9E014F0221203B89002521203D0908C
:102B230002517401F0229002E70203C4900250E0C4
:102B3300FF9002D4E0229002A9E0FF122CE790025A
:102B4300AAE0FF122CFA9002ABE0FF122D209002B4
:102B5300ACE0FF022DF5900318E0600BE064016028
:102B630006E490024DF02290024DE0C394FF50031F
:102B7300E004F022EF9002BE600B120FAC9002BD96
:102B8300E04401F022E0547FF09002BDE054FEF0F7
:102B930022900303E06016C3900305E094FF9003C3
:102BA30004E094FF5007E475F0011201EB22900258
:102BB300CEE0C394194011E4F01227CE7408F07AE2
:102BC3000279C07D07121D3422AE07EE7008FF1292
:102BD3002D850F022D95EEB40109E4FF122D950FFB
:102BE300122D852290024EE0122396EEF0A3EFF011
:102BF30090024EE004F0E0C394284002E4F022EF98
:102C03009002C16009E04420F0E04440F022E05427
:102C1300DFF0E054BFF02275EFE17F061229544341
:102C2300A18075A941E4F5AC75AB4B75AAA52290BB
:102C33000323E0C394FF5003E004F0122C4A122351
:102C4300F7122E13022B94C3900322E094FF9003F8
:102C530021E094FF5007E475F0011201EB22C390C9
:102C630002DFE094FF9002DEE094FF5007E475F08A
:102C7300011201EB22C390031CE094FF90031BE0BD
:102C830094FF5007E475F0011201EB22AE07EE7FCB
:102C93000160027F00122C02EE7F0060027F0102BE
:102CA3002D75E4900300F09002FFF0900303F0A36E
:102CB300F0A3F0900302F022E4FDED122396EEF070
:102CC300A3EFF00DEDB428F2E490024EF022C3908E
:102CD3000250E0FF90031AE09F2290031AE0FF9056
:102CE3000250E022EF9002C86008E04401F0A3E044
:102CF300F022E054FEF022EF9002C66008E04404A4
:102D0300F0A3E0F022E054FBF022EF9002C660084B
:102D1300E04408F0A3E0F022E054F7F022EF900241
:102D2300C66008E04440F0A3E0F022E054BFF02284
:102D33005389FC438901758CF8758ACDD28CD2A94D
:102D4300225389CF438910758DFF758BA4D28ED200
:102D5300AB229002CEE0C394FFE494FF5003E0045F
:102D6300F022EF9002B76005E04480F022E0547F48
:102D7300F022EF9002CD6005E04401F022E054FE22
:102D8300F022EF9002C96005E04440F022E054BF16
:102D9300F022EF9002C96005E04480F022E0547F06
:102DA300F022EF9002C56005E04402F022E054FDFA
:102DB300F022EF9002C56005E04401F022E054FEEA
:102DC300F022EF9002C36005E04410F022E054EFDC
:102DD300F0229001F9E06009200906122AF8122E68
:102DE3003F22E47BF47A01F9F890029B1203B802C4
:102DF30002F5EF9002BC6004120FAC22E0547FF0A6
:102E030022EF9002C66004120FAC22E0547FF0223E
:102E1300900280E06008A3E475F0011201EB2290B8
:102E2300800C7401F090800DF0908002F0229002EB
:102E33007FEFF0122E3F90027FE0FF222009FDC2B8
:102E4300AE8F9BD209D2AE22900318EFF0E4900329
:102E530017F02290800E7401F022900192E0FF227D
:102E6300E4900318F022554152542072656365695A
:102E730076652070726F636573732074696D656F17
:102E830075742C2063757272656E7420737461742B
:102E930075733A2025750A0042756666657220636C
:102EA3006F6E74656E743A200A003078253032787C
:102EB30020000A00756172745F72656365697665E7
:102EC300725F70726F636573735F627974650A0012
:102ED300756172745F72656365697665722E73746A
:102EE3006120696E76616C69642C2076616C203D8B
:102EF3003D2025750A00427974652070726F636501
:102F03007373696E67206661696C65640A00637533
:102F130072207561727420726563656976657220CB
:102F23007374617475733A20253032750A007265C3
:102F330061642073617665206461746120706173DC
:102F4300730A00726561642073617665206461743D
:102F530061206572720A00696E737472756D656EB5
:102F6300745F696E666F5F736176650A0073797368
:072F730020696E69740A0079
:00000001FF
