:1000000002078C900107E04401F02202095E900192
:1000100037F0A3F090013BF0A3F02202099F53892F
:10002000FC438901758CF8758ACDD28CD2A9220245
:020030000B0CB7
:10003300020826E50824D0F582E43400F583E005C0
:1000430008229000CD3007039000D0E475F0011230
:10005300062A02039B2000E97F2ED2008018EF546A
:100063000F2490D43440D4FF30040BEF24BFB41AD0
:100073000050032461FFE50960021509050CE50C36
:100083007002050B30070E9000CDE475F0011206E7
:100093002AEF0203B4020B987403D2078003E4C26D
:1000A30007F5089000CD120641E4F509F50BF50CB0
:1000B300E50960077F2012007980F5750AFFC20108
:1000C300C200C202C203C205C206C208120045FF33
:1000D300700D3007057F0012008AAF0CAE0B22B4FF
:1000E300255FC2D5C204120045FF24D0B40A0050D4
:1000F3001A75F00A780930D50508B6FF0106C6A4BB
:1001030026F620D5047002D20380D924CFB41A0076
:10011300EF5004C2E5D20402028BD20180C6D200A2
:1001230080C0D20280BCD2D580BAD20580B47F20F1
:100133001200792002077401B5090040F11200365C
:10014300FF1200790200B3D208D20680951200365E
:10015300FB120036FA120036F94A4B7006795C7AC4
:10016300037BFF20022EE509602A7E008E827583C1
:100173000012067660060EEE650A70F0C2D5EBC07B
:10018300E0EAC0E0E9C0E0EE1202D2D0E0F9D0E04C
:10019300FAD0E0FB12039BFF60AAEBC0E0EAC0E0E9
:1001A300E9C0E0120079D0E02401F9D0E03400FA8C
:1001B300D0E0FBE50A0460DCD50AD980877BFF7AAF
:1001C3000279CED202809C791080027908C206C2DD
:1001D300088008D2D5790A8004790AC2D5E50A04D1
:1001E3007002F50AE4FAFDFEFF120036FC7B0820DC
:1001F3000113120036FD7B1030000A120036FE1286
:100203000036FF7B20EC3382D592D55013C3E43004
:1002130000069FFFE49EFEE42001039DFDE49CFC99
:10022300E4CBF8C201EC700CCFCECDCCE824F8F8C7
:1002330070F38017C3EF33FFEE33FEED33FDEC3382
:10024300FCEB33FB994002FB0FD8E9EB300105F8D7
:10025300D0E0C448B201C0E00AEC4D4E4F78207B99
:100263000070C2EAB50A0040BCC0E01202D4D0F06C
:10027300D0E0200104C4C0E0C4B201C0F0120062A7
:10028300D0F0D5F0EB0200B31206A301505301CA1C
:100293005801214C011D4201CE4F01D64401D649DC
:1002A30001364301DC5501C04601C04501C0470387
:1002B3007C5001252D01292E014C2B012D23014AB0
:1002C3002003652A00E548000001443F3F3F0079D1
:1002D3000AA2D5200314300509B910020404B90891
:1002E3000104A2D52006025001042002689202B53F
:1002F30009005034C0E07F203003197F30A202721E
:10030300067205500F12032BC202C206C205C208B1
:100313007F30800F300503E9C0E012007930050318
:10032300D0E0F9D0E0B509CC3005177F30B9100C17
:100333001200797F583004077F788003B9080312CD
:1003430000793002057F2D0200797F202008F87F95
:100353002B2006F322920280CF286E756C6C290045
:10036300D2011200363001F8C201780930D50108F4
:10037300F60200E52D504349581200362403B40514
:10038300004001E49003779312006A743A12006A02
:10039300D2037509040201CABB010689828A83E07C
:1003A300225002E722BBFE02E32289828A83E4937E
:1003B30022BB010689828A83F0225002F722BBFE08
:1003C30001F322EF8DF0A4A8F0CF8CF0A428CE8DFA
:1003D300F0A42EFE22BC000BBE0029EF8DF084FF9B
:1003E300ADF022E4CCF875F008EF2FFFEE33FEEC0E
:1003F30033FCEE9DEC984005FCEE9DFE0FD5F0E935
:10040300E4CEFD22EDF8F5F0EE8420D21CFEADF033
:1004130075F008EF2FFFED33FD4007985006D5F038
:10042300F222C398FD0FD5F0EA22C5F0F8A3E02825
:10043300F0C5F0F8E582158270021583E038F022EA
:10044300A3F8E0C5F025F0F0E5821582700215836C
:10045300E0C838F0E822BB0110E58229F582E58384
:100463003AF583E0F5F0A3E0225009E92582F88606
:10047300F008E622BBFE0AE92582F8E2F5F008E27D
:1004830022E5832AF583E993F5F0A3E99322EF2B81
:10049300FFEE3AFEED39FDEC38FC22E88FF0A4CCF8
:1004A3008BF0A42CFCE98EF0A42CFC8AF0EDA42C98
:1004B300FCEA8EF0A4CDA8F08BF0A42DCC3825F067
:1004C300FDE98FF0A42CCD35F0FCEB8EF0A4FEA952
:1004D300F0EB8FF0A4CFC5F02ECD39FEE43CFCEA5F
:1004E300A42DCE35F0FDE43CFC2275F008758200A6
:1004F300EF2FFFEE33FECD33CDCC33CCC58233C5E6
:10050300829BED9AEC99E58298400CF582EE9BFE76
:10051300ED9AFDEC99FC0FD5F0D6E4CEFBE4CDFAD1
:10052300E4CCF9A88222B800C1B90059BA002DEC75
:100533008BF084CFCECDFCE5F0CBF97818EF2FFF0D
:10054300EE33FEED33FDEC33FCEB33FB10D70399B5
:100553004004EB99FB0FD8E5E4F9FA227818EF2F62
:10056300FFEE33FEED33FDEC33FCC933C910D70581
:100573009BE99A4007EC9BFCE99AF90FD8E0E4C9A0
:10058300FAE4CCFB2275F010EF2FFFEE33FEED33D0
:10059300FDCC33CCC833C810D7079BEC9AE89940FD
:1005A3000AED9BFDEC9AFCE899F80FD5F0DAE4CD5F
:1005B300FBE4CCFAE4C8F922EB9FF5F0EA9E42F0A3
:1005C300E99D42F0E89C45F022E0FCA3E0FDA3E0B6
:1005D300FEA3E0FF22E0F8A3E0F9A3E0FAA3E0FB27
:1005E30022ECF0A3EDF0A3EEF0A3EFF022A88285B6
:1005F30083F0D083D0821206071206071206071271
:100603000607E473E493A3C583C5F0C583C8C58215
:10061300C8F0A3C583C5F0C583C8C582C822E0FB63
:10062300A3E0FAA3E0F922F8E0FBA3A3E0F925F0A5
:10063300F0E582158270021583E0FA38F022EBF0C0
:10064300A3EAF0A3E9F022EF4E6012EF60010EED92
:10065300BB010B89828A83F0A3DFFCDEFA2289F0D7
:100663005007F709DFFCA9F022BBFEFCF309DFFC0E
:10067300A9F022BB010CE58229F582E5833AF583D3
:10068300E0225006E92582F8E622BBFE06E9258230
:10069300F8E222E58229F582E5833AF583E49322A1
:1006A300D083D082F8E4937012740193700DA3A3E6
:1006B30093F8740193F5828883E4737402936860FA
:1006C300EFA3A3A380DF9000CD120641C374089D5E
:1006D3009000DBF09000D4E0FFC374089F9000DC2F
:1006E300F0C286C287E49000D5F0E49000D7F0A36F
:1006F300F09000D9F0A3F01209F9C39F4012120938
:10070300F99000CD1209E09000D7E5F0F0A3EFF0E7
:100713009000DC1209FCC39F40159000DC1209FC19
:100723009000D11209E09000D9E5F0F0A3EFF0E4D6
:100733009000D6F09000D7E0C330E701D3928590C4
:1007430000D9E0C330E701D392B4D2869000D8E059
:1007530025E0F09000D7E033F09000DAE025E0F0F8
:100763009000D9E033F0C2869000D6E004F0E0B404
:1007730010C29000D5E004F0E0640860030206EDC7
:10078300D287C287C285C2B42278FFE4F6D8FD902F
:1007930000007F007E08E4F0A3DFFCDEFA75812110
:1007A3000207E1020A92E493A3F8E493A34003F659
:1007B3008001F208DFF48029E493A3F85407240CA2
:1007C300C8C333C4540F4420C8834004F456800183
:1007D30046F6DFE4800B01020408102040809008F5
:1007E30087E47E019360BCA3FF543F30E509541FA7
:1007F300FEE493A360010ECF54C025E060A840B887
:10080300E493A3FAE493A3F8E493A3C8C582C8CA04
:10081300C583CAF0A3C8C582C8CAC583CADFE9DED7
:10082300E780BEC0E0C0F0C083C082C0D075D000F6
:10083300C000C003C004C005C006C007E59A30E08D
:1008430008439A01AF9B120B2FE59A30E11FE59AFB
:1008530054FC4402F59A900068E0FF900067E06F53
:100863006009A3120A1CE0F59B8002C20CD007D0DA
:1008730006D005D004D003D000D0D0D082D083D00E
:10088300F0D0E03242011400004E010600000000E7
:10089300000000000000000000005000F60000000F
:1008A3000000000000000000000000000041013FC4
:1008B300004801370000000000000000410136003D
:1008C3004201210000C109C10A4101160000900044
:1008D30068E0FD900067E0C39D5008E0FCC3ED9C19
:1008E300FE800FAE05ED2464FE900067E0FDC3EECD
:1008F3009DFEEED3940140D6C2AE900067120A1C4F
:10090300EFF0200C0ED2AE900068120A1CE0F59BAB
:10091300D20C22D2AE22120B6190013EE064016040
:1009230009E064026004E0B4032CC3900138E0944E
:10093300FF900137E094FF5007E475F00112042D96
:10094300C390013CE094FF90013BE094FF500BE423
:1009530075F00102042DE412000E22C0E0C0F0C0C5
:1009630083C082C0D075D000C000C001C002C003E4
:10097300C004C005C006C007758CF8758ACD120B7C
:1009830089D007D006D005D004D003D002D001D03F
:1009930000D0D0D082D083D0F0D0E032C0E0C0F01D
:1009A300C083C082C0D075D000C000C001C002C0E7
:1009B30003C004C005C006C007758DFF758BA41264
:1009C3000BA6D007D006D005D004D003D002D001A7
:1009D300D000D0D0D082D083D0F0D0E0329FFFE4DB
:1009E3009400FEEF25E0FFEE33FE1206218F828E88
:1009F30083120459FF229000DBE0FF9000D5E02230
:100A03007B017A0079F69000D11206419000D4223E
:100A13007E007D007B0102064AE004F0E075F0648D
:100A230084E5F0F0E02469F582E43400F58322E004
:100A33002401FFE433FE7C007D641203D8AF05ED8F
:100A4300F0E02400F582E43400F583227E007D008B
:100A53007B0102064A7F0E7A017906120A137F1080
:100A63007A0079F6120A139080067402F0908005DA
:100A7300F090801CF0908007F0C285C2B4C286C299
:100A830087120A037407F07A017906FD0206C91278
:100A93000B49D2AF120BAF120ABD12001E120B7814
:100AA300120A58120BB67BFF7A0B79BC1200A11203
:100AB300000375AAA512002F80F8C20C7F667A0086
:100AC3007967120A4F7F677A007900120A4F908084
:100AD300097403F090800AF0F59D759CFA759AD01D
:100AE300D2AE22EFC39402401FEFD394085019EF04
:100AF30024FE33333354F84480F5ADE5AD30E0FBE9
:100B0300E5A254F84404F5A222C3900115E0941918
:100B1300900114E094004013E4F0A3F0120A03746C
:100B230008F07A0179067D071206C922AB07900007
:100B330064120A32EBF0900066E004F0E0D39464B0
:100B430040037464F02275EFE17F06120AE643A1C5
:100B53008075A941E4F5AC75AB4B75AAA522C3908A
:100B63000115E094FF900114E094FF5007E475F041
:100B73000112042D225389CF438910758DFF758B84
:100B8300A4D28ED2AB2290013FE0C394FF5003E086
:100B930004F00209199000F5EFF01208D19000F566
:100BA300E0FF22A2B530B501B392B52290801D7447
:100BB30002F022E490013EF02273797320696E699A
:030BC300740A00B1
:00000001FF
