:0A000000020C7090801D7402F022C3
:10000B00020E539001E3F0A3F09001E7F0A3F0226E
:10001B00020E949001EDE0C394FF5003E004F01244
:10002B00107D120E0E020D6B020D0AE5082478F5F9
:10003B0082E43401F583E005082290017530070353
:10004B00900178E475F00112062A02039B2000E967
:10005B007F2ED2008018EF540F2490D43440D4FF5D
:10006B0030040BEF24BFB41A0050032461FFE509E1
:10007B0060021509050CE50C7002050B30070E909C
:10008B000175E475F00112062AEF0203B40210C6E3
:10009B007403D2078003E4C207F5089001751206BA
:1000AB0041E4F509F50BF50CE50960077F2012001B
:1000BB007980F5750AFFC201C200C202C203C205F4
:1000CB00C206C208120045FF700D3007057F0012F3
:1000DB00008AAF0CAE0B22B4255FC2D5C20412004E
:1000EB0045FF24D0B40A00501A75F00A780930D5B0
:1000FB000508B6FF0106C6A426F620D5047002D269
:10010B000380D924CFB41A00EF5004C2E5D2040205
:10011B00028BD20180C6D20080C0D20280BCD2D565
:10012B0080BAD20580B47F201200792002077401B7
:10013B00B5090040F1120036FF1200790200B3D26C
:10014B0008D2068095120036FB120036FA120036E2
:10015B00F94A4B7006795C7A037BFF20022EE50986
:10016B00602A7E008E8275830012067660060EEE84
:10017B00650A70F0C2D5EBC0E0EAC0E0E9C0E0EE82
:10018B001202D2D0E0F9D0E0FAD0E0FB12039BFFD1
:10019B0060AAEBC0E0EAC0E0E9C0E0120079D0E071
:1001AB002401F9D0E03400FAD0E0FBE50A0460DC6E
:1001BB00D50AD980877BFF7A0279CED202809C79CF
:1001CB001080027908C206C2088008D2D5790A804D
:1001DB0004790AC2D5E50A047002F50AE4FAFDFEB9
:1001EB00FF120036FC7B08200113120036FD7B103A
:1001FB0030000A120036FE120036FF7B20EC3382F1
:10020B00D592D55013C3E43000069FFFE49EFEE465
:10021B002001039DFDE49CFCE4CBF8C201EC700CC7
:10022B00CFCECDCCE824F8F870F38017C3EF33FFB3
:10023B00EE33FEED33FDEC33FCEB33FB994002FB6D
:10024B000FD8E9EB300105F8D0E0C448B201C0E0AB
:10025B000AEC4D4E4F78207B0070C2EAB50A004085
:10026B00BCC0E01202D4D0F0D0E0200104C4C0E046
:10027B00C4B201C0F0120062D0F0D5F0EB0200B3B3
:10028B001206A301505301CA5801214C011D420112
:10029B00CE4F01D64401D64901364301DC5501C08E
:1002AB004601C04501C047037C5001252D01292E75
:1002BB00014C2B012D23014A2003652A00E5480040
:1002CB000001443F3F3F00790AA2D52003143005BB
:1002DB0009B910020404B9080104A2D52006025082
:1002EB0001042002689202B509005034C0E07F205F
:1002FB003003197F30A20272067205500F12032BC6
:10030B00C202C206C205C2087F30800F300503E966
:10031B00C0E0120079300503D0E0F9D0E0B509CC8C
:10032B003005177F30B9100C1200797F5830040755
:10033B007F788003B908031200793002057F2D0204
:10034B0000797F202008F87F2B2006F32292028071
:10035B00CF286E756C6C2900D2011200363001F873
:10036B00C201780930D50108F60200E52D5043494A
:10037B00581200362403B405004001E49003779330
:10038B0012006A743A12006AD2037509040201CA98
:10039B00BB010689828A83E0225002E722BBFE0260
:1003AB00E32289828A83E49322BB010689828A83B2
:1003BB00F0225002F722BBFE01F322EF8DF0A4A82E
:1003CB00F0CF8CF0A428CE8DF0A42EFE22BC000B17
:1003DB00BE0029EF8DF084FFADF022E4CCF875F070
:1003EB0008EF2FFFEE33FEEC33FCEE9DEC9840054F
:1003FB00FCEE9DFE0FD5F0E9E4CEFD22EDF8F5F015
:10040B00EE8420D21CFEADF075F008EF2FFFED331C
:10041B00FD4007985006D5F0F222C398FD0FD5F09A
:10042B00EA22C5F0F8A3E028F0C5F0F8E5821582C2
:10043B0070021583E038F022A3F8E0C5F025F0F048
:10044B00E582158270021583E0C838F0E822BB0103
:10045B0010E58229F582E5833AF583E0F5F0A3E018
:10046B00225009E92582F886F008E622BBFE0AE94C
:10047B002582F8E2F5F008E222E5832AF583E99379
:10048B00F5F0A3E99322EF2BFFEE3AFEED39FDECED
:10049B0038FC22E88FF0A4CC8BF0A42CFCE98EF076
:1004AB00A42CFC8AF0EDA42CFCEA8EF0A4CDA8F0D1
:1004BB008BF0A42DCC3825F0FDE98FF0A42CCD3595
:1004CB00F0FCEB8EF0A4FEA9F0EB8FF0A4CFC5F0FF
:1004DB002ECD39FEE43CFCEAA42DCE35F0FDE43CF8
:1004EB00FC2275F008758200EF2FFFEE33FECD3343
:1004FB00CDCC33CCC58233C5829BED9AEC99E5828A
:10050B0098400CF582EE9BFEED9AFDEC99FC0FD515
:10051B00F0D6E4CEFBE4CDFAE4CCF9A88222B80005
:10052B00C1B90059BA002DEC8BF084CFCECDFCE5D0
:10053B00F0CBF97818EF2FFFEE33FEED33FDEC33F4
:10054B00FCEB33FB10D703994004EB99FB0FD8E579
:10055B00E4F9FA227818EF2FFFEE33FEED33FDECC2
:10056B0033FCC933C910D7059BE99A4007EC9BFCB8
:10057B00E99AF90FD8E0E4C9FAE4CCFB2275F01044
:10058B00EF2FFFEE33FEED33FDCC33CCC833C81069
:10059B00D7079BEC9AE899400AED9BFDEC9AFCE897
:1005AB0099F80FD5F0DAE4CDFBE4CCFAE4C8F922E4
:1005BB00EB9FF5F0EA9E42F0E99D42F0E89C45F096
:1005CB0022E0FCA3E0FDA3E0FEA3E0FF22E0F8A302
:1005DB00E0F9A3E0FAA3E0FB22ECF0A3EDF0A3EE2D
:1005EB00F0A3EFF022A8828583F0D083D08212068D
:1005FB0007120607120607120607E473E493A3C556
:10060B0083C5F0C583C8C582C8F0A3C583C5F0C533
:10061B0083C8C582C822E0FBA3E0FAA3E0F922F865
:10062B00E0FBA3A3E0F925F0F0E58215827002153B
:10063B0083E0FA38F022EBF0A3EAF0A3E9F022EF23
:10064B004E6012EF60010EEDBB010B89828A83F0C5
:10065B00A3DFFCDEFA2289F05007F709DFFCA9F0D3
:10066B0022BBFEFCF309DFFCA9F022BB010CE582E7
:10067B0029F582E5833AF583E0225006E92582F8D5
:10068B00E622BBFE06E92582F8E222E58229F58205
:10069B00E5833AF583E49322D083D082F8E4937018
:1006AB0012740193700DA3A393F8740193F58288D0
:1006BB0083E4737402936860EFA3A3A380DF41010B
:1006CB00E1004E01D300000000000000000000001C
:1006DB000000005001C300000000000000000000FB
:1006EB000000000000004A016B3F065B4F666D7D0A
:1006FB00077F6F603A00EB01040103010201010166
:10070B0000020F020E020D020C020B020A0209027A
:10071B00080207020602050204020302020201029A
:10072B0000030F030E030D030C000F030B030A034F
:10073B00094E0141050005010502050305040505E8
:10074B0005064E00DD040004010402040304040446
:10075B000504064E012507080709070A070B070CB6
:10076B00070D070E4E0133070107020703070407A6
:10077B0005070607074E014F06080609060A060B72
:10078B00060C060D060E4E015D060106020603065B
:10079B00040605060606074100CD004100CE0042C7
:1007AB0000CF00004100D1004200D200004100D434
:1007BB00004100D5004200D600004100D8004100A6
:1007CB00D9004100DA004200DB00004101ED004896
:1007DB0001E300000000000000004101E2004101C4
:1007EB00EE004201AE0000C109C10A4101A3004263
:1007FB0001EB0000009001A1E0FF25E02425F5822C
:10080B00E43401F583E025E024C3F582E43401F5FB
:10081B008322E0FCA3E0FDEF25E02426F582E434FF
:10082B0001F583E0FF7E007401A8070822E0FCA31A
:10083B00E0FDEF25E022F4FFEEF45CFEED5F22908D
:10084B0001A1E0FF25E02433F582E434012290017D
:10085B00A1E0FF25E0244FF582E43401229001A1B1
:10086B00E0FF25E0245DF582E4340122FFEC4EFE2F
:10087B00ED4F22E075F00A84ADF0E4FF22EEF0A319
:10088B00EFF09001A022EEF0A3EFF090000022E435
:10089B0075F00112042DC322746B2DF582E4340123
:1008AB00F583E022E075F00A84FD7F01222434F504
:1008BB0082E43401222450F582E4340122245EF5D3
:1008CB0082E4340122900000E0FF25E02441F58210
:1008DB00E4340122E0FF25E024DDF582E43400223C
:1008EB0025E024EBF582E4340022E004F0E0640719
:1008FB00221208A39001A2F0EF70799001A1F09061
:10090B0001A1E0FFC3940740030209F612083080EF
:10091B0005C333CE33CED8F9FF9001A2E0FDEF5DD6
:10092B00602112085912080EC083C08212083812B7
:10093B0008C012082C8005C333CE33CED8F9120869
:10094B0077801F12085912080EC083C08212083814
:10095B001208C012082C8005C333CE33CED8F9123F
:10096B000841FFD082D083EEF0A3EFF09001A1E01D
:10097B0004F0808BE49001A1F09001A1E0FFC394FF
:10098B000750681208308005C333CE33CED8F9FF39
:10099B009001A2E0FDEF5D602112086812080EC005
:1009AB0083C0821208381208C812082C8005C33382
:1009BB00CE33CED8F9120877801F12086812080EB2
:1009CB00C083C0821208381208C812082C8005C3D5
:1009DB0033CE33CED8F9120841FFD082D083EEF05C
:1009EB00A3EFF09001A1E004F0808E221208A390F7
:1009FB0001A2F0EF70679001A1F09001A1E0FFC39D
:100A0B0094074003020ADF1208308005C333CE334C
:100A1B00CED8F9FF9001A2E0FDEF5D60181208003F
:100A2B00C083C08212081D8005C333CE33CED8F9E4
:100A3B001208778016120800C083C08212081D802E
:100A4B0005C333CE33CED8F9120841FFD082D08301
:100A5B00EEF0A3EFF09001A1E004F0809DE4900193
:100A6B00A1F09001A1E0FFC39407506812083080F9
:100A7B0005C333CE33CED8F9FF9001A2E0FDEF5D75
:100A8B00602112084A12080EC083C0821208381265
:100A9B0008B812082C8005C333CE33CED8F9120810
:100AAB0077801F12084A12080EC083C082120838C2
:100ABB001208B812082C8005C333CE33CED8F912E6
:100ACB000841FFD082D083EEF0A3EFF09001A1E0BC
:100ADB0004F0808E2290019EEFF0A3EDF0E4A3F0E2
:100AEB009001A0120803C083C08212081D8005C3A9
:100AFB0033CE33CED8F9120841FFD082D0831208FF
:100B0B008812084D12080EC083C0821208381208D2
:100B1B00B812082C8005C333CE33CED8F912084156
:100B2B00FFD082D08312088812085C12080EC08393
:100B3B00C0821208381208C012082C8005C333CEAD
:100B4B0033CED8F9120841FFD082D0831208881215
:100B5B00086B12080EC083C0821208381208C81224
:100B6B00082C8005C333CE33CED8F9120841FFD001
:100B7B0082D0831208881208F56003020AEB9001F9
:100B8B009E12087E1209F790019E1208AF1209F708
:100B9B0090019F12087E1208FC90019F1208AF0271
:100BAB0008FC900175120641C374089D900183F0F7
:100BBB0090017CE0FFC374089F900184F0C286C251
:100BCB0087E490017DF0E490017FF0A3F090018128
:100BDB00F0A3F0120EEEC39F4012120EEE900175B1
:100BEB00120ED590017FE5F0F0A3EFF09001841287
:100BFB000EF1C39F4015900184120EF190017912F2
:100C0B000ED5900181E5F0F0A3EFF0E490017EF0BA
:100C1B0090017FE0C330E701D39285900181E0C35F
:100C2B0030E701D392B4D286900180E025E0F090BA
:100C3B00017FE033F0900182E025E0F0900181E04C
:100C4B0033F0C28690017EE004F0E0B410C2900154
:100C5B007DE004F0E064086003020BD1D287C28709
:100C6B00C285C2B42278FFE4F6D8FD9000007F0065
:100C7B007E08E4F0A3DFFCDEFA758121020CC502CD
:100C8B000F87E493A3F8E493A34003F68001F208E3
:100C9B00DFF48029E493A3F85407240CC8C333C4AE
:100CAB00540F4420C8834004F456800146F6DFE419
:100CBB00800B01020408102040809006C9E47E01DD
:100CCB009360BCA3FF543F30E509541FFEE493A38C
:100CDB0060010ECF54C025E060A840B8E493A3FA9E
:100CEB00E493A3F8E493A3C8C582C8CAC583CAF02A
:100CFB00A3C8C582C8CAC583CADFE9DEE780BEC008
:100D0B00E0C0F0C083C082C0D075D000C000C0036B
:100D1B00C004C005C006C007E59A30E008439A013D
:100D2B00AF9B12104BE59A30E11FE59A54FC44023D
:100D3B00F59A900068E0FF900067E06F6009A312DE
:100D4B000F11E0F59B8002C20CD007D006D005D066
:100D5B0004D003D000D0D0D082D083D0F0D0E032FA
:100D6B009000DB12089A9000DCE094F49000DBE03A
:100D7B0094014046E4F0A3F09000D8E0FFA3E0FD1F
:100D8B00120AE09000DAE0FF12100F9000DAE07F19
:100D9B000070027F019000DAEFF09000D8E004F0D1
:100DAB00A3E004F09000D8E0C394184002E4F09064
:100DBB0000D9E0C3943C4002E4F022900068E0FDCF
:100DCB00900067E0C39D5008E0FCC3ED9CFE800FD4
:100DDB00AE05ED2464FE900067E0FDC3EE9DFEEED4
:100DEB00D3940140D6C2AE900067120F11EFF020E2
:100DFB000C0ED2AE900068120F11E0F59BD20C22B4
:100E0B00D2AE221210B69001EAE064016009E064F0
:100E1B00026004E0B4032CC39001E4E094FF900162
:100E2B00E3E094FF5007E475F00112042DC3900129
:100E3B00E8E094FF9001E7E094FF500BE475F001BC
:100E4B0002042DE412000E22C0E0C0F0C083C08269
:100E5B00C0D075D000C000C001C002C003C004C028
:100E6B0005C006C007758CF8758ACD12001ED00719
:100E7B00D006D005D004D003D002D001D000D0D002
:100E8B00D082D083D0F0D0E032C0E0C0F0C083C0BD
:100E9B0082C0D075D000C000C001C002C003C00426
:100EAB00C005C006C007758DFF758BA41210D4D07A
:100EBB0007D006D005D004D003D002D001D000D08B
:100ECB00D0D082D083D0F0D0E0329FFFE49400FEEC
:100EDB00EF25E0FFEE33FE1206218F828E83120484
:100EEB0059FF22900183E0FF90017DE0227B017A84
:100EFB000179C390017912064190017C227E007D1D
:100F0B00007B0102064AE004F0E075F06484E5F032
:100F1B00F0E02469F582E43400F58322E02401FF3C
:100F2B00E433FE7C007D641203D8AF05EDF0E024C2
:100F3B0000F582E43400F583227E007D007B010204
:100F4B00064A7F0E7A0179D3120F087F107A017946
:100F5B00C3120F089080067402F0908005F0908009
:100F6B001CF0908007F0C285C2B4C286C287120EF5
:100F7B00F87407F07A0179D3FD020BAD121065D22C
:100F8B00AF120003120FC01210941210A5120F4DC6
:100F9B001210DD7BFF7A1079E61200A175AAA590DD
:100FAB0001EEE0600BE4F07BFF7A1079F01200A108
:100FBB001210E380E7C20C7F667A007967120F4448
:100FCB007F677A007900120F449080097403F090C8
:100FDB00800AF0F59D759CFA759AD0D2AE22EFC3BC
:100FEB009402401FEFD394085019EF24FE33333390
:100FFB0054F84480F5ADE5AD30E0FBE5A254F84480
:10100B0004F5A222EF9001D1600FE04480F0A3E041
:10101B00F09001D0E04401F022E0547FF09001D039
:10102B00E054FEF0229001E1E0C394194011E4F08A
:10103B00120EF87408F07A0179D37D07120BAD22EA
:10104B00AB07900064120F27EBF0900066E004F002
:10105B00E0D3946440037464F02275EFE17F0612D1
:10106B000FE943A18075A941E4F5AC75AB4B75AAAB
:10107B00A522C39001ECE094FF9001EBE094FF50AC
:10108B0007E475F00112042D225389FC4389017585
:10109B008CF8758ACDD28CD2A9225389CF43891073
:1010AB00758DFF758BA4D28ED2AB229001E1E0C37C
:1010BB0094FFE494FF5003E004F02290019DEFF0C5
:1010CB00120DC690019DE0FF22A2B530B501B3927F
:1010DB00B522E49001EAF022021030737973206993
:0B10EB006E69740A00746573740A00DB
:00000001FF
