:0500000002083332325A
:03000B0002097E69
:10001B00020673C0E0E5EE30E20375EE04E5EE3068
:0B002B00E10375EE02D0E0320208CDC8
:100043000200035389FC438901758CF8758ACDD26C
:040053008CD2A92280
:03005B000200049C
:10006B0002001EEC4D6011E8497017ED33EC3304C0
:10007B00600DE4FCFFFEFD22E933E8330470F80267
:10008B00021E1201E958046009E4CC2481500628B1
:10009B005009020228284003020225C0E0EB4A70F7
:1000AB0044B98006D0E0FB020214EF4E701CBD80F9
:1000BB0008EBFFEAFEE9FD80EBE98DF0A4FEE5F02D
:1000CB00020157E9CDF9EAFEEBFFEF89F0A4FCE55D
:1000DB00F0CE89F0A42EFFE435F0CD89F0A42DFEEF
:1000EB00E435F08067EF4E7005BD80D780C3EF8B92
:1000FB00F0A4ACF0EE8BF0A42CFCE435F0F8EF8A16
:10010B00F0A42CE5F038FCE433CB8DF0A42CFCE50B
:10011B00F03BF8EE8AF0A42CFCE5F038F8E433CF92
:10012B0089F0A42CFCE5F038CF3400CE89F0A42F55
:10013B00FFE5F03EFEE433C98DF0A42EFEE5F03969
:10014B00CD8AF0A42FFFE5F03EFEE43DFD33D0E079
:10015B00FB50070BBB000F020228EC2CFCEF33FF0C
:10016B00EE33FEED33FD02020075F020800E75F0CC
:10017B0010800575F0087D007E007F003392D5302E
:10018B00D503120404EC334010EF33FFEE33FEEDD6
:10019B0033FDEC33FCD5F0ED22E5F0247EA2D51334
:1001AB00CC92E7CDCEFF22EDD2E7CD33EC3392D517
:1001BB0024814006E4FFFEFDFC22FCE4CFCECDCC37
:1001CB0024E0501174FF80EDC3CC13CCCD13CDCEF6
:1001DB0013CECF13CF0470F030D5DE020404E9D276
:1001EB00E7C933E833F892D5EDD2E7CD33EC33FCE6
:1001FB005002B2D522EC30E7100FBF000C0EBE0040
:10020B00080DBD00040BEB6014A2D5EB13FCED92B3
:10021B00E7FD2274FFFCFDFEFF22E480F8A2D574FB
:10022B00FF13FC7D80E480EFBB010689828A83E0AB
:10023B00225002E722BBFE02E32289828A83E493E7
:10024B0022BB010689828A83F0225002F722BBFE71
:10025B0001F322EF8DF0A4A8F0CF8CF0A428CE8D63
:10026B00F0A42EFE22BC000BBE0029EF8DF084FF04
:10027B00ADF022E4CCF875F008EF2FFFEE33FEEC77
:10028B0033FCEE9DEC984005FCEE9DFE0FD5F0E99E
:10029B00E4CEFD22EDF8F5F0EE8420D21CFEADF09D
:1002AB0075F008EF2FFFED33FD4007985006D5F0A2
:1002BB00F222C398FD0FD5F0EA22C5F0F8A3E0288F
:1002CB00F0C5F0F8E582158270021583E038F02254
:1002DB00A3F8E0C5F025F0F0E582158270021583D6
:1002EB00E0C838F0E822BB0110E58229F582E583EE
:1002FB003AF583E0F5F0A3E0225009E92582F88670
:10030B00F008E622BBFE0AE92582F8E2F5F008E2E6
:10031B0022E5832AF583E993F5F0A3E9932275F09F
:10032B0008758200EF2FFFEE33FECD33CDCC33CCEF
:10033B00C58233C5829BED9AEC99E58298400CF50A
:10034B0082EE9BFEED9AFDEC99FC0FD5F0D6E4CE38
:10035B00FBE4CDFAE4CCF9A88222B800C1B900596C
:10036B00BA002DEC8BF084CFCECDFCE5F0CBF97839
:10037B0018EF2FFFEE33FEED33FDEC33FCEB33FBCD
:10038B0010D703994004EB99FB0FD8E5E4F9FA2257
:10039B007818EF2FFFEE33FEED33FDEC33FCC93352
:1003AB00C910D7059BE99A4007EC9BFCE99AF90F1A
:1003BB00D8E0E4C9FAE4CCFB2275F010EF2FFFEE86
:1003CB0033FEED33FDCC33CCC833C810D7079BECD1
:1003DB009AE899400AED9BFDEC9AFCE899F80FD549
:1003EB00F0DAE4CDFBE4CCFAE4C8F922EF4BFFEEF4
:1003FB004AFEED49FDEC48FC22C3E49FFFE49EFE60
:10040B00E49DFDE49CFC22E8600FEFC333FFEE3369
:10041B00FEED33FDEC33FCD8F122E6FC08E6FD08DB
:10042B00E6FE08E6FF22E0FCA3E0FDA3E0FEA3E06E
:10043B00FF22ECF608EDF608EEF608EFF622ECF0EC
:10044B00A3EDF0A3EEF0A3EFF022D083D082E493E0
:10045B00F608740193F608740293F608740393F686
:10046B00740473A8828583F0D083D0821204851222
:10047B000485120485120485E473E493A3C583C534
:10048B00F0C583C8C582C8F0A3C583C5F0C583C8B2
:10049B00C582C822E0FBA3E0FAA3E0F922F8E0FB57
:1004AB00A3A3E0F925F0F0E582158270021583E035
:1004BB00FA38F022EBF0A3EAF0A3E9F022D083D0D4
:1004CB0082F8E4937012740193700DA3A393F874E4
:1004DB000193F5828883E4737402936860EFA3A39E
:1004EB00A380DFEF4E6012EF60010EEDBB010B89B5
:1004FB00828A83F0A3DFFCDEFA2289F05007F7092A
:10050B00DFFCA9F022BBFEFCF309DFFCA9F02242C1
:10051B00010300004E00F500000000000000000089
:10052B0000000000005000E500000000000000008B
:10053B000000000000000000015600015D000130CA
:10054B0000013400012C00015500015B0001620029
:10055B00016900016800016A000437000000000116
:10056B006100015F00015800015C0001650001673B
:10057B0000016300012800012900012A00012B0062
:10058B00015900022D00000226000002310000017B
:10059B003300013500013600016B00016400015A84
:1005AB0000015E00014900014A00012F00015700C4
:1005BB00013B000166000160004100CA004100E000
:1005CB00004100E2004200E300004100C80041008E
:1005DB00CB004100E100C127C112C100C122C12BD8
:1005EB00C113C11EC11DC10EC126C11BC124C10631
:1005FB00C103C110C114C12CC109C111C11AC11948
:10060B00C115C11CC107C117C121C129C105C10831
:10061B00C116C10BC128C11FC120C123C12AC118DA
:10062B00C125C10AC10FC102C10CC10DC104C10159
:10063B004B00BD3F065B4F666D7D077F6F404500EE
:10064B00B8065B66665B410136004101370042012B
:10065B0034000041013800410133004100B7004133
:10066B0000B5004100B60000C0E0C0F0C083C082FE
:10067B00C0D075D000C000C004C005C006C007754F
:10068B008DF8758BCD782DE6FE08E6FF7826E6FC17
:10069B0008E6FD6F7002EC6E6055D3ED9FEC9E404B
:1006AB001A782E740226F618E436F6E6FE08E6FFF4
:1006BB00C3ED9FEC9E50267826801D782E74FE2667
:1006CB00F61874FF36F6D3ED0896EC1896400E78B4
:1006DB0026E6FE08E6FF782DA60608A60775C003DA
:1006EB00782DE6FC08E6FDECF5D18DDF75D9089089
:1006FB000134E475F0011202C5C3900135E0940595
:10070B00900134E094004048E4F0A3F0900136E00F
:10071B004401F0D20AD20E900138E004F0E09405C7
:10072B00402EE4F0900136E04404F0900133E004F5
:10073B00F0E020E009900136E04408F0D21290017D
:10074B0033E0C394044009E4F0900136E04410F028
:10075B00D007D006D005D004D000D0D0D082D08323
:10076B00D0F0D0E0329001231204BFC374089D90E7
:10077B000131F090012AE0FFC374089F900132F021
:10078B00C286C287E490012BF0E490012DF0A3F018
:10079B0090012FF0A3F012095BC39F401212095B6B
:1007AB0090012312094290012DE5F0F0A3EFF09098
:1007BB00013212095EC39F401590013212095E90FF
:1007CB00012712094290012FE5F0F0A3EFF0E4901E
:1007DB00012CF090012DE0C330E701D392859001FD
:1007EB002FE0C330E701D392B4D28690012EE025DF
:1007FB00E0F090012DE033F0900130E025E0F09037
:10080B00012FE033F0C28690012CE004F0E0B4102D
:10081B00C290012BE004F0E064086003020794D25D
:10082B0087C287C285C2B42278FFE4F6D8FD900058
:10083B00007F007E08E4F0A3DFFCDEFA75816B021B
:10084B000888020B2EE493A3F8E493A34003F680ED
:10085B0001F208DFF48029E493A3F85407240CC8B1
:10086B00C333C4540F4420C8834004F4568001465C
:10087B00F6DFE4800B010204081020408090051A7B
:10088B00E47E019360BCA3FF543F30E509541FFE87
:10089B00E493A360010ECF54C025E060A840B8E4F8
:1008AB0093A3FAE493A3F8E493A3C8C582C8CAC57B
:1008BB0083CAF0A3C8C582C8CAC583CADFE9DEE70D
:1008CB0080BEC0E0C0F0C083C082C0D075D000C075
:1008DB0000C003C004C005C006C007E59A30E0089D
:1008EB00439A01AF9B120AFDE59A30E11FE59A543A
:1008FB00FC4402F59A900068E0FF900067E06F609F
:10090B0009A31209FEE0F59B8002C22DD007D00689
:10091B00D005D004D003D000D0D0D082D083D0F07B
:10092B00D0E0327E007D007F0E7B017A0079F512DC
:10093B0004EE7E007F10229FFFE49400FEEF25E083
:10094B00FFEE33FE12049F8F828E831202F1FF2281
:10095B00900131E0FF90012BE0227B017A0079E5D9
:10096B009001271204BF90012A227B017A0079E5BE
:10097B000204EEC0E0C0F0C083C082C0D075D000CE
:10098B00C000C001C002C003C004C005C006C00740
:10099B00758CF8758ACD120B17D007D006D005D001
:1009AB0004D003D002D001D000D0D0D082D083D0DD
:1009BB00F0D0E032C3900104E094F4900103E09492
:1009CB0001402FE4F0A3F09000F5E07002A3E0707B
:1009DB000AFE7DFF1209327DFF800512092E7D0074
:1009EB001209751209657408F07A0079F57D071202
:1009FB00077022E004F0E075F01484E5F0F0E024D9
:100A0B0069F582E43400F58322E02401FFE433FE30
:100A1B007C007D64120270AF05EDF0E02400F582DE
:100A2B00E43400F583227E007D007B010204EE128C
:100A3B00092E7D001209759080067402F0908005D6
:100A4B00F090801CF0908007F0C285C2B4C286C2C1
:100A5B00871209657407F07A0079F5FD020770C2F9
:100A6B002D7F167A007967120A317F677A00790039
:100A7B00120A319080097403F090800AF0F59D758D
:100A8B009CFA759AD0D2AE22EFC39402401FEFD3DB
:100A9B0094085019EF24FE33333354F84480F5ADEA
:100AAB00E5AD30E0FBE5A254F84404F5A22290FC3E
:100ABB00017480F0E490FC06F090FC057424F09037
:100ACB00FC017481F090FC02E0FFE490FC01F02249
:100ADB0075EFE17F06120A9343A18075A941E4F5F6
:100AEB00AC75AB4B75AAA5120AB9E5BB54C04FF553
:100AFB00BB22AB07900064120A14EBF0900066E087
:100B0B0004F0E0D3946440037464F022C3900104B6
:100B1B00E094FF900103E094FF5007E475F001129D
:100B2B0002C522120ADBD2AF120A6A120046120A5F
:090B3B003A75AAA51209BF80F861
:00000001FF
