:0A000000021D3F90800E7401F022F3
:10000B000223E2E4900250F0A3F090024F04F0229E
:10001B00022423EF9002976008E04402F0A3E0F083
:06002B0022E054FDF0226A
:100033000226A8E709F608DFFA8046E709F208DF97
:10004300FA803E88828C83E709F0A3DFFA8032E3EB
:1000530009F608DFFA8078E309F208DFFA8070888E
:10006300828C83E309F0A3DFFA806489828A83E0C8
:10007300A3F608DFFA805889828A83E0A3F208DFB7
:10008300FA804C80D280FA80C680D4806980F28066
:1000930033801080A680EA809A80A880DA80E2808C
:1000A300CA803389828A83ECFAE493A3C8C582C8E1
:1000B300CCC583CCF0A3C8C582C8CCC583CCDFE94B
:1000C300DEE7800D89828A83E493A3F608DFF9ECE7
:1000D300FAA9F0EDFB2289828A83ECFAE0A3C8C572
:1000E30082C8CCC583CCF0A3C8C582C8CCC583CC99
:1000F300DFEADEE880DB89828A83E493A3F208DF08
:10010300F980CC88F0EF60010E4E60C388F0ED24D7
:1001130002B4040050B9F582EB2402B4040050AFDA
:10012300232345822390008673BB010689828A8339
:10013300E0225002E722BBFE02E32289828A83E4A3
:100143009322BB010CE58229F582E5833AF583E02E
:10015300225006E92582F8E622BBFE06E92582F84D
:10016300E222E58229F582E5833AF583E49322BB13
:10017300010689828A83F0225002F722BBFE01F333
:1001830022EF8DF0A4A8F0CF8CF0A428CE8DF0A49C
:100193002EFE22BC000BBE0029EF8DF084FFADF0D4
:1001A30022E4CCF875F008EF2FFFEE33FEEC33FCBE
:1001B300EE9DEC984005FCEE9DFE0FD5F0E9E4CEF4
:1001C300FD22EDF8F5F0EE8420D21CFEADF075F0C3
:1001D30008EF2FFFED33FD4007985006D5F0F222CC
:1001E300C398FD0FD5F0EA22C5F0F8A3E028F0C5C7
:1001F300F0F8E582158270021583E038F022A3F847
:10020300E0C5F025F0F0E582158270021583E0C8A1
:1002130038F0E822BB0110E58229F582E5833AF53F
:1002230083E0F5F0A3E0225009E92582F886F0087F
:10023300E622BBFE0AE92582F8E2F5F008E222E5B0
:10024300832AF583E993F5F0A3E99322EF2BFFEEDD
:100253003AFEED39FDEC38FC22C3EF9BFFEE9AFE2C
:10026300ED99FDEC98FC22E88FF0A4CC8BF0A42C44
:10027300FCE98EF0A42CFC8AF0EDA42CFCEA8EF0B1
:10028300A4CDA8F08BF0A42DCC3825F0FDE98FF098
:10029300A42CCD35F0FCEB8EF0A4FEA9F0EB8FF08F
:1002A300A4CFC5F02ECD39FEE43CFCEAA42DCE3517
:1002B300F0FDE43CFC2275F008758200EF2FFFEEA1
:1002C30033FECD33CDCC33CCC58233C5829BED9A7F
:1002D300EC99E58298400CF582EE9BFEED9AFDECDD
:1002E30099FC0FD5F0D6E4CEFBE4CDFAE4CCF9A823
:1002F3008222B800C1B90059BA002DEC8BF084CF2B
:10030300CECDFCE5F0CBF97818EF2FFFEE33FEED01
:1003130033FDEC33FCEB33FB10D703994004EB992B
:10032300FB0FD8E5E4F9FA227818EF2FFFEE33FE3E
:10033300ED33FDEC33FCC933C910D7059BE99A4073
:1003430007EC9BFCE99AF90FD8E0E4C9FAE4CCFB8B
:100353002275F010EF2FFFEE33FEED33FDCC33CCDF
:10036300C833C810D7079BEC9AE899400AED9BFD68
:10037300EC9AFCE899F80FD5F0DAE4CDFBE4CCFA7B
:10038300E4C8F922EF4BFFEE4AFEED49FDEC48FCD1
:1003930022EB9FF5F0EA9E42F0E99D42F0E89C458E
:1003A300F022E8600FEFC333FFEE33FEED33FDECD5
:1003B30033FCD8F122E0FCA3E0FDA3E0FEA3E0FFC1
:1003C30022E0F8A3E0F9A3E0FAA3E0FB22ECF0A318
:1003D300EDF0A3EEF0A3EFF022A8828583F0D083A3
:1003E300D0821203F31203F31203F31203F3E47341
:1003F300E493A3C583C5F0C583C8C582C8F0A3C56C
:1004030083C5F0C583C8C582C822A42582F582E5C9
:10041300F03583F58322E0FBA3E0FAA3E0F922F8A9
:10042300E0FBA3A3E0F925F0F0E582158270021545
:1004330083E0FA38F022EBF0A3EAF0A3E9F022D04C
:1004430083D082F8E4937012740193700DA3A39385
:10045300F8740193F5828883E4737402936860EF00
:10046300A3A3A380DFEC8EF0A4CCC5F0CCCDF8EF32
:10047300A4CEC5F02DFDE43CFCE8A42EC8C5F03D98
:10048300FDE43CFCEFA4FFE5F028FEE43DFDE43C85
:10049300FC22E3F5F009E208B5F06BDFF58067E3D2
:1004A300F5F009E608B5F05EDFF5805A87F009E656
:1004B30008B5F052DFF6804E87F009E208B5F04642
:1004C300DFF6804288828C8387F009E0A3B5F0369B
:1004D300DFF6803288828C8387F009E493A3B5F03A
:1004E30025DFF5802188828C83E3F5F009E0A3B54D
:1004F300F014DFF5801088828C83E3F5F009E49330
:10050300A3B5F002DFF40205C4808780E980908000
:10051300D4803E8015806E807E809D80B7808D80E4
:10052300A380518074803C0205D089828A83ECFACF
:10053300E493F5F0A3C8C582C8CCC583CCE493A3E8
:10054300C8C582C8CCC583CCB5F076DFE3DEE180D5
:100553007089828A83E493F5F0A3E208B5F062DF41
:10056300F4805E89828A83E0F5F0A3E608B5F05152
:10057300DFF5804D89828A83E0F5F0A3E208B5F0C8
:1005830040DFF5803C89828A83E493F5F0A3E60893
:10059300B5F02EDFF4802A8002805789828A83ECAB
:1005A300FAE493F5F0A3C8C582C8CCC583CCE0A315
:1005B300C8C582C8CCC583CCB5F006DFE4DEE280D3
:1005C300007FFFB5F0020F2240027F012289828A59
:1005D30083ECFAE0F5F0A3C8C582C8CCC583CCE0B0
:1005E300A3C8C582C8CCC583CCB5F0D5DFE5DEE3AF
:1005F30080CF89828A83ECFAE0F5F0A3C8C582C86C
:10060300CCC583CCE493A3C8C582C8CCC583CCB581
:10061300F0AFDFE4DEE280A988F0EF60010E4E6008
:10062300ABED2402B404005098F582EB2402B40429
:1006330000508E232345822390050C73EF4E6012E6
:10064300EF60010EEDBB010B89828A83F0A3DFFC0F
:10065300DEFA2289F05007F709DFFCA9F022BBFE7E
:10066300FCF309DFFCA9F02241029D004E028F003A
:100673000000000000000000000000000050027FA6
:100683000000000000000000000000000000000067
:100693004A00D23F065B4F666D7D077F6F603A006D
:1006A3003601040103010201010100020F020E02DF
:1006B3000D020C020B020A020902080207020602DB
:1006C3000502040203020202010200030F030E03E8
:1006D3000D030C000F030B030A03094E008C0500E6
:1006E3000501050205030504050505064E001E0464
:1006F300000401040204030404040504064E00700C
:1007030007080709070A070B070C070D070E4E001A
:100713007E07010702070307040705070607074EBD
:1007230000B606080609060A060B060C060D060E99
:100733004E00C40601060206030604060506060665
:1007430007604600DC050F040004010402040304EF
:10075300040405050705080509050A050B050C052D
:100763000D0500050105020503050405050506063B
:1007730009060A060B060C060D060E060F060206F0
:1007830003060406050606060706084E009A030339
:100793000304030503060307030803094E00A80423
:1007A3000C040D040E040F0300030103024A002C82
:1007B300020B020C020F010001034A0122020A028A
:1007C3000D020E010101024100000041000100423F
:1007D3000002000041000400420005000041000740
:1007E3000041000800420009000041000B004100E5
:1007F3000C0041000D0042000E00004200100000FA
:1008030042001200004200140000420016000041A2
:10081300001800420019000042001B000041001DA7
:100823000042030600005F026000000000000000B9
:1008330000000000000000000000000000000000B5
:10084300000000000000000041024F00420250007F
:100853000047025200000000000000470259000058
:1008630000000000005B02BA00000000000000006E
:100873000000000000000000000000000000000075
:100883000000004A02EB000000000000000000002E
:100893004202AD0000C10141029E0044029F0000DC
:1008A30000004102A3004102A4004802F600000038
:1008B30000000000004102F50041024D00605001BC
:1008C300FD00000000000000000000000000000028
:1008D3000000000000000000000000000000000015
:1008E3000000000000000000000000000000000005
:1008F30000000000000000000000000000000000F5
:1009030000000000000000000000000000000000E4
:100913000041024E004101FA004102FE004102FF84
:10092300004203040000410302004103030000905E
:1009330002FDE0600BE064016006E49001FAF0223E
:100943009001FAE0704404F090026EE0FFA3E0909F
:100953000270CFF0A3EFF01221ACF0A3EFF09002FE
:1009630070E0FEA3E0FF12255C1221A3122ADE90A1
:100973000261E0700BFF122B437F011228BA800A39
:10098300E4FF1228BA7F01122B4390024DE0C39477
:100993004B5003020AD0E4F090026E1221784044D7
:1009A3001221A3900271E090027012218950030278
:1009B3000A40EF9432EE940040089002D87414F089
:1009C300800D1221B84005740AF080037405F0907D
:1009D30002D8E0FFC3900271E09FF0900270E094B0
:1009E30000F0804990026EE0FEA3C312217C504DBB
:1009F300E0FEA3E0FFC390026FE090026E12218934
:100A0300403BEF9432EE940040089002D87414F007
:100A1300800D1221B84005740AF080037405F0902C
:100A230002D8E0FF900270E48FF01201EB1221A3D1
:100A3300122ADE1221ACF0A3EFF0020AC51221A3A1
:100A4300122A0B1217589002D6EEF0A3EFF0C390C0
:100A530002D7E0940A9002D6E0940050051221AF29
:100A6300802A9001FB7D031221C3C004A905AA06B5
:100A7300AB079002D67D071221C3D00012024FE4C8
:100A83007B0AFAF9F81202F59001FBEEF0A3EFF0FE
:100A93009001FBE0FFA3E09002D6CFF0A3EFF0902C
:100AA30002D6122178400674FFF5F080129002D628
:100AB300E0FEA3E0FFC312217E5007E475F00112AC
:100AC30001EB900270E0FEA3E0FF12255C22E0FC44
:100AD300A3E0FDEF25E02471F582E43400F583E023
:100AE300FF7E007401A80708229002D9E0FF25E0E9
:100AF3002470F582E43400F583E025E0247FF58259
:100B0300E43402F58322E0FCA3E0FDEF25E022EECE
:100B1300F0A3EFF09002D8E0FF25E02422F582E471
:100B23003401F583E025E0248FF582E43402F58374
:100B330022F4FFEEF45CFEED5F22E475F0010201A6
:100B4300EBFFEC4EFEED4F22F074D22DF582E43430
:100B530000F583E0229002D9E0FF25E0247EF582B0
:100B6300E43400229002D9E0FF25E024B6F582E4C4
:100B73003400229002D9E0FF25E024C4F582E43456
:100B83000022E075F00A84ADF0E4FF22E0FCA3E06C
:100B9300FDEF75F00EA424DDF582E43400F5832225
:100BA300E47B0AFAF9F89002DC1203B81202F5AFFB
:100BB30003AD0722EEF0A3EFF09002D822EEF0A3EC
:100BC300EFF09002D6229002E7E0FF75F00EA42426
:100BD300DCF582E43400F58322E075F00A84FD7FBE
:100BE3000122247FF582E434002224B7F582E43421
:100BF300002224C5F582E43400229002E2E0FF25BE
:100C0300E0229002DDE0FEA3E0FF7C007D0A02010A
:100C1300969002D7E0FF25E0248CF582E43400228D
:100C2300E4FDFC9002D71203C412026AE42275F0B9
:100C33000202040DE0FF25E0241EF582E4340022C5
:100C4300E04480F0A3E0F022E0FF25E0242CF582CD
:100C5300E434002225E02436F582E4340022E00463
:100C6300F0E06407229002D2E06003122B69122C99
:100C7300A6EF7003020DD91228DB9002D27401F0A3
:100C8300E4A3F0A3F0121EFFEF6003122AC8900240
:100C9300D1E064046003020DD99002BCE012044267
:100CA3000CCE010CD9030CE1040CF4050D00060D68
:100CB3000E070D52080D9C090DA60A0DB00E0DBAB4
:100CC300100DC4110DCE1200000DD69002BDE090A0
:100CD3000273F0020DD6122724900274802590022D
:100CE300BDE0900276F09002BEE0900277F0020D34
:100CF300D6122724E4FCFD9002A5020D97122724A7
:100D030090026EEEF0A3EFF0020DD6122703C0049B
:100D1300C005C006C0079002BD7818122708D0038B
:100D2300D002D001D000120387C004C005C006C0A2
:100D3300079002BF12271D78081203A5D003D00223
:100D4300D001D0001227111203879002628045124E
:100D53002703C004C005C006C0079002BD12271DAB
:100D630078181203A5D003D002D001D00012038754
:100D7300C004C005C006C0079002BF12271D780833
:100D83001203A5D003D002D001D000122711120301
:100D9300879002661203D0803A9002BDE0900278F9
:100DA300F080309002BDE0900279F080269002BD81
:100DB300E090027AF0801C9002BDE090027BF0800C
:100DC300129002BDE0900272F080089002BDE090A4
:100DD300027CF0122AC8229002E1EBF09002E0EFCD
:100DE300120B4B9002E3F0EF14600D147003020E2C
:100DF300F324026003020F16E49002E2F09002E291
:100E0300E0FFC394074003020F169002E1E0607114
:100E1300120AE48005C333CE33CED8F9FF9002E340
:100E2300E0FDEF5D605B9002E0E07029120BFD24B2
:100E33009AF582E43400120B25C083C082120B0999
:100E4300249BF582E43400120AE08005C333CE33D9
:100E5300CED8F98027120BFD24A8F582E4340012C2
:100E63000B25C083C082120B0924A9F582E4340048
:100E7300120AE08005C333CE33CED8F9120B448077
:100E83005C9002E0E0702C120BFD249AF582E434AE
:100E930000120B25C083C082120B09249BF582E448
:100EA3003400120AE08005C333CE33CED8F9120BD7
:100EB30034802A120BFD24A8F582E43400120B259A
:100EC300C083C082120B0924A9F582E43400120AFC
:100ED300E08005C333CE33CED8F9120B34FFD08272
:100EE300D083EEF0A3EFF09002E2E004F0020E00F4
:100EF3009002E1E09002976012E04404F0A3E0F076
:100F0300900297E04408F0A3E0F022E054FBF0E005
:100F130054F7F0229002FDE014601E14606F147009
:100F230003020FBC24036003020FEA900276E0FF82
:100F3300A3E0FD12168B020FEA1228985003020F4A
:100F4300EAE4F0A3F0900261E0701A9002FCE07012
:100F530008FF122BDEE4FF80077F01122BDE7F01E7
:100F63001228BA801F900261E0B401189002FCE0DD
:100F73007008FF122BCEE4FF80077F01122BCE7F78
:100F830001122B431228B370027F01805512289857
:100F93004055E4F0A3F09002FCE09002777008E083
:100FA300FD7B017F018006E0FD7B01E4FF1214E578
:100FB3001228B370027F0180291228984029E4F097
:100FC300A3F09002FCE09002767008E0FDE4FB7F62
:100FD300018005E0FDE4FBFF1214E51228B3700263
:100FE3007F019002FCEFF0C39002FBE0948090023B
:100FF300FAE094254020E4F0A3F09002FDE06402BF
:101003006004E0B403057F04122230E4FF122C9243
:1010130012234F12000E900273E0FF121B3E12299F
:101023003D120932121DD9122012121E6E121333F1
:101033001219B60229D5E49002D6F0A3F0A3120345
:10104300DC00000000E49002DCF090FC04747FF00C
:101053009002E2121CC5E4FFFE1225D2121CE89096
:1010630002E2121CCB7F807E001225D2121CA3F059
:101073009002591203B89002D7E02FF090025EE07D
:10108300FF9002D7E02FF090025FE0FF9002D7E0DD
:101093002F121CE17E007F0712061BEF7018121D32
:1010A3002BB50712121D35B5070C121CD26007129F
:1010B3001D00F0021144121D2BB5070E121CD26045
:1010C30009900252121D1E7401F0121D35B507233B
:1010D300900259121CD5601B9002D81203B89002DB
:1010E300591203C4D31203944009900259121D1ECE
:1010F3007402F09002DCE024FE6008047019121DF3
:1011030000803190025FE0900261F090025EE09017
:101113000260121CE18020E4900261F090026004FE
:10112300F0A3121CEF1203DC00000001E49002D6CE
:10113300F0121CA3121D107E007F0712010612007D
:101143000E90027C74FFF0900273F022120B4C900D
:1011530002DAF0EF70799002D9F09002D9E0FFC380
:1011630094074003021249120AE48005C333CE33C5
:10117300CED8F9FF9002DAE0FDEF5D6021120B6734
:10118300120AFAC083C082120B09120BED120AE095
:101193008005C333CE33CED8F9120B44801F120B14
:1011A30067120AFAC083C082120B09120BED120AEE
:1011B300E08005C333CE33CED8F9120B34FFD0828F
:1011C300D083EEF0A3EFF09002D9E004F0808BE43B
:1011D3009002D9F09002D9E0FFC394075068120A35
:1011E300E48005C333CE33CED8F9FF9002DAE0FDB5
:1011F300EF5D6021120B76120AFAC083C082120BD4
:1012030009120BF5120AE08005C333CE33CED8F9A9
:10121300120B44801F120B76120AFAC083C082128B
:101223000B09120BF5120AE08005C333CE33CED877
:10123300F9120B34FFD082D083EEF0A3EFF09002CB
:10124300D9E004F0808E22120B4C9002DAF0EF709A
:10125300679002D9F09002D9E0FFC39407400302DC
:101263001332120AE48005C333CE33CED8F9FF908C
:1012730002DAE0FDEF5D6018120AECC083C082124F
:101283000AD18005C333CE33CED8F9120B4480166E
:10129300120AECC083C082120AD18005C333CE3355
:1012A300CED8F9120B34FFD082D083EEF0A3EFF047
:1012B3009002D9E004F0809DE49002D9F09002D925
:1012C300E0FFC394075068120AE48005C333CE33AA
:1012D300CED8F9FF9002DAE0FDEF5D6021120B58E2
:1012E300120AFAC083C082120B09120BE5120AE03C
:1012F3008005C333CE33CED8F9120B44801F120BB3
:1013030058120AFAC083C082120B09120BE5120AA3
:10131300E08005C333CE33CED8F9120B34FFD0822D
:10132300D083EEF0A3EFF09002D9E004F0808E2298
:10133300E49002D6F0A3F09002FEE0702B04F0904C
:101343000272E0FF12260C9002D6EFF0E09002FF4B
:10135300F0E0700790027D04F08005E490027DF0D8
:101363009002FFE0FF1227C8900272E0FF12260CE2
:101373009002D6EFF0122B006F6016122B00D39F52
:101383004008122B009FA3F08007122AF49002D783
:10139300F09002D7E07007900300F0A3F0229002D0
:1013A300D7E0C39402400E900301E09488900300B9
:1013B300E0941340549002D7E0B4010FC3900301AB
:1013C300E09420900300E0944E403EE4900300F04C
:1013D300A3F0122AF45005E004F08009D3122AF591
:1013E3004003E014F09002FFE0701190027DE07082
:1013F30018FF1227C890027D7401F022E490027D49
:10140300F09002FFE0FF1227C82290027CE0F47004
:10141300030214E4E01460690460030214DE900222
:10142300FDE07015900260E07F0070027F01900282
:1014330060EFF012000E0214DB9002FDE0B4011322
:10144300900261E0700504F00214DBE4900261F0A5
:101453000214DB9002FDE0B40210900277E004F086
:10146300E0D3943B4019E4F0806E9002FDE0B403B6
:101473000E900276E004F0E0D39417405BE4F08032
:10148300579002FDE07025900260E0B401047F01F3
:1014930080439002661203DC0000000012000E126B
:1014A3001E6E900261E0FF1229F0802C9002FDE095
:1014B300B401047F02801E9002FDE0B402097F04A0
:1014C3001222307F03800E9002FDE0B4030A7F04F2
:1014D300122230E4FF122C9212234F90027C74FFED
:1014E300F022AA05EF601FEB600EEA120B861211C1
:1014F3004FEA120BDD02114FEA120B8612124AEA6F
:10150300120BDD02124AEB605CE49002D6F090020B
:10151300D6120B6A120AFAC083C082120B09120B8D
:10152300ED120AE08005C333CE33CED8F9120B3463
:10153300FFD082D083120BC0120B79120AFAC08338
:10154300C082120B09120BF5120AE08005C333CED9
:1015530033CED8F9120B34FFD082D083120BC012D2
:101563000C6170AA22E49002D6F09002D6120AEF20
:10157300C083C082120AD18005C333CE33CED8F9DB
:10158300120B34FFD082D083120BC0120B5B120AF2
:10159300FAC083C082120B09120BE5120AE0800520
:1015A300C333CE33CED8F9120B34FFD082D083129B
:1015B3000BC0120C6170B3229002DC1203D0E490D2
:1015C30002E2F0A31203DC000000009002E0E070EE
:1015D30022FF122B0AE49002E1F09002E1E0FFC344
:1015E30094054003021669C007120BA3D007121615
:1015F3006A80E79002DC1203B89002E31203D090F2
:1016030002E2E004F0A31203B8E47B0AFAF9F81249
:1016130002F59002E31203D0E4FFFEFDFC9002E327
:101623001203C4C312039470D67F01122B0A9002D3
:10163300E2E0FFD3940540057405F0800AEFB4019E
:10164300069002E27402F0E49002E1F09002E2E01C
:10165300FE9002E1E0FFC39E500CC007120BA3D023
:101663000712166A80E6227B011218259002DC120B
:1016730003B8E47B0AFAF9F81202F59002DC1203CC
:10168300D09002E1E004F0229002D6EFF0A3EDF057
:10169300E4A3F09002D8120AEFC083C082120AD1E9
:1016A3008005C333CE33CED8F9120B34FFD082D0AA
:1016B30083120BB7120B5B120AFAC083C082120BA0
:1016C30009120BE5120AE08005C333CE33CED8F9F5
:1016D300120B34FFD082D083120BB7120B6A120A9B
:1016E300FAC083C082120B09120BED120AE08005C7
:1016F300C333CE33CED8F9120B34FFD082D083124A
:101703000BB7120B79120AFAC083C082120B0912AB
:101713000BF5120AE08005C333CE33CED8F9120B92
:1017230034FFD082D083120BB7120C616003021610
:10173300969002D6120B8512124A9002D6120BDC37
:1017430012124A9002D7120B8512114F9002D71230
:101753000BDC02114F9002DC1203DC00000000E4FA
:101763009002E0F0A3F0A3F0A374FFF0E49002DB97
:10177300F09002DC1203C49002DBE012216CE0FE65
:10178300A3E0FFE4FCFD12024F9002DC1203D0122F
:101793002167E0FCA3E0FDC39002E1E09D9002E03D
:1017A300E09C5010EF12216CE0FFA3E09002E0CF29
:1017B300F0A3EFF0122167E0FCA3E0FDD39002E376
:1017C300E09D9002E2E09C4010EF12216CE0FFA349
:1017D300E09002E2CFF0A3EFF09002DBE004F0E050
:1017E3006428708D9002DC1203B8C006C007900213
:1017F300E2E0FEA3E0FF9002E1E02FFF9002E0E0D1
:101803003EAB07FAE4F9F8D007D00612025C900267
:10181300DC1203D0E47B26FAF89002DC1203B80250
:1018230002F59002E7EFF0A3EBF0E49002EA120B6B
:101833004B9002EAF0E49002E9F09002E9E0FFC382
:10184300940740030218EF9002E8E06052120AE4A2
:101853008005C333CE33CED8F9FF9002EAE0FDEF23
:101863005D603C120BC9C083C0829002E9E0D08264
:10187300D083120C31120B27C083C082120B8FC08E
:1018830083C0829002E9E0D082D083120C31120A25
:10189300E28005C333CE33CED8F9120B44803A121B
:1018A3000BC9C083C0829002E9E0D082D083120CBE
:1018B30031120B27C083C082120B8FC083C082906A
:1018C30002E9E0D082D083120C31120AE28005C310
:1018D30033CE33CED8F9120B34FFD082D083EEF05F
:1018E300A3EFF09002E9E004F002183D22E4900235
:1018F300D6F0A3F0A31203DC00000000E47FF47E23
:1019030001FDFC12292DC312039450069002B5E089
:1019130060689002B5E0600EE4F090029F1203DC71
:1019230000000000801D7F247EE97D017C00900281
:10193300B11203C412026A12292D1202F590029FFA
:101943001203D09002B11203DC000000009002B633
:101953001203DC00000000E47FFF7EFFFDFC900229
:101963009F1203C4C3120394400A90029F1203DC24
:101973000000FFFF9002D67401F09002D6E06008E9
:10198300E4F090029F12291D9002D81203B890022E
:10199300A51203C4D312039440069002A512291D75
:1019A3009002D7E0600CE4F0A31203B890026A122D
:1019B30003D022E49002D8F0A3F0900274E0FFA3D6
:1019C300E09002D6CFF0A3EFF0900302E07016048C
:1019D300F012295DF0E0700590027E04F09003039D
:1019E300E0FF12267912295DE06F601BE0FF900291
:1019F300D8E0FED39F4009900303E0FFEE9F8003EE
:101A03001229719002D9F09002D9E0FF7007900378
:101A130004F0A3F022EFC39402400E900305E09478
:101A2300B8900304E0940B404E9002D9E0D39401A4
:101A3300500FC3900305E09410900304E0942740F3
:101A430036E4900304F0A3F01229715005E004F08A
:101A5300800B900303E0D39F4003E014F090030353
:101A6300E0700790027E04F08005E490027EF0901F
:101A73000303E0FF122679229002D6120439C374BD
:101A8300089D9002E4F09002DDE0FFC374089F908C
:101A930002E5F0C286C287E49002DEF0E49002E041
:101AA300F0A3F09002E2F0A3F0122539C39F401295
:101AB3001225399002D61225209002E0E5F0F0A31A
:101AC300EFF09002E512253CC39F40159002E5120A
:101AD300253C9002DA1225209002E2E5F0F0A3EF14
:101AE300F0E49002DFF09002E0E0C330E701D3922C
:101AF300859002E2E0C330E701D392B4D28690022C
:101B0300E1E025E0F09002E0E033F09002E3E0252D
:101B1300E0F09002E2E033F0C2869002DFE004F0EE
:101B2300E0B410C29002DEE004F0E0640860030257
:101B33001A9FD287C287C285C2B4229002D6EFF021
:101B4300E4A3F0120C14120AFAC083C082120B0928
:101B5300248DF582E43400120AE08005C333CE33CA
:101B6300CED8F9120B34FFD082D083EEF0A3EFF07E
:101B73009002D7E004F0E0B407C99002D6E0700405
:101B83007F018002E4FF12001E9002D6E0FF60672F
:101B9300F4606474D22F120B4F9002D8F0E49002D9
:101BA300D7F09002D7E0FFC39407504B120AE480AA
:101BB30005C333CE33CED8F9FF9002D8E0FDEF5DF5
:101BC300602D120C14120AFAC083C082120B09246E
:101BD3008DF582E43400120AE08005C333CE33CEA0
:101BE300D8F9120B44FFD082D083EEF0A3EFF0902C
:101BF30002D7E004F080AB229002D8EFF0ED604A08
:101C0300120C4B120B25C083C082120B09242DF535
:101C130082E43400120AE08005C333CE33CED8F910
:101C2300120B44FFD082D083120B12C083C08212E6
:101C33000B092423F582E43401120AE08005C3333F
:101C4300CE33CED8F9120B44804B9002D8120C4BF2
:101C5300120B25C083C082120B09242DF582E434B4
:101C630000120AE08005C333CE33CED8F9120B3409
:101C7300FFD082D083120B12C083C082120B0924BF
:101C830023F582E43401120AE08005C333CE33CE58
:101C9300D8F9120B34FFD082D083EEF0A3EFF022F9
:101CA3009002521203B89002D6E02FF0900257E050
:101CB300FF9002D6E02FF0900258E0FF9002D6E0AA
:101CC3002F227B017A027952E4F0A37407F0229069
:101CD3000252E4FFFEFDFC1203C4C3020394F07836
:101CE300527C027D017B017A02795922E0900258ED
:101CF300F0900260E0900257F09002522290025856
:101D0300E0900261F0900257E090026022F078596F
:101D13007C027D017B017A027952221203B8900280
:101D2300D81203D09002DC22900256E0FF9002D634
:101D3300E02290025DE0FF9002D7E02278FFE4F614
:101D4300D8FD9000007F007E08E4F0A3DFFCDEFAFC
:101D5300758120021D94022464E493A3F8E493A301
:101D63004003F68001F208DFF48029E493A3F854DA
:101D730007240CC8C333C4540F4420C8834004F45D
:101D830056800146F6DFE4800B0102040810204070
:101D93008090066BE47E019360BCA3FF543F30E563
:101DA30009541FFEE493A360010ECF54C025E060E5
:101DB300A840B8E493A3FAE493A3F8E493A3C8C5B3
:101DC30082C8CAC583CAF0A3C8C582C8CAC583CAA4
:101DD300DFE9DEE780BEE49002D6F09002A4E07073
:101DE3000A04F0122C2E9002A3EFF0122C2E900274
:101DF300D6EFF07008A3F0A37432F0802F9002A303
:101E0300E0FF9002D6E0FED39F4005EE9FFF8006E1
:101E1300122933C39FFFEFD394017E0050047F64E4
:101E230080027F329002D7EEF0A3EFF09002D7E06A
:101E3300FEA3E0FFC39002AEE09F9002ADE09E40A0
:101E430029E4F0A3F0122933FE9F5005E004F0804B
:101E530011EED39F400CEED3940040069002A3E012
:101E630014F09002A3E0FF121F8C22900260E09016
:101E730002D6F0E0FB6005900262800390026612D6
:101E830003B89002D71203D0EB7F0160027F00906A
:101E930002DBEFF0900261E0640170299002DBE065
:101EA300600D7F6D7E02120C237BE87A03800B7F2B
:101EB300457E18120C237B107A27F9F81202F5904D
:101EC30002D71203D07F9F7E867D017C009002D7CC
:101ED3001203C4D3120394400A9002D71203DC0006
:101EE30001869F9002D71203B89002DBE09002E0D4
:101EF300F01215BB9002D6E0FF022AB27E01E4FD88
:101F03009002CFE004F09002D1E014601114601A43
:101F130014602124037057EF64A57052800C900263
:101F2300D1E004F09002D0EF80059002D1E004F0FC
:101F3300E4FE803AE4FE9002D0E0FC9002CFE0C3DE
:101F43009C402BE4FC9002D0E014FBECC39B5010AC
:101F530074BA2CF582E43402F583E02DFD0C80E5A0
:101F6300ED6F60047E0180069002D1E004F0EE7014
:101F7300159002CEE024BAF582E43402F583EFF043
:101F83009002CEE004F0AF06229002D9EFF0C394A2
:101F93001D4003741CF0E49002DAF09002DAE0FFD3
:101FA300C3941D50699002D9E0C39F5027A3E01248
:101FB3000C57120AFAC083C082120B092437F58228
:101FC300E43400120AE08005C333CE33CED8F912CD
:101FD3000B3480289002DAE0FF120C57120AFAC081
:101FE30083C082120B092437F582E43400120AE01D
:101FF3008005C333CE33CED8F9120B44FFD082D041
:1020030083EEF0A3EFF09002DAE004F0808D22C3B8
:102013009002F9E094DB9002F8E09401406DE4F063
:10202300A3F090027DE0601C9002F5E07008FF12BF
:102033002C0EE4FD80087F01122C0E7D01E4FF12BB
:102043001BFB80057F01122C0E90027EE0601A902C
:1020530002F5E07009FDFF1222F1E4FF800D7D011E
:10206300E4FF1222F17F0180027F01122BAE900266
:10207300F5E07003FF80027F0112299B9002F5E0D7
:102083007F0070027F019002F5EFF0229002DDEEF7
:10209300F0A3EFF0E4A3F0D3EF94C7EE940040096C
:1020A3009002DDE4F0A374C7F09002DDE0FAA3E050
:1020B300FB9002DFE004F07C007D0AAF03AE021266
:1020C3000196AA06AB07EB4A70E7E4FA9002DFE059
:1020D300FFEAC39FAF025019C007120C05D0077B5C
:1020E30001120DDA120C059002DDEEF0A3EFF08081
:1020F30006E4FBFD120DDA0AEAB403D022122B9E8A
:1021030012297D122A6D122A84122A9BC39002F986
:10211300E094FF9002F8E094FF5007E475F0011299
:1021230001EB9002FDE064016009E064026004E0F9
:10213300B4032CC39002F7E094FF9002F6E094FFFF
:102143005007E475F0011201EBC39002FBE094FF2A
:102153009002FAE094FF500BE475F0010201EBE406
:102163001228A6229002DBE0FF25E024FDF582E49D
:102173003401F58322E0FEA3D3E0FF900271E09FD8
:10218300900270E09E229FFFE09E9002D9F0A3EFA1
:10219300F09002D9E0FEA3E0FFC3940AEE9400227C
:1021A30090026EE0FEA3E0FF2290026EE0FFA3E048
:1021B3009001FBCF22C3EF9414EE94009002D82237
:1021C300E0FEA3E0FF7C00020468E4FB90025212ED
:1021D30003B8EF2401FFE43EFEE43DFDE43CFC9044
:1021E30002521203D0900261121CEF1203B8EB2FBC
:1021F300FB900257E02BFBA3E02B900256121D101D
:102203007E007F07120106E4FF12280F9002DB1203
:102213001CC5E4FFFE1224A37F0112280F121CE841
:102223009002DB121CCB7F807E000224A3E4900289
:10223300D6F09002EB74A5F0EF24FC70519002EC01
:102243007406F0A37404F0900276E09002EEF0902E
:102253000277E09002EFF09002ECE0FF9002EBE0F7
:102263002FFF9002EDE02FFFA3E02FFFA3E02FFE4F
:10227300A3F0E49002D6F07B017A0279EB7D0A1297
:1022830027EC9002D6E004F0E0C3940340E92290E7
:10229300029EE004F0E0C39414402BE4F09002AFFC
:1022A30075F0011201EBC39002B0E094589002AFB5
:1022B300E0940240119002B5E0700B9002AFF0A3DE
:1022C300F09002B504F030962220011C9002A9126E
:1022D30003B8EF2401FFE43EFEE43DFDE43CFC9043
:1022E30002A91203D01224E2D20122C201229002D7
:1022F300DAEFF0ED6025120C37120AFAC083C082C0
:10230300120B09241FF582E43400120AE08005C38E
:1023130033CE33CED8F9120B4480269002DA120C56
:1023230037120AFAC083C082120B09241FF582E414
:102333003400120AE08005C333CE33CED8F9120B32
:1023430034FFD082D083EEF0A3EFF022E49002FCBE
:10235300F01228A69002FDE0700B900270E0FEA33D
:10236300E0FF12255C900261E0700BFF122B437FAC
:10237300011228BA800AE4FF1228BA7F01122B4304
:10238300121E6E900261E0FF1229F0900276E0FFC8
:10239300A3E0FD02168BC3EF9480EE943E40047DD0
:1023A300078039C3EF9428EE9423402E7C007D05EB
:1023B300120468EF24E4FFEE345DFEED34FFFDEC20
:1023C30034FFFCE47B587A1BF9F81202F5EF240280
:1023D300FDD3940740067D078002E4FDAF0522C0CC
:1023E300E0C0F0C083C082C0D075D000C000C0017F
:1023F300C002C003C004C005C006C007758CF875D1
:102403008ACD122C86D007D006D005D004D003D0B5
:1024130002D001D000D0D0D082D083D0F0D0E0322F
:10242300C0E0C0F0C083C082C0D075D000C000C07F
:1024330001C002C003C004C005C006C007758DFFFC
:10244300758BA4122292D007D006D005D004D003F6
:10245300D002D001D000D0D0D082D083D0F0D0E051
:1024630032E49002D5F0122A3ED2AF12277E122B0D
:102473007C122B8D122C6B122598120003122CAC9C
:1024830012103912264575AAA51218F012140D124E
:102493000F171227A3122C1E120C6812287680E63F
:1024A3009002D8120439AD07AC061226F81226DDC5
:1024B3007402F0E4FFFED39002DCE09F9002DBE0C5
:1024C3009E40189002D8E475F00112042212012CE8
:1024D30090FC02F00FBF00010E80DB1226EC22906D
:1024E30002B11203B89002A91203C412024F900260
:1024F300B11203D09002A91203DC000000001229DC
:102503002D9002AFE0FEA3E0FFE4FCFD12024F902A
:1025130002B61203D0E49002AFF0A3F0229FFFE4CF
:102523009400FEEF25E0FFEE33FE1204198F828E36
:1025330083120217FF229002E4E0FF9002DEE02202
:102543007B017A02797F9002DA1204399002DD224C
:102553007E007D007B0102063F9002DBEEF0A3EFDD
:10256300F0900261E0700A9002DBE0FEA3E0FF80DE
:1025730020900261E0B4011C9002DBE0FEA3E0FFC7
:102583007C027D6D120468E47BE87A03F9F8120299
:10259300F512208F227F0E7A02798F1225537F1036
:1025A3007A02797F1225539080067402F090800599
:1025B300F090801CF0908007F0C285C2B4C286C23E
:1025C300871225437407F07A02798FFD021A7B90F4
:1025D30002DF1204391226D77401F0E4FFFED39010
:1025E30002E3E09F9002E2E09E401A90FC02E0FDCD
:1025F3009002DFE475F001120422ED1201720FBFA5
:1026030000010E80D91226EC22EFD394104004EF80
:10261300B4FF04E4FE8028EFD3942150047E0180AC
:102623001EEFD3943250047E028014EFD3944250B1
:10263300047E03800AEFD394537E0550027E04AFD9
:1026430006227F0E7A02798F122C9D7F107A0279EF
:102653007F122C9D75AAA5C3900307E094D0900325
:1026630006E094074008900289E0547FF022120CA0
:10267300681229D580DEAB07E4FAEBD39A5006AF94
:1026830002E4FD8017EA2401FFE433FEEBC39FEE6F
:102693006480F87480984007AF027D011222F10A2A
:1026A300EAB407D622C0E0C083C082C0D075D00090
:1026B300C007E59A30E008439A01AF9B122832E540
:1026C3009A30E105439A02C200D007D0D0D082D01D
:1026D30083D0E032AC06E490FC01F0EC90FC06F011
:1026E30090FC05EFF090FC0122E490FC01F090FCDB
:1026F3000374AAF022E490FC01F090FC03742A22F4
:102703009002BE7810E0FFE4FCFDFE0203A5120375
:1027130087A804A905AA06AB07A3E0FFE4FCFDFE16
:10272300229002BDE0FEA3E0FDEDFF22E004F0E015
:10273300C39464227E007F677D007B0102063FE035
:10274300242CF582E43401F58322E02493F582E41A
:102753003401F58322EFC39402401FEFD394085052
:1027630019EF24FE33333354F84480F5ADE5AD302F
:10277300E0FBE5A254F84404F5A222C2007A0179F1
:10278300931227377A01792C122737908009740323
:10279300F090800AF0F59D759CFA759AD0D2AE221E
:1027A3002094047F018002E4FF122BFE2095047F16
:1027B300018002E4FF122BEE2082047F018002E4F9
:1027C300FF122C4D22AB07E4FAEBD39A5006AF026B
:1027D300E4FD800CC3EB9AD394004007AF027D0164
:1027E300121BFB0AEAB405E1229002D7120439E472
:1027F300FEEEC39D50159002D71204198E82758385
:1028030000120145FF1228540E80E622E490FC01D9
:10281300F0EF75F080A4FDACF090FC03742AF0ECAB
:1028230090FC06F0AF051226E374031226F0229003
:10283300019012272F4002E4F0900190122742EFFB
:10284300F0900192E004F0E0D3946440037464F0E8
:10285300229001F712272F4002E4F09001F712278C
:102863004DEFF09001F9E004F0E0D3946440037479
:1028730064F02290024FE0601BC3900251E094D0B9
:10288300900250E09407400CE490024FF0A3F0A3B1
:10289300F01221CD22C39002F7E094909002F6E06B
:1028A3009401229002F6F0A3F09002FAF0A3F02232
:1028B3009002FCE07F0022EF9002956012E044104A
:1028C300F0A3E0F0900295E04420F0A3E0F022E0D2
:1028D30054EFF0E054DFF022900192E07002FF2207
:1028E30090019112272F4002E4F0900191122742A8
:1028F300E0FF900192E014F0229001F9E07002FFF2
:10290300229001F812272F4002E4F09001F81227D9
:102913004DE0FF9001F9E014F0221203B89002D8C1
:102923001203D09002D77401F0229002B60203C4BE
:102933009002D6E0FF9002A3E022900278E0FF121B
:102943002B1D900279E0FF122B3090027AE0FF12E8
:102953002B5690027BE0FF022C3E9002D6E0FEA3B2
:10296300E0FF1223999002D8EFF090030322900224
:10297300D8E0FF900303E0C39F229002FDE0600BC9
:10298300E064016006E490024DF02290024DE0C342
:1029930094FF5003E004F022EF90028D600B120CC1
:1029A3004390028CE04401F022E0547FF090028CCB
:1029B300E054FEF0229002D2E06016C39002D4E00D
:1029C30094FF9002D3E094FF5007E475F0011201E5
:1029D300EB2290029DE0C394194011E4F0122543C9
:1029E3007408F07A02798F7D07121A7B22AE07EE04
:1029F3007008FF122BCE0F022BDEEEB40109E4FFA9
:102A0300122BDE0F122BCE2290024EE012216CEE1F
:102A1300F0A3EFF090024EE004F0E0C394284002EC
:102A2300E4F022EF9002906009E04420F0E044409B
:102A3300F022E054DFF0E054BFF02275EFE17F06AF
:102A430012275843A18075A941E4F5AC75AB4B75CA
:102A5300AAA522C3900307E094FF900306E094FF26
:102A63005007E475F0011201EB22C39002AEE0942B
:102A7300FF9002ADE094FF5007E475F0011201EB03
:102A830022C3900301E094FF900300E094FF5007FA
:102A9300E475F0011201EB22C3900305E094FF906B
:102AA3000304E094FF5007E475F0011201EB22AE3A
:102AB30007EE7F0160027F00122A26EE7F0060028C
:102AC3007F01022BBEE49002CFF09002CEF0900281
:102AD300D2F0A3F0A3F09002D1F022E4FDED122195
:102AE3006CEEF0A3EFF00DEDB428F2E490024EF09B
:102AF30022C39002D6E0FF9002FFE09F229002FFE4
:102B0300E0FF9002D6E022EF9002996008E0444093
:102B1300F0A3E0F022E054BFF022EF9002976008A8
:102B2300E04401F0A3E0F022E054FEF022EF900233
:102B3300956008E04404F0A3E0F022E054FBF022A7
:102B4300EF9002956008E04408F0A3E0F022E0541F
:102B5300F7F022EF9002956008E04440F0A3E0F024
:102B630022E054BFF022C39002D4E094D09002D369
:102B7300E094074003122AC8225389FC4389017554
:102B83008CF8758ACDD28CD2A9225389CF43891070
:102B9300758DFF758BA4D28ED2AB2290029DE0C3BC
:102BA30094FFE494FF5003E004F022EF9002866068
:102BB30005E04480F022E0547FF022EF90029C6015
:102BC30005E04401F022E054FEF022EF9002986009
:102BD30005E04440F022E054BFF022EF90029860F9
:102BE30005E04480F022E0547FF022EF90029460ED
:102BF30005E04402F022E054FDF022EF90029460DD
:102C030005E04401F022E054FEF022EF90029260CE
:102C130005E04410F022E054EFF0229001F9E06067
:102C2300092000061228FC122C7A22E47BF47A0194
:102C3300F9F890026A1203B80202F5EF90028B6072
:102C430004120C4322E0547FF022EF9002956004BB
:102C5300120C4322E0547FF02290024FE06008A35D
:102C6300E475F0011201EB2290800C7401F0908066
:102C73000DF0908002F0222000FDC2AE8F9BD200A7
:102C8300D2AE22122A56122100122C5C0229B890CD
:102C930002FDEFF0E49002FCF0227E007DFF7B0159
:0F2CA30002063F900192E0FF22E49002FDF02232
:00000001FF
